{
  "_format": "hh-sol-artifact-1",
  "contractName": "NotarizedDocumentNft",
  "sourceName": "contracts/NotarizedDocumentNft.sol",
  "abi": [
    {
      "inputs": [],
      "stateMutability": "nonpayable",
      "type": "constructor"
    },
    {
      "anonymous": false,
      "inputs": [
        {
          "indexed": true,
          "internalType": "address",
          "name": "owner",
          "type": "address"
        },
        {
          "indexed": true,
          "internalType": "address",
          "name": "approved",
          "type": "address"
        },
        {
          "indexed": true,
          "internalType": "uint256",
          "name": "tokenId",
          "type": "uint256"
        }
      ],
      "name": "Approval",
      "type": "event"
    },
    {
      "anonymous": false,
      "inputs": [
        {
          "indexed": true,
          "internalType": "address",
          "name": "owner",
          "type": "address"
        },
        {
          "indexed": true,
          "internalType": "address",
          "name": "operator",
          "type": "address"
        },
        {
          "indexed": false,
          "internalType": "bool",
          "name": "approved",
          "type": "bool"
        }
      ],
      "name": "ApprovalForAll",
      "type": "event"
    },
    {
      "anonymous": false,
      "inputs": [
        {
          "indexed": true,
          "internalType": "address",
          "name": "previousOwner",
          "type": "address"
        },
        {
          "indexed": true,
          "internalType": "address",
          "name": "newOwner",
          "type": "address"
        }
      ],
      "name": "OwnershipTransferred",
      "type": "event"
    },
    {
      "anonymous": false,
      "inputs": [
        {
          "indexed": true,
          "internalType": "address",
          "name": "from",
          "type": "address"
        },
        {
          "indexed": true,
          "internalType": "address",
          "name": "to",
          "type": "address"
        },
        {
          "indexed": true,
          "internalType": "uint256",
          "name": "tokenId",
          "type": "uint256"
        }
      ],
      "name": "Transfer",
      "type": "event"
    },
    {
      "inputs": [
        {
          "internalType": "address",
          "name": "to",
          "type": "address"
        },
        {
          "internalType": "uint256",
          "name": "tokenId",
          "type": "uint256"
        }
      ],
      "name": "approve",
      "outputs": [],
      "stateMutability": "nonpayable",
      "type": "function"
    },
    {
      "inputs": [
        {
          "internalType": "address",
          "name": "owner",
          "type": "address"
        }
      ],
      "name": "balanceOf",
      "outputs": [
        {
          "internalType": "uint256",
          "name": "",
          "type": "uint256"
        }
      ],
      "stateMutability": "view",
      "type": "function"
    },
    {
      "inputs": [
        {
          "internalType": "uint256",
          "name": "tokenId",
          "type": "uint256"
        }
      ],
      "name": "getApproved",
      "outputs": [
        {
          "internalType": "address",
          "name": "",
          "type": "address"
        }
      ],
      "stateMutability": "view",
      "type": "function"
    },
    {
      "inputs": [
        {
          "internalType": "address",
          "name": "owner",
          "type": "address"
        },
        {
          "internalType": "address",
          "name": "operator",
          "type": "address"
        }
      ],
      "name": "isApprovedForAll",
      "outputs": [
        {
          "internalType": "bool",
          "name": "",
          "type": "bool"
        }
      ],
      "stateMutability": "view",
      "type": "function"
    },
    {
      "inputs": [
        {
          "internalType": "address",
          "name": "to",
          "type": "address"
        },
        {
          "internalType": "string",
          "name": "_metadataUri",
          "type": "string"
        }
      ],
      "name": "mint",
      "outputs": [
        {
          "internalType": "uint256",
          "name": "tokenId",
          "type": "uint256"
        }
      ],
      "stateMutability": "nonpayable",
      "type": "function"
    },
    {
      "inputs": [],
      "name": "name",
      "outputs": [
        {
          "internalType": "string",
          "name": "",
          "type": "string"
        }
      ],
      "stateMutability": "view",
      "type": "function"
    },
    {
      "inputs": [],
      "name": "owner",
      "outputs": [
        {
          "internalType": "address",
          "name": "",
          "type": "address"
        }
      ],
      "stateMutability": "view",
      "type": "function"
    },
    {
      "inputs": [
        {
          "internalType": "uint256",
          "name": "tokenId",
          "type": "uint256"
        }
      ],
      "name": "ownerOf",
      "outputs": [
        {
          "internalType": "address",
          "name": "",
          "type": "address"
        }
      ],
      "stateMutability": "view",
      "type": "function"
    },
    {
      "inputs": [],
      "name": "renounceOwnership",
      "outputs": [],
      "stateMutability": "nonpayable",
      "type": "function"
    },
    {
      "inputs": [
        {
          "internalType": "address",
          "name": "from",
          "type": "address"
        },
        {
          "internalType": "address",
          "name": "to",
          "type": "address"
        },
        {
          "internalType": "uint256",
          "name": "tokenId",
          "type": "uint256"
        }
      ],
      "name": "safeTransferFrom",
      "outputs": [],
      "stateMutability": "nonpayable",
      "type": "function"
    },
    {
      "inputs": [
        {
          "internalType": "address",
          "name": "from",
          "type": "address"
        },
        {
          "internalType": "address",
          "name": "to",
          "type": "address"
        },
        {
          "internalType": "uint256",
          "name": "tokenId",
          "type": "uint256"
        },
        {
          "internalType": "bytes",
          "name": "data",
          "type": "bytes"
        }
      ],
      "name": "safeTransferFrom",
      "outputs": [],
      "stateMutability": "nonpayable",
      "type": "function"
    },
    {
      "inputs": [
        {
          "internalType": "address",
          "name": "operator",
          "type": "address"
        },
        {
          "internalType": "bool",
          "name": "approved",
          "type": "bool"
        }
      ],
      "name": "setApprovalForAll",
      "outputs": [],
      "stateMutability": "nonpayable",
      "type": "function"
    },
    {
      "inputs": [
        {
          "internalType": "bytes4",
          "name": "interfaceId",
          "type": "bytes4"
        }
      ],
      "name": "supportsInterface",
      "outputs": [
        {
          "internalType": "bool",
          "name": "",
          "type": "bool"
        }
      ],
      "stateMutability": "view",
      "type": "function"
    },
    {
      "inputs": [],
      "name": "symbol",
      "outputs": [
        {
          "internalType": "string",
          "name": "",
          "type": "string"
        }
      ],
      "stateMutability": "view",
      "type": "function"
    },
    {
      "inputs": [
        {
          "internalType": "uint256",
          "name": "tokenId",
          "type": "uint256"
        }
      ],
      "name": "tokenURI",
      "outputs": [
        {
          "internalType": "string",
          "name": "",
          "type": "string"
        }
      ],
      "stateMutability": "view",
      "type": "function"
    },
    {
      "inputs": [
        {
          "internalType": "address",
          "name": "from",
          "type": "address"
        },
        {
          "internalType": "address",
          "name": "to",
          "type": "address"
        },
        {
          "internalType": "uint256",
          "name": "tokenId",
          "type": "uint256"
        }
      ],
      "name": "transferFrom",
      "outputs": [],
      "stateMutability": "nonpayable",
      "type": "function"
    },
    {
      "inputs": [
        {
          "internalType": "address",
          "name": "newOwner",
          "type": "address"
        }
      ],
      "name": "transferOwnership",
      "outputs": [],
      "stateMutability": "nonpayable",
      "type": "function"
    }
  ],
  "bytecode": "0x608060405260006008553480156200001657600080fd5b50604080518082018252601481527f4e6f746172697a6564446f63756d656e744e66740000000000000000000000006020808301918252835180850190945260048452634e444f4360e01b908401528151919291620000789160009162000107565b5080516200008e90600190602084019062000107565b505050620000ab620000a5620000b160201b60201c565b620000b5565b620001ea565b3390565b600780546001600160a01b038381166001600160a01b0319831681179093556040519116919082907f8be0079c531659141344cd1fd0a4f28419497f9722a3daafe3b4186f6b6457e090600090a35050565b8280546200011590620001ad565b90600052602060002090601f01602090048101928262000139576000855562000184565b82601f106200015457805160ff191683800117855562000184565b8280016001018555821562000184579182015b828111156200018457825182559160200191906001019062000167565b506200019292915062000196565b5090565b5b8082111562000192576000815560010162000197565b600181811c90821680620001c257607f821691505b60208210811415620001e457634e487b7160e01b600052602260045260246000fd5b50919050565b61176d80620001fa6000396000f3fe608060405234801561001057600080fd5b506004361061010b5760003560e01c8063715018a6116100a2578063b88d4fde11610071578063b88d4fde1461021b578063c87b56dd1461022e578063d0def52114610241578063e985e9c514610254578063f2fde38b1461029057600080fd5b8063715018a6146101e75780638da5cb5b146101ef57806395d89b4114610200578063a22cb4651461020857600080fd5b806323b872dd116100de57806323b872dd1461018d57806342842e0e146101a05780636352211e146101b357806370a08231146101c657600080fd5b806301ffc9a71461011057806306fdde0314610138578063081812fc1461014d578063095ea7b314610178575b600080fd5b61012361011e36600461146b565b6102a3565b60405190151581526020015b60405180910390f35b6101406102f5565b60405161012f9190611553565b61016061015b3660046114a3565b610387565b6040516001600160a01b03909116815260200161012f565b61018b610186366004611442565b6103ae565b005b61018b61019b3660046112f5565b6104c9565b61018b6101ae3660046112f5565b6104fa565b6101606101c13660046114a3565b610515565b6101d96101d43660046112a9565b610575565b60405190815260200161012f565b61018b6105fb565b6007546001600160a01b0316610160565b61014061060f565b61018b6102163660046113a9565b61061e565b61018b610229366004611330565b61062d565b61014061023c3660046114a3565b610665565b6101d961024f3660046113e3565b610776565b6101236102623660046112c3565b6001600160a01b03918216600090815260056020908152604080832093909416825291909152205460ff1690565b61018b61029e3660046112a9565b6107ac565b60006001600160e01b031982166380ac58cd60e01b14806102d457506001600160e01b03198216635b5e139f60e01b145b806102ef57506301ffc9a760e01b6001600160e01b03198316145b92915050565b60606000805461030490611675565b80601f016020809104026020016040519081016040528092919081815260200182805461033090611675565b801561037d5780601f106103525761010080835404028352916020019161037d565b820191906000526020600020905b81548152906001019060200180831161036057829003601f168201915b5050505050905090565b600061039282610825565b506000908152600460205260409020546001600160a01b031690565b60006103b982610515565b9050806001600160a01b0316836001600160a01b0316141561042c5760405162461bcd60e51b815260206004820152602160248201527f4552433732313a20617070726f76616c20746f2063757272656e74206f776e656044820152603960f91b60648201526084015b60405180910390fd5b336001600160a01b038216148061044857506104488133610262565b6104ba5760405162461bcd60e51b815260206004820152603e60248201527f4552433732313a20617070726f76652063616c6c6572206973206e6f7420746f60448201527f6b656e206f776e6572206e6f7220617070726f76656420666f7220616c6c00006064820152608401610423565b6104c48383610884565b505050565b6104d333826108f2565b6104ef5760405162461bcd60e51b8152600401610423906115b8565b6104c4838383610970565b6104c48383836040518060200160405280600081525061062d565b6000818152600260205260408120546001600160a01b0316806102ef5760405162461bcd60e51b8152602060048201526018602482015277115490cdcc8c4e881a5b9d985b1a59081d1bdad95b88125160421b6044820152606401610423565b60006001600160a01b0382166105df5760405162461bcd60e51b815260206004820152602960248201527f4552433732313a2061646472657373207a65726f206973206e6f7420612076616044820152683634b21037bbb732b960b91b6064820152608401610423565b506001600160a01b031660009081526003602052604090205490565b610603610b0c565b61060d6000610b66565b565b60606001805461030490611675565b610629338383610bb8565b5050565b61063733836108f2565b6106535760405162461bcd60e51b8152600401610423906115b8565b61065f84848484610c87565b50505050565b606061067082610825565b6000828152600660205260408120805461068990611675565b80601f01602080910402602001604051908101604052809291908181526020018280546106b590611675565b80156107025780601f106106d757610100808354040283529160200191610702565b820191906000526020600020905b8154815290600101906020018083116106e557829003601f168201915b50505050509050600061072060408051602081019091526000815290565b9050805160001415610733575092915050565b81511561076557808260405160200161074d9291906114e7565b60405160208183030381529060405292505050919050565b61076e84610cba565b949350505050565b6000610780610b0c565b5060085461078e8382610d2e565b6107988183610d48565b6107a3816001611606565b60085592915050565b6107b4610b0c565b6001600160a01b0381166108195760405162461bcd60e51b815260206004820152602660248201527f4f776e61626c653a206e6577206f776e657220697320746865207a65726f206160448201526564647265737360d01b6064820152608401610423565b61082281610b66565b50565b6000818152600260205260409020546001600160a01b03166108225760405162461bcd60e51b8152602060048201526018602482015277115490cdcc8c4e881a5b9d985b1a59081d1bdad95b88125160421b6044820152606401610423565b600081815260046020526040902080546001600160a01b0319166001600160a01b03841690811790915581906108b982610515565b6001600160a01b03167f8c5be1e5ebec7d5bd14f71427d1e84f3dd0314c0f7b2291e5b200ac8c7c3b92560405160405180910390a45050565b6000806108fe83610515565b9050806001600160a01b0316846001600160a01b0316148061094557506001600160a01b0380821660009081526005602090815260408083209388168352929052205460ff165b8061076e5750836001600160a01b031661095e84610387565b6001600160a01b031614949350505050565b826001600160a01b031661098382610515565b6001600160a01b0316146109e75760405162461bcd60e51b815260206004820152602560248201527f4552433732313a207472616e736665722066726f6d20696e636f72726563742060448201526437bbb732b960d91b6064820152608401610423565b6001600160a01b038216610a495760405162461bcd60e51b8152602060048201526024808201527f4552433732313a207472616e7366657220746f20746865207a65726f206164646044820152637265737360e01b6064820152608401610423565b610a54600082610884565b6001600160a01b0383166000908152600360205260408120805460019290610a7d908490611632565b90915550506001600160a01b0382166000908152600360205260408120805460019290610aab908490611606565b909155505060008181526002602052604080822080546001600160a01b0319166001600160a01b0386811691821790925591518493918716917fddf252ad1be2c89b69c2b068fc378daa952ba7f163c4a11628f55a4df523b3ef91a4505050565b6007546001600160a01b0316331461060d5760405162461bcd60e51b815260206004820181905260248201527f4f776e61626c653a2063616c6c6572206973206e6f7420746865206f776e65726044820152606401610423565b600780546001600160a01b038381166001600160a01b0319831681179093556040519116919082907f8be0079c531659141344cd1fd0a4f28419497f9722a3daafe3b4186f6b6457e090600090a35050565b816001600160a01b0316836001600160a01b03161415610c1a5760405162461bcd60e51b815260206004820152601960248201527f4552433732313a20617070726f766520746f2063616c6c6572000000000000006044820152606401610423565b6001600160a01b03838116600081815260056020908152604080832094871680845294825291829020805460ff191686151590811790915591519182527f17307eab39ab6107e8899845ad3d59bd9653f200f220920489ca2b5937696c31910160405180910390a3505050565b610c92848484610970565b610c9e84848484610de2565b61065f5760405162461bcd60e51b815260040161042390611566565b6060610cc582610825565b6000610cdc60408051602081019091526000815290565b90506000815111610cfc5760405180602001604052806000815250610d27565b80610d0684610eef565b604051602001610d179291906114e7565b6040516020818303038152906040525b9392505050565b610629828260405180602001604052806000815250611009565b6000828152600260205260409020546001600160a01b0316610dc35760405162461bcd60e51b815260206004820152602e60248201527f45524337323155524953746f726167653a2055524920736574206f66206e6f6e60448201526d32bc34b9ba32b73a103a37b5b2b760911b6064820152608401610423565b600082815260066020908152604090912082516104c49284019061117e565b60006001600160a01b0384163b15610ee457604051630a85bd0160e11b81526001600160a01b0385169063150b7a0290610e26903390899088908890600401611516565b602060405180830381600087803b158015610e4057600080fd5b505af1925050508015610e70575060408051601f3d908101601f19168201909252610e6d91810190611487565b60015b610eca573d808015610e9e576040519150601f19603f3d011682016040523d82523d6000602084013e610ea3565b606091505b508051610ec25760405162461bcd60e51b815260040161042390611566565b805181602001fd5b6001600160e01b031916630a85bd0160e11b14905061076e565b506001949350505050565b606081610f135750506040805180820190915260018152600360fc1b602082015290565b8160005b8115610f3d5780610f27816116b0565b9150610f369050600a8361161e565b9150610f17565b60008167ffffffffffffffff811115610f6657634e487b7160e01b600052604160045260246000fd5b6040519080825280601f01601f191660200182016040528015610f90576020820181803683370190505b5090505b841561076e57610fa5600183611632565b9150610fb2600a866116cb565b610fbd906030611606565b60f81b818381518110610fe057634e487b7160e01b600052603260045260246000fd5b60200101906001600160f81b031916908160001a905350611002600a8661161e565b9450610f94565b611013838361103c565b6110206000848484610de2565b6104c45760405162461bcd60e51b815260040161042390611566565b6001600160a01b0382166110925760405162461bcd60e51b815260206004820181905260248201527f4552433732313a206d696e7420746f20746865207a65726f20616464726573736044820152606401610423565b6000818152600260205260409020546001600160a01b0316156110f75760405162461bcd60e51b815260206004820152601c60248201527f4552433732313a20746f6b656e20616c7265616479206d696e746564000000006044820152606401610423565b6001600160a01b0382166000908152600360205260408120805460019290611120908490611606565b909155505060008181526002602052604080822080546001600160a01b0319166001600160a01b03861690811790915590518392907fddf252ad1be2c89b69c2b068fc378daa952ba7f163c4a11628f55a4df523b3ef908290a45050565b82805461118a90611675565b90600052602060002090601f0160209004810192826111ac57600085556111f2565b82601f106111c557805160ff19168380011785556111f2565b828001600101855582156111f2579182015b828111156111f25782518255916020019190600101906111d7565b506111fe929150611202565b5090565b5b808211156111fe5760008155600101611203565b600067ffffffffffffffff808411156112325761123261170b565b604051601f8501601f19908116603f0116810190828211818310171561125a5761125a61170b565b8160405280935085815286868601111561127357600080fd5b858560208301376000602087830101525050509392505050565b80356001600160a01b03811681146112a457600080fd5b919050565b6000602082840312156112ba578081fd5b610d278261128d565b600080604083850312156112d5578081fd5b6112de8361128d565b91506112ec6020840161128d565b90509250929050565b600080600060608486031215611309578081fd5b6113128461128d565b92506113206020850161128d565b9150604084013590509250925092565b60008060008060808587031215611345578081fd5b61134e8561128d565b935061135c6020860161128d565b925060408501359150606085013567ffffffffffffffff81111561137e578182fd5b8501601f8101871361138e578182fd5b61139d87823560208401611217565b91505092959194509250565b600080604083850312156113bb578182fd5b6113c48361128d565b9150602083013580151581146113d8578182fd5b809150509250929050565b600080604083850312156113f5578182fd5b6113fe8361128d565b9150602083013567ffffffffffffffff811115611419578182fd5b8301601f81018513611429578182fd5b61143885823560208401611217565b9150509250929050565b60008060408385031215611454578182fd5b61145d8361128d565b946020939093013593505050565b60006020828403121561147c578081fd5b8135610d2781611721565b600060208284031215611498578081fd5b8151610d2781611721565b6000602082840312156114b4578081fd5b5035919050565b600081518084526114d3816020860160208601611649565b601f01601f19169290920160200192915050565b600083516114f9818460208801611649565b83519083019061150d818360208801611649565b01949350505050565b6001600160a01b0385811682528416602082015260408101839052608060608201819052600090611549908301846114bb565b9695505050505050565b602081526000610d2760208301846114bb565b60208082526032908201527f4552433732313a207472616e7366657220746f206e6f6e20455243373231526560408201527131b2b4bb32b91034b6b83632b6b2b73a32b960711b606082015260800190565b6020808252602e908201527f4552433732313a2063616c6c6572206973206e6f7420746f6b656e206f776e6560408201526d1c881b9bdc88185c1c1c9bdd995960921b606082015260800190565b60008219821115611619576116196116df565b500190565b60008261162d5761162d6116f5565b500490565b600082821015611644576116446116df565b500390565b60005b8381101561166457818101518382015260200161164c565b8381111561065f5750506000910152565b600181811c9082168061168957607f821691505b602082108114156116aa57634e487b7160e01b600052602260045260246000fd5b50919050565b60006000198214156116c4576116c46116df565b5060010190565b6000826116da576116da6116f5565b500690565b634e487b7160e01b600052601160045260246000fd5b634e487b7160e01b600052601260045260246000fd5b634e487b7160e01b600052604160045260246000fd5b6001600160e01b03198116811461082257600080fdfea2646970667358221220a90723f986b1ba1f1105acfe1294067f489725230240d2a1a4f385c56f68588464736f6c63430008040033",
  "linkReferences": {},
  "deployedLinkReferences": {}
}