{
  "_format": "hh-sol-artifact-1",
  "contractName": "NotarizedDocumentNft",
  "sourceName": "contracts/NotarizedDocumentNft.sol",
  "abi": [
    {
      "inputs": [],
      "stateMutability": "nonpayable",
      "type": "constructor"
    },
    {
      "anonymous": false,
      "inputs": [
        {
          "indexed": true,
          "internalType": "address",
          "name": "owner",
          "type": "address"
        },
        {
          "indexed": true,
          "internalType": "address",
          "name": "approved",
          "type": "address"
        },
        {
          "indexed": true,
          "internalType": "uint256",
          "name": "tokenId",
          "type": "uint256"
        }
      ],
      "name": "Approval",
      "type": "event"
    },
    {
      "anonymous": false,
      "inputs": [
        {
          "indexed": true,
          "internalType": "address",
          "name": "owner",
          "type": "address"
        },
        {
          "indexed": true,
          "internalType": "address",
          "name": "operator",
          "type": "address"
        },
        {
          "indexed": false,
          "internalType": "bool",
          "name": "approved",
          "type": "bool"
        }
      ],
      "name": "ApprovalForAll",
      "type": "event"
    },
    {
      "anonymous": false,
      "inputs": [
        {
          "indexed": true,
          "internalType": "address",
          "name": "previousOwner",
          "type": "address"
        },
        {
          "indexed": true,
          "internalType": "address",
          "name": "newOwner",
          "type": "address"
        }
      ],
      "name": "OwnershipTransferred",
      "type": "event"
    },
    {
      "anonymous": false,
      "inputs": [
        {
          "indexed": true,
          "internalType": "address",
          "name": "from",
          "type": "address"
        },
        {
          "indexed": true,
          "internalType": "address",
          "name": "to",
          "type": "address"
        },
        {
          "indexed": true,
          "internalType": "uint256",
          "name": "tokenId",
          "type": "uint256"
        }
      ],
      "name": "Transfer",
      "type": "event"
    },
    {
      "inputs": [
        {
          "internalType": "address",
          "name": "to",
          "type": "address"
        },
        {
          "internalType": "uint256",
          "name": "tokenId",
          "type": "uint256"
        }
      ],
      "name": "approve",
      "outputs": [],
      "stateMutability": "nonpayable",
      "type": "function"
    },
    {
      "inputs": [
        {
          "internalType": "address",
          "name": "owner",
          "type": "address"
        }
      ],
      "name": "balanceOf",
      "outputs": [
        {
          "internalType": "uint256",
          "name": "",
          "type": "uint256"
        }
      ],
      "stateMutability": "view",
      "type": "function"
    },
    {
      "inputs": [
        {
          "internalType": "uint256",
          "name": "tokenId",
          "type": "uint256"
        }
      ],
      "name": "getApproved",
      "outputs": [
        {
          "internalType": "address",
          "name": "",
          "type": "address"
        }
      ],
      "stateMutability": "view",
      "type": "function"
    },
    {
      "inputs": [
        {
          "internalType": "address",
          "name": "owner",
          "type": "address"
        },
        {
          "internalType": "address",
          "name": "operator",
          "type": "address"
        }
      ],
      "name": "isApprovedForAll",
      "outputs": [
        {
          "internalType": "bool",
          "name": "",
          "type": "bool"
        }
      ],
      "stateMutability": "view",
      "type": "function"
    },
    {
      "inputs": [
        {
          "internalType": "string",
          "name": "_metadataUri",
          "type": "string"
        }
      ],
      "name": "mint",
      "outputs": [
        {
          "internalType": "uint256",
          "name": "tokenId",
          "type": "uint256"
        }
      ],
      "stateMutability": "nonpayable",
      "type": "function"
    },
    {
      "inputs": [],
      "name": "name",
      "outputs": [
        {
          "internalType": "string",
          "name": "",
          "type": "string"
        }
      ],
      "stateMutability": "view",
      "type": "function"
    },
    {
      "inputs": [],
      "name": "owner",
      "outputs": [
        {
          "internalType": "address",
          "name": "",
          "type": "address"
        }
      ],
      "stateMutability": "view",
      "type": "function"
    },
    {
      "inputs": [
        {
          "internalType": "uint256",
          "name": "tokenId",
          "type": "uint256"
        }
      ],
      "name": "ownerOf",
      "outputs": [
        {
          "internalType": "address",
          "name": "",
          "type": "address"
        }
      ],
      "stateMutability": "view",
      "type": "function"
    },
    {
      "inputs": [],
      "name": "renounceOwnership",
      "outputs": [],
      "stateMutability": "nonpayable",
      "type": "function"
    },
    {
      "inputs": [
        {
          "internalType": "address",
          "name": "from",
          "type": "address"
        },
        {
          "internalType": "address",
          "name": "to",
          "type": "address"
        },
        {
          "internalType": "uint256",
          "name": "tokenId",
          "type": "uint256"
        }
      ],
      "name": "safeTransferFrom",
      "outputs": [],
      "stateMutability": "nonpayable",
      "type": "function"
    },
    {
      "inputs": [
        {
          "internalType": "address",
          "name": "from",
          "type": "address"
        },
        {
          "internalType": "address",
          "name": "to",
          "type": "address"
        },
        {
          "internalType": "uint256",
          "name": "tokenId",
          "type": "uint256"
        },
        {
          "internalType": "bytes",
          "name": "data",
          "type": "bytes"
        }
      ],
      "name": "safeTransferFrom",
      "outputs": [],
      "stateMutability": "nonpayable",
      "type": "function"
    },
    {
      "inputs": [
        {
          "internalType": "address",
          "name": "operator",
          "type": "address"
        },
        {
          "internalType": "bool",
          "name": "approved",
          "type": "bool"
        }
      ],
      "name": "setApprovalForAll",
      "outputs": [],
      "stateMutability": "nonpayable",
      "type": "function"
    },
    {
      "inputs": [
        {
          "internalType": "bytes4",
          "name": "interfaceId",
          "type": "bytes4"
        }
      ],
      "name": "supportsInterface",
      "outputs": [
        {
          "internalType": "bool",
          "name": "",
          "type": "bool"
        }
      ],
      "stateMutability": "view",
      "type": "function"
    },
    {
      "inputs": [],
      "name": "symbol",
      "outputs": [
        {
          "internalType": "string",
          "name": "",
          "type": "string"
        }
      ],
      "stateMutability": "view",
      "type": "function"
    },
    {
      "inputs": [
        {
          "internalType": "uint256",
          "name": "tokenId",
          "type": "uint256"
        }
      ],
      "name": "tokenURI",
      "outputs": [
        {
          "internalType": "string",
          "name": "",
          "type": "string"
        }
      ],
      "stateMutability": "view",
      "type": "function"
    },
    {
      "inputs": [
        {
          "internalType": "address",
          "name": "from",
          "type": "address"
        },
        {
          "internalType": "address",
          "name": "to",
          "type": "address"
        },
        {
          "internalType": "uint256",
          "name": "tokenId",
          "type": "uint256"
        }
      ],
      "name": "transferFrom",
      "outputs": [],
      "stateMutability": "nonpayable",
      "type": "function"
    },
    {
      "inputs": [
        {
          "internalType": "address",
          "name": "newOwner",
          "type": "address"
        }
      ],
      "name": "transferOwnership",
      "outputs": [],
      "stateMutability": "nonpayable",
      "type": "function"
    }
  ],
  "bytecode": "0x608060405260006008553480156200001657600080fd5b506040518060400160405280601481526020017f4e6f746172697a6564446f63756d656e744e66740000000000000000000000008152506040518060400160405280600481526020017f4e444f430000000000000000000000000000000000000000000000000000000081525081600090805190602001906200009b929190620001ab565b508060019080519060200190620000b4929190620001ab565b505050620000d7620000cb620000dd60201b60201c565b620000e560201b60201c565b620002c0565b600033905090565b6000600760009054906101000a900473ffffffffffffffffffffffffffffffffffffffff16905081600760006101000a81548173ffffffffffffffffffffffffffffffffffffffff021916908373ffffffffffffffffffffffffffffffffffffffff1602179055508173ffffffffffffffffffffffffffffffffffffffff168173ffffffffffffffffffffffffffffffffffffffff167f8be0079c531659141344cd1fd0a4f28419497f9722a3daafe3b4186f6b6457e060405160405180910390a35050565b828054620001b9906200025b565b90600052602060002090601f016020900481019282620001dd576000855562000229565b82601f10620001f857805160ff191683800117855562000229565b8280016001018555821562000229579182015b82811115620002285782518255916020019190600101906200020b565b5b5090506200023891906200023c565b5090565b5b80821115620002575760008160009055506001016200023d565b5090565b600060028204905060018216806200027457607f821691505b602082108114156200028b576200028a62000291565b5b50919050565b7f4e487b7100000000000000000000000000000000000000000000000000000000600052602260045260246000fd5b612ba680620002d06000396000f3fe608060405234801561001057600080fd5b506004361061010b5760003560e01c8063715018a6116100a2578063b88d4fde11610071578063b88d4fde146102a4578063c87b56dd146102c0578063d85d3d27146102f0578063e985e9c514610320578063f2fde38b146103505761010b565b8063715018a6146102425780638da5cb5b1461024c57806395d89b411461026a578063a22cb465146102885761010b565b806323b872dd116100de57806323b872dd146101aa57806342842e0e146101c65780636352211e146101e257806370a08231146102125761010b565b806301ffc9a71461011057806306fdde0314610140578063081812fc1461015e578063095ea7b31461018e575b600080fd5b61012a60048036038101906101259190611d82565b61036c565b6040516101379190612183565b60405180910390f35b61014861044e565b604051610155919061219e565b60405180910390f35b61017860048036038101906101739190611e15565b6104e0565b604051610185919061211c565b60405180910390f35b6101a860048036038101906101a39190611d46565b610526565b005b6101c460048036038101906101bf9190611c40565b61063e565b005b6101e060048036038101906101db9190611c40565b61069e565b005b6101fc60048036038101906101f79190611e15565b6106be565b604051610209919061211c565b60405180910390f35b61022c60048036038101906102279190611bdb565b610770565b6040516102399190612380565b60405180910390f35b61024a610828565b005b61025461083c565b604051610261919061211c565b60405180910390f35b610272610866565b60405161027f919061219e565b60405180910390f35b6102a2600480360381019061029d9190611d0a565b6108f8565b005b6102be60048036038101906102b99190611c8f565b61090e565b005b6102da60048036038101906102d59190611e15565b610970565b6040516102e7919061219e565b60405180910390f35b61030a60048036038101906103059190611dd4565b610a83565b6040516103179190612380565b60405180910390f35b61033a60048036038101906103359190611c04565b610abe565b6040516103479190612183565b60405180910390f35b61036a60048036038101906103659190611bdb565b610b52565b005b60007f80ac58cd000000000000000000000000000000000000000000000000000000007bffffffffffffffffffffffffffffffffffffffffffffffffffffffff1916827bffffffffffffffffffffffffffffffffffffffffffffffffffffffff1916148061043757507f5b5e139f000000000000000000000000000000000000000000000000000000007bffffffffffffffffffffffffffffffffffffffffffffffffffffffff1916827bffffffffffffffffffffffffffffffffffffffffffffffffffffffff1916145b80610447575061044682610bd6565b5b9050919050565b60606000805461045d906125d6565b80601f0160208091040260200160405190810160405280929190818152602001828054610489906125d6565b80156104d65780601f106104ab576101008083540402835291602001916104d6565b820191906000526020600020905b8154815290600101906020018083116104b957829003601f168201915b5050505050905090565b60006104eb82610c40565b6004600083815260200190815260200160002060009054906101000a900473ffffffffffffffffffffffffffffffffffffffff169050919050565b6000610531826106be565b90508073ffffffffffffffffffffffffffffffffffffffff168373ffffffffffffffffffffffffffffffffffffffff1614156105a2576040517f08c379a000000000000000000000000000000000000000000000000000000000815260040161059990612340565b60405180910390fd5b8073ffffffffffffffffffffffffffffffffffffffff166105c1610c8b565b73ffffffffffffffffffffffffffffffffffffffff1614806105f057506105ef816105ea610c8b565b610abe565b5b61062f576040517f08c379a0000000000000000000000000000000000000000000000000000000008152600401610626906122c0565b60405180910390fd5b6106398383610c93565b505050565b61064f610649610c8b565b82610d4c565b61068e576040517f08c379a000000000000000000000000000000000000000000000000000000000815260040161068590612360565b60405180910390fd5b610699838383610de1565b505050565b6106b98383836040518060200160405280600081525061090e565b505050565b6000806002600084815260200190815260200160002060009054906101000a900473ffffffffffffffffffffffffffffffffffffffff169050600073ffffffffffffffffffffffffffffffffffffffff168173ffffffffffffffffffffffffffffffffffffffff161415610767576040517f08c379a000000000000000000000000000000000000000000000000000000000815260040161075e90612320565b60405180910390fd5b80915050919050565b60008073ffffffffffffffffffffffffffffffffffffffff168273ffffffffffffffffffffffffffffffffffffffff1614156107e1576040517f08c379a00000000000000000000000000000000000000000000000000000000081526004016107d890612280565b60405180910390fd5b600360008373ffffffffffffffffffffffffffffffffffffffff1673ffffffffffffffffffffffffffffffffffffffff168152602001908152602001600020549050919050565b610830611048565b61083a60006110c6565b565b6000600760009054906101000a900473ffffffffffffffffffffffffffffffffffffffff16905090565b606060018054610875906125d6565b80601f01602080910402602001604051908101604052809291908181526020018280546108a1906125d6565b80156108ee5780601f106108c3576101008083540402835291602001916108ee565b820191906000526020600020905b8154815290600101906020018083116108d157829003601f168201915b5050505050905090565b61090a610903610c8b565b838361118c565b5050565b61091f610919610c8b565b83610d4c565b61095e576040517f08c379a000000000000000000000000000000000000000000000000000000000815260040161095590612360565b60405180910390fd5b61096a848484846112f9565b50505050565b606061097b82610c40565b600060066000848152602001908152602001600020805461099b906125d6565b80601f01602080910402602001604051908101604052809291908181526020018280546109c7906125d6565b8015610a145780601f106109e957610100808354040283529160200191610a14565b820191906000526020600020905b8154815290600101906020018083116109f757829003601f168201915b505050505090506000610a25611355565b9050600081511415610a3b578192505050610a7e565b600082511115610a70578082604051602001610a589291906120f8565b60405160208183030381529060405292505050610a7e565b610a798461136c565b925050505b919050565b6000610a8d611048565b6008549050610a9c33826113d4565b610aa681836115ae565b600181610ab39190612465565b600881905550919050565b6000600560008473ffffffffffffffffffffffffffffffffffffffff1673ffffffffffffffffffffffffffffffffffffffff16815260200190815260200160002060008373ffffffffffffffffffffffffffffffffffffffff1673ffffffffffffffffffffffffffffffffffffffff16815260200190815260200160002060009054906101000a900460ff16905092915050565b610b5a611048565b600073ffffffffffffffffffffffffffffffffffffffff168173ffffffffffffffffffffffffffffffffffffffff161415610bca576040517f08c379a0000000000000000000000000000000000000000000000000000000008152600401610bc1906121e0565b60405180910390fd5b610bd3816110c6565b50565b60007f01ffc9a7000000000000000000000000000000000000000000000000000000007bffffffffffffffffffffffffffffffffffffffffffffffffffffffff1916827bffffffffffffffffffffffffffffffffffffffffffffffffffffffff1916149050919050565b610c4981611622565b610c88576040517f08c379a0000000000000000000000000000000000000000000000000000000008152600401610c7f90612320565b60405180910390fd5b50565b600033905090565b816004600083815260200190815260200160002060006101000a81548173ffffffffffffffffffffffffffffffffffffffff021916908373ffffffffffffffffffffffffffffffffffffffff160217905550808273ffffffffffffffffffffffffffffffffffffffff16610d06836106be565b73ffffffffffffffffffffffffffffffffffffffff167f8c5be1e5ebec7d5bd14f71427d1e84f3dd0314c0f7b2291e5b200ac8c7c3b92560405160405180910390a45050565b600080610d58836106be565b90508073ffffffffffffffffffffffffffffffffffffffff168473ffffffffffffffffffffffffffffffffffffffff161480610d9a5750610d998185610abe565b5b80610dd857508373ffffffffffffffffffffffffffffffffffffffff16610dc0846104e0565b73ffffffffffffffffffffffffffffffffffffffff16145b91505092915050565b8273ffffffffffffffffffffffffffffffffffffffff16610e01826106be565b73ffffffffffffffffffffffffffffffffffffffff1614610e57576040517f08c379a0000000000000000000000000000000000000000000000000000000008152600401610e4e90612200565b60405180910390fd5b600073ffffffffffffffffffffffffffffffffffffffff168273ffffffffffffffffffffffffffffffffffffffff161415610ec7576040517f08c379a0000000000000000000000000000000000000000000000000000000008152600401610ebe90612240565b60405180910390fd5b610ed283838361168e565b610edd600082610c93565b6001600360008573ffffffffffffffffffffffffffffffffffffffff1673ffffffffffffffffffffffffffffffffffffffff1681526020019081526020016000206000828254610f2d91906124ec565b925050819055506001600360008473ffffffffffffffffffffffffffffffffffffffff1673ffffffffffffffffffffffffffffffffffffffff1681526020019081526020016000206000828254610f849190612465565b92505081905550816002600083815260200190815260200160002060006101000a81548173ffffffffffffffffffffffffffffffffffffffff021916908373ffffffffffffffffffffffffffffffffffffffff160217905550808273ffffffffffffffffffffffffffffffffffffffff168473ffffffffffffffffffffffffffffffffffffffff167fddf252ad1be2c89b69c2b068fc378daa952ba7f163c4a11628f55a4df523b3ef60405160405180910390a4611043838383611693565b505050565b611050610c8b565b73ffffffffffffffffffffffffffffffffffffffff1661106e61083c565b73ffffffffffffffffffffffffffffffffffffffff16146110c4576040517f08c379a00000000000000000000000000000000000000000000000000000000081526004016110bb90612300565b60405180910390fd5b565b6000600760009054906101000a900473ffffffffffffffffffffffffffffffffffffffff16905081600760006101000a81548173ffffffffffffffffffffffffffffffffffffffff021916908373ffffffffffffffffffffffffffffffffffffffff1602179055508173ffffffffffffffffffffffffffffffffffffffff168173ffffffffffffffffffffffffffffffffffffffff167f8be0079c531659141344cd1fd0a4f28419497f9722a3daafe3b4186f6b6457e060405160405180910390a35050565b8173ffffffffffffffffffffffffffffffffffffffff168373ffffffffffffffffffffffffffffffffffffffff1614156111fb576040517f08c379a00000000000000000000000000000000000000000000000000000000081526004016111f290612260565b60405180910390fd5b80600560008573ffffffffffffffffffffffffffffffffffffffff1673ffffffffffffffffffffffffffffffffffffffff16815260200190815260200160002060008473ffffffffffffffffffffffffffffffffffffffff1673ffffffffffffffffffffffffffffffffffffffff16815260200190815260200160002060006101000a81548160ff0219169083151502179055508173ffffffffffffffffffffffffffffffffffffffff168373ffffffffffffffffffffffffffffffffffffffff167f17307eab39ab6107e8899845ad3d59bd9653f200f220920489ca2b5937696c31836040516112ec9190612183565b60405180910390a3505050565b611304848484610de1565b61131084848484611698565b61134f576040517f08c379a0000000000000000000000000000000000000000000000000000000008152600401611346906121c0565b60405180910390fd5b50505050565b606060405180602001604052806000815250905090565b606061137782610c40565b6000611381611355565b905060008151116113a157604051806020016040528060008152506113cc565b806113ab8461182f565b6040516020016113bc9291906120f8565b6040516020818303038152906040525b915050919050565b600073ffffffffffffffffffffffffffffffffffffffff168273ffffffffffffffffffffffffffffffffffffffff161415611444576040517f08c379a000000000000000000000000000000000000000000000000000000000815260040161143b906122e0565b60405180910390fd5b61144d81611622565b1561148d576040517f08c379a000000000000000000000000000000000000000000000000000000000815260040161148490612220565b60405180910390fd5b6114996000838361168e565b6001600360008473ffffffffffffffffffffffffffffffffffffffff1673ffffffffffffffffffffffffffffffffffffffff16815260200190815260200160002060008282546114e99190612465565b92505081905550816002600083815260200190815260200160002060006101000a81548173ffffffffffffffffffffffffffffffffffffffff021916908373ffffffffffffffffffffffffffffffffffffffff160217905550808273ffffffffffffffffffffffffffffffffffffffff16600073ffffffffffffffffffffffffffffffffffffffff167fddf252ad1be2c89b69c2b068fc378daa952ba7f163c4a11628f55a4df523b3ef60405160405180910390a46115aa60008383611693565b5050565b6115b782611622565b6115f6576040517f08c379a00000000000000000000000000000000000000000000000000000000081526004016115ed906122a0565b60405180910390fd5b8060066000848152602001908152602001600020908051906020019061161d9291906119ff565b505050565b60008073ffffffffffffffffffffffffffffffffffffffff166002600084815260200190815260200160002060009054906101000a900473ffffffffffffffffffffffffffffffffffffffff1673ffffffffffffffffffffffffffffffffffffffff1614159050919050565b505050565b505050565b60006116b98473ffffffffffffffffffffffffffffffffffffffff166119dc565b15611822578373ffffffffffffffffffffffffffffffffffffffff1663150b7a026116e2610c8b565b8786866040518563ffffffff1660e01b81526004016117049493929190612137565b602060405180830381600087803b15801561171e57600080fd5b505af192505050801561174f57506040513d601f19601f8201168201806040525081019061174c9190611dab565b60015b6117d2573d806000811461177f576040519150601f19603f3d011682016040523d82523d6000602084013e611784565b606091505b506000815114156117ca576040517f08c379a00000000000000000000000000000000000000000000000000000000081526004016117c1906121c0565b60405180910390fd5b805181602001fd5b63150b7a0260e01b7bffffffffffffffffffffffffffffffffffffffffffffffffffffffff1916817bffffffffffffffffffffffffffffffffffffffffffffffffffffffff191614915050611827565b600190505b949350505050565b60606000821415611877576040518060400160405280600181526020017f300000000000000000000000000000000000000000000000000000000000000081525090506119d7565b600082905060005b600082146118a957808061189290612639565b915050600a826118a291906124bb565b915061187f565b60008167ffffffffffffffff8111156118eb577f4e487b7100000000000000000000000000000000000000000000000000000000600052604160045260246000fd5b6040519080825280601f01601f19166020018201604052801561191d5781602001600182028036833780820191505090505b5090505b600085146119d05760018261193691906124ec565b9150600a856119459190612682565b60306119519190612465565b60f81b81838151811061198d577f4e487b7100000000000000000000000000000000000000000000000000000000600052603260045260246000fd5b60200101907effffffffffffffffffffffffffffffffffffffffffffffffffffffffffffff1916908160001a905350600a856119c991906124bb565b9450611921565b8093505050505b919050565b6000808273ffffffffffffffffffffffffffffffffffffffff163b119050919050565b828054611a0b906125d6565b90600052602060002090601f016020900481019282611a2d5760008555611a74565b82601f10611a4657805160ff1916838001178555611a74565b82800160010185558215611a74579182015b82811115611a73578251825591602001919060010190611a58565b5b509050611a819190611a85565b5090565b5b80821115611a9e576000816000905550600101611a86565b5090565b6000611ab5611ab0846123c0565b61239b565b905082815260208101848484011115611acd57600080fd5b611ad8848285612594565b509392505050565b6000611af3611aee846123f1565b61239b565b905082815260208101848484011115611b0b57600080fd5b611b16848285612594565b509392505050565b600081359050611b2d81612b14565b92915050565b600081359050611b4281612b2b565b92915050565b600081359050611b5781612b42565b92915050565b600081519050611b6c81612b42565b92915050565b600082601f830112611b8357600080fd5b8135611b93848260208601611aa2565b91505092915050565b600082601f830112611bad57600080fd5b8135611bbd848260208601611ae0565b91505092915050565b600081359050611bd581612b59565b92915050565b600060208284031215611bed57600080fd5b6000611bfb84828501611b1e565b91505092915050565b60008060408385031215611c1757600080fd5b6000611c2585828601611b1e565b9250506020611c3685828601611b1e565b9150509250929050565b600080600060608486031215611c5557600080fd5b6000611c6386828701611b1e565b9350506020611c7486828701611b1e565b9250506040611c8586828701611bc6565b9150509250925092565b60008060008060808587031215611ca557600080fd5b6000611cb387828801611b1e565b9450506020611cc487828801611b1e565b9350506040611cd587828801611bc6565b925050606085013567ffffffffffffffff811115611cf257600080fd5b611cfe87828801611b72565b91505092959194509250565b60008060408385031215611d1d57600080fd5b6000611d2b85828601611b1e565b9250506020611d3c85828601611b33565b9150509250929050565b60008060408385031215611d5957600080fd5b6000611d6785828601611b1e565b9250506020611d7885828601611bc6565b9150509250929050565b600060208284031215611d9457600080fd5b6000611da284828501611b48565b91505092915050565b600060208284031215611dbd57600080fd5b6000611dcb84828501611b5d565b91505092915050565b600060208284031215611de657600080fd5b600082013567ffffffffffffffff811115611e0057600080fd5b611e0c84828501611b9c565b91505092915050565b600060208284031215611e2757600080fd5b6000611e3584828501611bc6565b91505092915050565b611e4781612520565b82525050565b611e5681612532565b82525050565b6000611e6782612422565b611e718185612438565b9350611e818185602086016125a3565b611e8a8161276f565b840191505092915050565b6000611ea08261242d565b611eaa8185612449565b9350611eba8185602086016125a3565b611ec38161276f565b840191505092915050565b6000611ed98261242d565b611ee3818561245a565b9350611ef38185602086016125a3565b80840191505092915050565b6000611f0c603283612449565b9150611f1782612780565b604082019050919050565b6000611f2f602683612449565b9150611f3a826127cf565b604082019050919050565b6000611f52602583612449565b9150611f5d8261281e565b604082019050919050565b6000611f75601c83612449565b9150611f808261286d565b602082019050919050565b6000611f98602483612449565b9150611fa382612896565b604082019050919050565b6000611fbb601983612449565b9150611fc6826128e5565b602082019050919050565b6000611fde602983612449565b9150611fe98261290e565b604082019050919050565b6000612001602e83612449565b915061200c8261295d565b604082019050919050565b6000612024603e83612449565b915061202f826129ac565b604082019050919050565b6000612047602083612449565b9150612052826129fb565b602082019050919050565b600061206a602083612449565b915061207582612a24565b602082019050919050565b600061208d601883612449565b915061209882612a4d565b602082019050919050565b60006120b0602183612449565b91506120bb82612a76565b604082019050919050565b60006120d3602e83612449565b91506120de82612ac5565b604082019050919050565b6120f28161258a565b82525050565b60006121048285611ece565b91506121108284611ece565b91508190509392505050565b60006020820190506121316000830184611e3e565b92915050565b600060808201905061214c6000830187611e3e565b6121596020830186611e3e565b61216660408301856120e9565b81810360608301526121788184611e5c565b905095945050505050565b60006020820190506121986000830184611e4d565b92915050565b600060208201905081810360008301526121b88184611e95565b905092915050565b600060208201905081810360008301526121d981611eff565b9050919050565b600060208201905081810360008301526121f981611f22565b9050919050565b6000602082019050818103600083015261221981611f45565b9050919050565b6000602082019050818103600083015261223981611f68565b9050919050565b6000602082019050818103600083015261225981611f8b565b9050919050565b6000602082019050818103600083015261227981611fae565b9050919050565b6000602082019050818103600083015261229981611fd1565b9050919050565b600060208201905081810360008301526122b981611ff4565b9050919050565b600060208201905081810360008301526122d981612017565b9050919050565b600060208201905081810360008301526122f98161203a565b9050919050565b600060208201905081810360008301526123198161205d565b9050919050565b6000602082019050818103600083015261233981612080565b9050919050565b60006020820190508181036000830152612359816120a3565b9050919050565b60006020820190508181036000830152612379816120c6565b9050919050565b600060208201905061239560008301846120e9565b92915050565b60006123a56123b6565b90506123b18282612608565b919050565b6000604051905090565b600067ffffffffffffffff8211156123db576123da612740565b5b6123e48261276f565b9050602081019050919050565b600067ffffffffffffffff82111561240c5761240b612740565b5b6124158261276f565b9050602081019050919050565b600081519050919050565b600081519050919050565b600082825260208201905092915050565b600082825260208201905092915050565b600081905092915050565b60006124708261258a565b915061247b8361258a565b9250827fffffffffffffffffffffffffffffffffffffffffffffffffffffffffffffffff038211156124b0576124af6126b3565b5b828201905092915050565b60006124c68261258a565b91506124d18361258a565b9250826124e1576124e06126e2565b5b828204905092915050565b60006124f78261258a565b91506125028361258a565b925082821015612515576125146126b3565b5b828203905092915050565b600061252b8261256a565b9050919050565b60008115159050919050565b60007fffffffff0000000000000000000000000000000000000000000000000000000082169050919050565b600073ffffffffffffffffffffffffffffffffffffffff82169050919050565b6000819050919050565b82818337600083830152505050565b60005b838110156125c15780820151818401526020810190506125a6565b838111156125d0576000848401525b50505050565b600060028204905060018216806125ee57607f821691505b6020821081141561260257612601612711565b5b50919050565b6126118261276f565b810181811067ffffffffffffffff821117156126305761262f612740565b5b80604052505050565b60006126448261258a565b91507fffffffffffffffffffffffffffffffffffffffffffffffffffffffffffffffff821415612677576126766126b3565b5b600182019050919050565b600061268d8261258a565b91506126988361258a565b9250826126a8576126a76126e2565b5b828206905092915050565b7f4e487b7100000000000000000000000000000000000000000000000000000000600052601160045260246000fd5b7f4e487b7100000000000000000000000000000000000000000000000000000000600052601260045260246000fd5b7f4e487b7100000000000000000000000000000000000000000000000000000000600052602260045260246000fd5b7f4e487b7100000000000000000000000000000000000000000000000000000000600052604160045260246000fd5b6000601f19601f8301169050919050565b7f4552433732313a207472616e7366657220746f206e6f6e20455243373231526560008201527f63656976657220696d706c656d656e7465720000000000000000000000000000602082015250565b7f4f776e61626c653a206e6577206f776e657220697320746865207a65726f206160008201527f6464726573730000000000000000000000000000000000000000000000000000602082015250565b7f4552433732313a207472616e736665722066726f6d20696e636f72726563742060008201527f6f776e6572000000000000000000000000000000000000000000000000000000602082015250565b7f4552433732313a20746f6b656e20616c7265616479206d696e74656400000000600082015250565b7f4552433732313a207472616e7366657220746f20746865207a65726f2061646460008201527f7265737300000000000000000000000000000000000000000000000000000000602082015250565b7f4552433732313a20617070726f766520746f2063616c6c657200000000000000600082015250565b7f4552433732313a2061646472657373207a65726f206973206e6f74206120766160008201527f6c6964206f776e65720000000000000000000000000000000000000000000000602082015250565b7f45524337323155524953746f726167653a2055524920736574206f66206e6f6e60008201527f6578697374656e7420746f6b656e000000000000000000000000000000000000602082015250565b7f4552433732313a20617070726f76652063616c6c6572206973206e6f7420746f60008201527f6b656e206f776e6572206e6f7220617070726f76656420666f7220616c6c0000602082015250565b7f4552433732313a206d696e7420746f20746865207a65726f2061646472657373600082015250565b7f4f776e61626c653a2063616c6c6572206973206e6f7420746865206f776e6572600082015250565b7f4552433732313a20696e76616c696420746f6b656e2049440000000000000000600082015250565b7f4552433732313a20617070726f76616c20746f2063757272656e74206f776e6560008201527f7200000000000000000000000000000000000000000000000000000000000000602082015250565b7f4552433732313a2063616c6c6572206973206e6f7420746f6b656e206f776e6560008201527f72206e6f7220617070726f766564000000000000000000000000000000000000602082015250565b612b1d81612520565b8114612b2857600080fd5b50565b612b3481612532565b8114612b3f57600080fd5b50565b612b4b8161253e565b8114612b5657600080fd5b50565b612b628161258a565b8114612b6d57600080fd5b5056fea264697066735822122018e58def88182b5f8cc9d451650514084e462bae424edd6cb81b6b3c27c8488164736f6c63430008040033",
  "linkReferences": {},
  "deployedLinkReferences": {}
}