{
  "_format": "hh-sol-artifact-1",
  "contractName": "Notary",
  "sourceName": "contracts/Notary.sol",
  "abi": [
    {
      "inputs": [],
      "stateMutability": "nonpayable",
      "type": "constructor"
    },
    {
      "inputs": [
        {
          "internalType": "string",
          "name": "metadataUri",
          "type": "string"
        },
        {
          "internalType": "uint256",
          "name": "amountSent",
          "type": "uint256"
        }
      ],
      "name": "IncorrectAmountSent",
      "type": "error"
    },
    {
      "inputs": [
        {
          "internalType": "string",
          "name": "metadataUri",
          "type": "string"
        }
      ],
      "name": "MinterNotAuthorized",
      "type": "error"
    },
    {
      "inputs": [],
      "name": "MustBeDocumentOwner",
      "type": "error"
    },
    {
      "inputs": [],
      "name": "MustHaveNotaryNft",
      "type": "error"
    },
    {
      "inputs": [
        {
          "internalType": "address",
          "name": "payee",
          "type": "address"
        }
      ],
      "name": "NoBalanceAvailable",
      "type": "error"
    },
    {
      "inputs": [
        {
          "internalType": "string",
          "name": "metadataUri",
          "type": "string"
        }
      ],
      "name": "TokenNotMintable",
      "type": "error"
    },
    {
      "anonymous": false,
      "inputs": [
        {
          "indexed": false,
          "internalType": "address",
          "name": "payee",
          "type": "address"
        },
        {
          "indexed": false,
          "internalType": "uint256",
          "name": "amountSent",
          "type": "uint256"
        }
      ],
      "name": "BalanceClaimed",
      "type": "event"
    },
    {
      "anonymous": false,
      "inputs": [
        {
          "indexed": false,
          "internalType": "address",
          "name": "payee",
          "type": "address"
        },
        {
          "indexed": false,
          "internalType": "uint256",
          "name": "amount",
          "type": "uint256"
        }
      ],
      "name": "BalanceIncreased",
      "type": "event"
    },
    {
      "anonymous": false,
      "inputs": [
        {
          "indexed": false,
          "internalType": "address",
          "name": "commissionPayee",
          "type": "address"
        }
      ],
      "name": "CommissionPayeeChanged",
      "type": "event"
    },
    {
      "anonymous": false,
      "inputs": [
        {
          "indexed": false,
          "internalType": "address",
          "name": "notary",
          "type": "address"
        },
        {
          "indexed": false,
          "internalType": "address",
          "name": "authorizedMinter",
          "type": "address"
        },
        {
          "indexed": false,
          "internalType": "uint256",
          "name": "price",
          "type": "uint256"
        },
        {
          "indexed": false,
          "internalType": "string",
          "name": "metadataUrl",
          "type": "string"
        }
      ],
      "name": "NotarizedDocumentCreated",
      "type": "event"
    },
    {
      "anonymous": false,
      "inputs": [
        {
          "indexed": false,
          "internalType": "address",
          "name": "authorizedMinter",
          "type": "address"
        },
        {
          "indexed": false,
          "internalType": "uint256",
          "name": "price",
          "type": "uint256"
        },
        {
          "indexed": false,
          "internalType": "string",
          "name": "metadataUrl",
          "type": "string"
        },
        {
          "indexed": false,
          "internalType": "uint256",
          "name": "tokenId",
          "type": "uint256"
        }
      ],
      "name": "NotarizedDocumentNftMinted",
      "type": "event"
    },
    {
      "anonymous": false,
      "inputs": [
        {
          "indexed": false,
          "internalType": "address",
          "name": "notary",
          "type": "address"
        },
        {
          "indexed": false,
          "internalType": "string",
          "name": "notaryId",
          "type": "string"
        },
        {
          "indexed": false,
          "internalType": "string",
          "name": "metadataUri",
          "type": "string"
        },
        {
          "indexed": false,
          "internalType": "uint256",
          "name": "tokenId",
          "type": "uint256"
        }
      ],
      "name": "NotaryCredentialsIssued",
      "type": "event"
    },
    {
      "anonymous": false,
      "inputs": [
        {
          "indexed": false,
          "internalType": "uint256",
          "name": "permissionTokenId",
          "type": "uint256"
        },
        {
          "indexed": false,
          "internalType": "address",
          "name": "grantee",
          "type": "address"
        },
        {
          "indexed": false,
          "internalType": "uint256",
          "name": "documentTokenId",
          "type": "uint256"
        }
      ],
      "name": "PermissionAuthorized",
      "type": "event"
    },
    {
      "anonymous": false,
      "inputs": [
        {
          "indexed": false,
          "internalType": "address",
          "name": "grantee",
          "type": "address"
        },
        {
          "indexed": false,
          "internalType": "uint256",
          "name": "documentTokenId",
          "type": "uint256"
        }
      ],
      "name": "PermissionRevoked",
      "type": "event"
    },
    {
      "anonymous": false,
      "inputs": [
        {
          "indexed": true,
          "internalType": "bytes32",
          "name": "role",
          "type": "bytes32"
        },
        {
          "indexed": true,
          "internalType": "bytes32",
          "name": "previousAdminRole",
          "type": "bytes32"
        },
        {
          "indexed": true,
          "internalType": "bytes32",
          "name": "newAdminRole",
          "type": "bytes32"
        }
      ],
      "name": "RoleAdminChanged",
      "type": "event"
    },
    {
      "anonymous": false,
      "inputs": [
        {
          "indexed": true,
          "internalType": "bytes32",
          "name": "role",
          "type": "bytes32"
        },
        {
          "indexed": true,
          "internalType": "address",
          "name": "account",
          "type": "address"
        },
        {
          "indexed": true,
          "internalType": "address",
          "name": "sender",
          "type": "address"
        }
      ],
      "name": "RoleGranted",
      "type": "event"
    },
    {
      "anonymous": false,
      "inputs": [
        {
          "indexed": true,
          "internalType": "bytes32",
          "name": "role",
          "type": "bytes32"
        },
        {
          "indexed": true,
          "internalType": "address",
          "name": "account",
          "type": "address"
        },
        {
          "indexed": true,
          "internalType": "address",
          "name": "sender",
          "type": "address"
        }
      ],
      "name": "RoleRevoked",
      "type": "event"
    },
    {
      "inputs": [],
      "name": "DEFAULT_ADMIN_ROLE",
      "outputs": [
        {
          "internalType": "bytes32",
          "name": "",
          "type": "bytes32"
        }
      ],
      "stateMutability": "view",
      "type": "function"
    },
    {
      "inputs": [
        {
          "internalType": "address",
          "name": "",
          "type": "address"
        }
      ],
      "name": "balance",
      "outputs": [
        {
          "internalType": "uint256",
          "name": "",
          "type": "uint256"
        }
      ],
      "stateMutability": "view",
      "type": "function"
    },
    {
      "inputs": [],
      "name": "claim",
      "outputs": [],
      "stateMutability": "nonpayable",
      "type": "function"
    },
    {
      "inputs": [],
      "name": "commissionPayee",
      "outputs": [
        {
          "internalType": "address",
          "name": "",
          "type": "address"
        }
      ],
      "stateMutability": "view",
      "type": "function"
    },
    {
      "inputs": [
        {
          "internalType": "address",
          "name": "_authorizedMinter",
          "type": "address"
        },
        {
          "internalType": "uint256",
          "name": "_mintingPrice",
          "type": "uint256"
        },
        {
          "internalType": "string",
          "name": "_metadataUrl",
          "type": "string"
        }
      ],
      "name": "createNotarizedDocument",
      "outputs": [],
      "stateMutability": "nonpayable",
      "type": "function"
    },
    {
      "inputs": [],
      "name": "defaultCommissionPercentage",
      "outputs": [
        {
          "internalType": "uint256",
          "name": "",
          "type": "uint256"
        }
      ],
      "stateMutability": "view",
      "type": "function"
    },
    {
      "inputs": [],
      "name": "documentPermissionNftContract",
      "outputs": [
        {
          "internalType": "contract DocumentPermissionNft",
          "name": "",
          "type": "address"
        }
      ],
      "stateMutability": "view",
      "type": "function"
    },
    {
      "inputs": [
        {
          "internalType": "bytes32",
          "name": "role",
          "type": "bytes32"
        }
      ],
      "name": "getRoleAdmin",
      "outputs": [
        {
          "internalType": "bytes32",
          "name": "",
          "type": "bytes32"
        }
      ],
      "stateMutability": "view",
      "type": "function"
    },
    {
      "inputs": [
        {
          "internalType": "address",
          "name": "to",
          "type": "address"
        },
        {
          "internalType": "uint256",
          "name": "documentTokenId",
          "type": "uint256"
        }
      ],
      "name": "grantDocumentViewPermission",
      "outputs": [
        {
          "internalType": "uint256",
          "name": "tokenId",
          "type": "uint256"
        }
      ],
      "stateMutability": "nonpayable",
      "type": "function"
    },
    {
      "inputs": [
        {
          "internalType": "bytes32",
          "name": "role",
          "type": "bytes32"
        },
        {
          "internalType": "address",
          "name": "account",
          "type": "address"
        }
      ],
      "name": "grantRole",
      "outputs": [],
      "stateMutability": "nonpayable",
      "type": "function"
    },
    {
      "inputs": [
        {
          "internalType": "bytes32",
          "name": "role",
          "type": "bytes32"
        },
        {
          "internalType": "address",
          "name": "account",
          "type": "address"
        }
      ],
      "name": "hasRole",
      "outputs": [
        {
          "internalType": "bool",
          "name": "",
          "type": "bool"
        }
      ],
      "stateMutability": "view",
      "type": "function"
    },
    {
      "inputs": [
        {
          "internalType": "address",
          "name": "to",
          "type": "address"
        },
        {
          "internalType": "string",
          "name": "notaryId",
          "type": "string"
        },
        {
          "internalType": "string",
          "name": "metadataUri",
          "type": "string"
        }
      ],
      "name": "issueNotaryToken",
      "outputs": [
        {
          "internalType": "uint256",
          "name": "tokenId",
          "type": "uint256"
        }
      ],
      "stateMutability": "nonpayable",
      "type": "function"
    },
    {
      "inputs": [
        {
          "internalType": "string",
          "name": "_metadataUrl",
          "type": "string"
        }
      ],
      "name": "mint",
      "outputs": [
        {
          "internalType": "uint256",
          "name": "tokenId",
          "type": "uint256"
        }
      ],
      "stateMutability": "payable",
      "type": "function"
    },
    {
      "inputs": [],
      "name": "notarizedDocumentNftContract",
      "outputs": [
        {
          "internalType": "contract NotarizedDocumentNft",
          "name": "",
          "type": "address"
        }
      ],
      "stateMutability": "view",
      "type": "function"
    },
    {
      "inputs": [],
      "name": "notaryNftContract",
      "outputs": [
        {
          "internalType": "contract NotaryNft",
          "name": "",
          "type": "address"
        }
      ],
      "stateMutability": "view",
      "type": "function"
    },
    {
      "inputs": [],
      "name": "payableBalance",
      "outputs": [
        {
          "internalType": "uint256",
          "name": "_balance",
          "type": "uint256"
        }
      ],
      "stateMutability": "view",
      "type": "function"
    },
    {
      "inputs": [
        {
          "internalType": "bytes32",
          "name": "role",
          "type": "bytes32"
        },
        {
          "internalType": "address",
          "name": "account",
          "type": "address"
        }
      ],
      "name": "renounceRole",
      "outputs": [],
      "stateMutability": "nonpayable",
      "type": "function"
    },
    {
      "inputs": [
        {
          "internalType": "address",
          "name": "to",
          "type": "address"
        },
        {
          "internalType": "uint256",
          "name": "documentTokenId",
          "type": "uint256"
        }
      ],
      "name": "revokeDocumentViewPermission",
      "outputs": [],
      "stateMutability": "nonpayable",
      "type": "function"
    },
    {
      "inputs": [
        {
          "internalType": "bytes32",
          "name": "role",
          "type": "bytes32"
        },
        {
          "internalType": "address",
          "name": "account",
          "type": "address"
        }
      ],
      "name": "revokeRole",
      "outputs": [],
      "stateMutability": "nonpayable",
      "type": "function"
    },
    {
      "inputs": [
        {
          "internalType": "address",
          "name": "_payee",
          "type": "address"
        }
      ],
      "name": "setCommissionPayee",
      "outputs": [],
      "stateMutability": "nonpayable",
      "type": "function"
    },
    {
      "inputs": [
        {
          "internalType": "contract DocumentPermissionNft",
          "name": "_documentPermissionNftContract",
          "type": "address"
        }
      ],
      "name": "setDocumentPermissionNftContract",
      "outputs": [],
      "stateMutability": "nonpayable",
      "type": "function"
    },
    {
      "inputs": [
        {
          "internalType": "contract NotarizedDocumentNft",
          "name": "_ndn",
          "type": "address"
        }
      ],
      "name": "setNotarizedDocumentNftContact",
      "outputs": [],
      "stateMutability": "nonpayable",
      "type": "function"
    },
    {
      "inputs": [
        {
          "internalType": "contract NotaryNft",
          "name": "_notaryNft",
          "type": "address"
        }
      ],
      "name": "setNotaryNftContract",
      "outputs": [],
      "stateMutability": "nonpayable",
      "type": "function"
    },
    {
      "inputs": [
        {
          "internalType": "bytes4",
          "name": "interfaceId",
          "type": "bytes4"
        }
      ],
      "name": "supportsInterface",
      "outputs": [
        {
          "internalType": "bool",
          "name": "",
          "type": "bool"
        }
      ],
      "stateMutability": "view",
      "type": "function"
    },
    {
      "inputs": [
        {
          "internalType": "string",
          "name": "",
          "type": "string"
        }
      ],
      "name": "unmintedToken",
      "outputs": [
        {
          "internalType": "address",
          "name": "notary",
          "type": "address"
        },
        {
          "internalType": "address",
          "name": "authorizedMinter",
          "type": "address"
        },
        {
          "internalType": "uint256",
          "name": "costToMint",
          "type": "uint256"
        }
      ],
      "stateMutability": "view",
      "type": "function"
    }
  ],
  "bytecode": "0x608060405234801561001057600080fd5b5061001c600033610038565b600580546001600160a01b03191633179055601e6006556100e4565b6100428282610046565b5050565b6000828152602081815260408083206001600160a01b038516845290915290205460ff16610042576000828152602081815260408083206001600160a01b03851684529091529020805460ff191660011790556100a03390565b6001600160a01b0316816001600160a01b0316837f2f8788117e7eff1d82e926ec794901d17c78024a50270940304540a733656f0d60405160405180910390a45050565b611919806100f36000396000f3fe6080604052600436106101665760003560e01c806387e6ae1f116100d1578063bb3bae221161008a578063d85d3d2711610064578063d85d3d271461049f578063d98ab6bd146104b2578063e3d670d7146104d2578063f4e042d5146104ff57600080fd5b8063bb3bae221461043f578063c2955e861461045f578063d547741f1461047f57600080fd5b806387e6ae1f1461032f57806391d148541461034f57806397fd655d1461036f5780639f793d741461038f578063a217fddf1461040a578063a395c3911461041f57600080fd5b80634d553cef116101235780634d553cef146102625780634e71d92d1461029a578063675f2d66146102af578063695d3835146102cf57806375bcf9af146102ef578063795ee1061461030f57600080fd5b806301ffc9a71461016b578063248a9ca3146101a05780632f2ff15d146101de57806336568abe1461020057806344b279a21461022057806346408c2614610242575b600080fd5b34801561017757600080fd5b5061018b610186366004611569565b610515565b60405190151581526020015b60405180910390f35b3480156101ac57600080fd5b506101d06101bb366004611522565b60009081526020819052604090206001015490565b604051908152602001610197565b3480156101ea57600080fd5b506101fe6101f936600461153a565b61054c565b005b34801561020c57600080fd5b506101fe61021b36600461153a565b610576565b34801561022c57600080fd5b50336000908152600760205260409020546101d0565b34801561024e57600080fd5b506101fe61025d3660046113ff565b6105f9565b34801561026e57600080fd5b50600554610282906001600160a01b031681565b6040516001600160a01b039091168152602001610197565b3480156102a657600080fd5b506101fe6106aa565b3480156102bb57600080fd5b506101fe6102ca3660046114d5565b610757565b3480156102db57600080fd5b50600154610282906001600160a01b031681565b3480156102fb57600080fd5b506101fe61030a3660046113ff565b6108ac565b34801561031b57600080fd5b506101fe61032a3660046114aa565b6108da565b34801561033b57600080fd5b506101fe61034a3660046113ff565b610a27565b34801561035b57600080fd5b5061018b61036a36600461153a565b610a55565b34801561037b57600080fd5b50600254610282906001600160a01b031681565b34801561039b57600080fd5b506103e46103aa366004611591565b8051808201602090810180516004825292820191909301209152805460018201546002909201546001600160a01b03918216929091169083565b604080516001600160a01b03948516815293909216602084015290820152606001610197565b34801561041657600080fd5b506101d0600081565b34801561042b57600080fd5b506101d061043a3660046114aa565b610a7e565b34801561044b57600080fd5b50600354610282906001600160a01b031681565b34801561046b57600080fd5b506101fe61047a3660046113ff565b610bff565b34801561048b57600080fd5b506101fe61049a36600461153a565b610c2d565b6101d06104ad366004611591565b610c52565b3480156104be57600080fd5b506101d06104cd366004611437565b610e31565b3480156104de57600080fd5b506101d06104ed3660046113ff565b60076020526000908152604090205481565b34801561050b57600080fd5b506101d060065481565b60006001600160e01b03198216637965db0b60e01b148061054657506301ffc9a760e01b6001600160e01b03198316145b92915050565b60008281526020819052604090206001015461056781610f0a565b6105718383610f17565b505050565b6001600160a01b03811633146105eb5760405162461bcd60e51b815260206004820152602f60248201527f416363657373436f6e74726f6c3a2063616e206f6e6c792072656e6f756e636560448201526e103937b632b9903337b91039b2b63360891b60648201526084015b60405180910390fd5b6105f58282610f9b565b5050565b600061060481610f0a565b6005546001600160a01b03908116600090815260076020526040808220549285168252812080549091906106399084906117ed565b9091555050600580546001600160a01b0390811660009081526007602090815260408083209290925583546001600160a01b031916928616928317909355519081527fecb8f51c336e1305fd4b3be0019a43021c75e70fdaaf00ea9ba201815cc6e537910160405180910390a15050565b336000908152600760205260409020546106d9576040516351c8365f60e01b81523360048201526024016105e2565b33600081815260076020526040808220805490839055905190929183156108fc02918491818181858888f1935050505015801561071a573d6000803e3d6000fd5b5060408051338152602081018390527fe64799e036cf6322d0c3b6d11f4e2fc9d1bd9bb5938dd3d6835921a427c89b8f910160405180910390a150565b6002546040516370a0823160e01b81523360048201526001600160a01b03909116906370a082319060240160206040518083038186803b15801561079a57600080fd5b505afa1580156107ae573d6000803e3d6000fd5b505050506040513d601f19601f820116820180604052508101906107d291906115cc565b6107ef57604051633b9fd80b60e01b815260040160405180910390fd5b604080516060810182523381526001600160a01b03851660208201528082018490529051600490610821908490611610565b9081526040805160209281900383018120845181546001600160a01b03199081166001600160a01b03928316178355948601516001830180549096169116179093559201516002909101557f18aafd4480e90a5cd4bf3236e30e81887f45c682abe7fcbe4639bf092259e0599061089f9033908690869086906116a1565b60405180910390a1505050565b60006108b781610f0a565b50600380546001600160a01b0319166001600160a01b0392909216919091179055565b6001546040516331a9108f60e11b815260048101839052829133916001600160a01b0390911690636352211e9060240160206040518083038186803b15801561092257600080fd5b505afa158015610936573d6000803e3d6000fd5b505050506040513d601f19601f8201168201806040525081019061095a919061141b565b6001600160a01b0316146109815760405163bcc8ed9560e01b815260040160405180910390fd5b600354604051632770a7eb60e21b81526001600160a01b0385811660048301526024820185905290911690639dc29fac90604401600060405180830381600087803b1580156109cf57600080fd5b505af11580156109e3573d6000803e3d6000fd5b5050604080516001600160a01b0387168152602081018690527fbd20e616115b933d187c2929d56282e841784672f376eeb58eb7a4f6da3aa524935001905061089f565b6000610a3281610f0a565b50600180546001600160a01b0319166001600160a01b0392909216919091179055565b6000918252602082815260408084206001600160a01b0393909316845291905290205460ff1690565b6001546040516331a9108f60e11b815260048101839052600091839133916001600160a01b031690636352211e9060240160206040518083038186803b158015610ac757600080fd5b505afa158015610adb573d6000803e3d6000fd5b505050506040513d601f19601f82011682018060405250810190610aff919061141b565b6001600160a01b031614610b265760405163bcc8ed9560e01b815260040160405180910390fd5b6003546040516340c10f1960e01b81526001600160a01b03868116600483015260248201869052909116906340c10f1990604401602060405180830381600087803b158015610b7457600080fd5b505af1158015610b88573d6000803e3d6000fd5b505050506040513d601f19601f82011682018060405250810190610bac91906115cc565b604080518281526001600160a01b03871660208201529081018590529092507f16c6ecc3f138ddf962927f286179466df65d51ea1e09fb98bdba8fd431230f4d9060600160405180910390a15092915050565b6000610c0a81610f0a565b50600280546001600160a01b0319166001600160a01b0392909216919091179055565b600082815260208190526040902060010154610c4881610f0a565b6105718383610f9b565b600080600483604051610c659190611610565b908152604080516020928190038301812060608201835280546001600160a01b03908116835260018201541693820184905260020154918101919091529150610cc35782604051630fe0dd5360e31b81526004016105e291906117b8565b60208101516001600160a01b03163314610cf25782604051635fbc563160e11b81526004016105e291906117b8565b34816040015114610d1a578234604051631b4f7de760e21b81526004016105e29291906117cb565b610d28348260000151611000565b60015460405163d0def52160e01b81526001600160a01b039091169063d0def52190610d5a90339087906004016116de565b602060405180830381600087803b158015610d7457600080fd5b505af1158015610d88573d6000803e3d6000fd5b505050506040513d601f19601f82011682018060405250810190610dac91906115cc565b9150600483604051610dbe9190611610565b90815260405190819003602001812080546001600160a01b03199081168255600182018054909116905560006002909101557f4127146f91ac45d59f3999d0585a57612b8be0589d86909e0399fbd1d10c634290610e23903390349087908790611780565b60405180910390a150919050565b600080610e3d81610f0a565b600254604051630990711960e41b81526001600160a01b0390911690639907119090610e7190889088908890600401611702565b602060405180830381600087803b158015610e8b57600080fd5b505af1158015610e9f573d6000803e3d6000fd5b505050506040513d601f19601f82011682018060405250810190610ec391906115cc565b91507f61e98bd14ba1eb82551fce55ca0e951ff9c77b1817a9ed46d85d8fdda536d02785858585604051610efa9493929190611738565b60405180910390a1509392505050565b610f14813361112b565b50565b610f218282610a55565b6105f5576000828152602081815260408083206001600160a01b03851684529091529020805460ff19166001179055610f573390565b6001600160a01b0316816001600160a01b0316837f2f8788117e7eff1d82e926ec794901d17c78024a50270940304540a733656f0d60405160405180910390a45050565b610fa58282610a55565b156105f5576000828152602081815260408083206001600160a01b0385168085529252808320805460ff1916905551339285917ff6391f5c32d9c69d2a47ea670b442974b53935d1edc7fd64eb21e047a839171b9190a45050565b60006064600654846110129190611825565b61101c9190611805565b9050600061102a8285611844565b90508361103782846117ed565b1461104157600080fd5b6001600160a01b038316600090815260076020526040812080548392906110699084906117ed565b9091555050604080516001600160a01b0385168152602081018390527f7a702e80a9c183a6ce9d6732991df2e914555ba35a364a70aed2433984e7544b910160405180910390a16005546001600160a01b0316600090815260076020526040812080548492906110da9084906117ed565b9091555050600554604080516001600160a01b039092168252602082018490527f7a702e80a9c183a6ce9d6732991df2e914555ba35a364a70aed2433984e7544b910160405180910390a150505050565b6111358282610a55565b6105f55761114d816001600160a01b0316601461118f565b61115883602061118f565b60405160200161116992919061162c565b60408051601f198184030181529082905262461bcd60e51b82526105e2916004016117b8565b6060600061119e836002611825565b6111a99060026117ed565b67ffffffffffffffff8111156111cf57634e487b7160e01b600052604160045260246000fd5b6040519080825280601f01601f1916602001820160405280156111f9576020820181803683370190505b509050600360fc1b8160008151811061122257634e487b7160e01b600052603260045260246000fd5b60200101906001600160f81b031916908160001a905350600f60fb1b8160018151811061125f57634e487b7160e01b600052603260045260246000fd5b60200101906001600160f81b031916908160001a9053506000611283846002611825565b61128e9060016117ed565b90505b6001811115611322576f181899199a1a9b1b9c1cb0b131b232b360811b85600f16601081106112d057634e487b7160e01b600052603260045260246000fd5b1a60f81b8282815181106112f457634e487b7160e01b600052603260045260246000fd5b60200101906001600160f81b031916908160001a90535060049490941c9361131b8161188b565b9050611291565b5083156113715760405162461bcd60e51b815260206004820181905260248201527f537472696e67733a20686578206c656e67746820696e73756666696369656e7460448201526064016105e2565b9392505050565b600082601f830112611388578081fd5b813567ffffffffffffffff808211156113a3576113a36118b8565b604051601f8301601f19908116603f011681019082821181831017156113cb576113cb6118b8565b816040528381528660208588010111156113e3578485fd5b8360208701602083013792830160200193909352509392505050565b600060208284031215611410578081fd5b8135611371816118ce565b60006020828403121561142c578081fd5b8151611371816118ce565b60008060006060848603121561144b578182fd5b8335611456816118ce565b9250602084013567ffffffffffffffff80821115611472578384fd5b61147e87838801611378565b93506040860135915080821115611493578283fd5b506114a086828701611378565b9150509250925092565b600080604083850312156114bc578182fd5b82356114c7816118ce565b946020939093013593505050565b6000806000606084860312156114e9578283fd5b83356114f4816118ce565b925060208401359150604084013567ffffffffffffffff811115611516578182fd5b6114a086828701611378565b600060208284031215611533578081fd5b5035919050565b6000806040838503121561154c578182fd5b82359150602083013561155e816118ce565b809150509250929050565b60006020828403121561157a578081fd5b81356001600160e01b031981168114611371578182fd5b6000602082840312156115a2578081fd5b813567ffffffffffffffff8111156115b8578182fd5b6115c484828501611378565b949350505050565b6000602082840312156115dd578081fd5b5051919050565b600081518084526115fc81602086016020860161185b565b601f01601f19169290920160200192915050565b6000825161162281846020870161185b565b9190910192915050565b7f416363657373436f6e74726f6c3a206163636f756e742000000000000000000081526000835161166481601785016020880161185b565b7001034b99036b4b9b9b4b733903937b6329607d1b601791840191820152835161169581602884016020880161185b565b01602801949350505050565b6001600160a01b03858116825284166020820152604081018390526080606082018190526000906116d4908301846115e4565b9695505050505050565b6001600160a01b03831681526040602082018190526000906115c4908301846115e4565b6001600160a01b0384168152606060208201819052600090611726908301856115e4565b82810360408401526116d481856115e4565b6001600160a01b038516815260806020820181905260009061175c908301866115e4565b828103604084015261176e81866115e4565b91505082606083015295945050505050565b60018060a01b03851681528360208201526080604082015260006117a760808301856115e4565b905082606083015295945050505050565b60208152600061137160208301846115e4565b6040815260006117de60408301856115e4565b90508260208301529392505050565b60008219821115611800576118006118a2565b500190565b60008261182057634e487b7160e01b81526012600452602481fd5b500490565b600081600019048311821515161561183f5761183f6118a2565b500290565b600082821015611856576118566118a2565b500390565b60005b8381101561187657818101518382015260200161185e565b83811115611885576000848401525b50505050565b60008161189a5761189a6118a2565b506000190190565b634e487b7160e01b600052601160045260246000fd5b634e487b7160e01b600052604160045260246000fd5b6001600160a01b0381168114610f1457600080fdfea2646970667358221220daabb9fd84102c3613917c6c3631eafba42c90ccd15cf643344e65e42a8dc6ce64736f6c63430008040033",
  "linkReferences": {},
  "deployedLinkReferences": {}
}