{
  "_format": "hh-sol-artifact-1",
  "contractName": "Notary",
  "sourceName": "contracts/Notary.sol",
  "abi": [
    {
      "inputs": [],
      "stateMutability": "nonpayable",
      "type": "constructor"
    },
    {
      "inputs": [
        {
          "internalType": "string",
          "name": "metadataUri",
          "type": "string"
        },
        {
          "internalType": "uint256",
          "name": "amountSent",
          "type": "uint256"
        }
      ],
      "name": "IncorrectAmountSent",
      "type": "error"
    },
    {
      "inputs": [
        {
          "internalType": "string",
          "name": "metadataUri",
          "type": "string"
        }
      ],
      "name": "MinterNotAuthorized",
      "type": "error"
    },
    {
      "inputs": [],
      "name": "MustHaveNotaryNft",
      "type": "error"
    },
    {
      "inputs": [
        {
          "internalType": "address",
          "name": "payee",
          "type": "address"
        }
      ],
      "name": "NoBalanceAvailable",
      "type": "error"
    },
    {
      "inputs": [
        {
          "internalType": "string",
          "name": "metadataUri",
          "type": "string"
        }
      ],
      "name": "TokenNotMintable",
      "type": "error"
    },
    {
      "anonymous": false,
      "inputs": [
        {
          "indexed": false,
          "internalType": "address",
          "name": "payee",
          "type": "address"
        },
        {
          "indexed": false,
          "internalType": "uint256",
          "name": "amountSent",
          "type": "uint256"
        }
      ],
      "name": "BalanceClaimed",
      "type": "event"
    },
    {
      "anonymous": false,
      "inputs": [
        {
          "indexed": false,
          "internalType": "address",
          "name": "payee",
          "type": "address"
        },
        {
          "indexed": false,
          "internalType": "uint256",
          "name": "amount",
          "type": "uint256"
        }
      ],
      "name": "BalanceIncreased",
      "type": "event"
    },
    {
      "anonymous": false,
      "inputs": [
        {
          "indexed": false,
          "internalType": "address",
          "name": "commissionPayee",
          "type": "address"
        }
      ],
      "name": "CommissionPayeeChanged",
      "type": "event"
    },
    {
      "anonymous": false,
      "inputs": [
        {
          "indexed": false,
          "internalType": "address",
          "name": "notary",
          "type": "address"
        },
        {
          "indexed": false,
          "internalType": "address",
          "name": "authorizedMinter",
          "type": "address"
        },
        {
          "indexed": false,
          "internalType": "uint256",
          "name": "price",
          "type": "uint256"
        },
        {
          "indexed": false,
          "internalType": "string",
          "name": "metadataUrl",
          "type": "string"
        }
      ],
      "name": "NotarizedDocumentCreated",
      "type": "event"
    },
    {
      "anonymous": false,
      "inputs": [
        {
          "indexed": false,
          "internalType": "address",
          "name": "authorizedMinter",
          "type": "address"
        },
        {
          "indexed": false,
          "internalType": "uint256",
          "name": "price",
          "type": "uint256"
        },
        {
          "indexed": false,
          "internalType": "string",
          "name": "metadataUrl",
          "type": "string"
        },
        {
          "indexed": false,
          "internalType": "uint256",
          "name": "tokenId",
          "type": "uint256"
        }
      ],
      "name": "NotarizedDocumentNftMinted",
      "type": "event"
    },
    {
      "anonymous": false,
      "inputs": [
        {
          "indexed": false,
          "internalType": "address",
          "name": "notary",
          "type": "address"
        },
        {
          "indexed": false,
          "internalType": "string",
          "name": "notaryId",
          "type": "string"
        },
        {
          "indexed": false,
          "internalType": "string",
          "name": "metadataUri",
          "type": "string"
        },
        {
          "indexed": false,
          "internalType": "uint256",
          "name": "tokenId",
          "type": "uint256"
        }
      ],
      "name": "NotaryCredentialsIssued",
      "type": "event"
    },
    {
      "anonymous": false,
      "inputs": [
        {
          "indexed": true,
          "internalType": "bytes32",
          "name": "role",
          "type": "bytes32"
        },
        {
          "indexed": true,
          "internalType": "bytes32",
          "name": "previousAdminRole",
          "type": "bytes32"
        },
        {
          "indexed": true,
          "internalType": "bytes32",
          "name": "newAdminRole",
          "type": "bytes32"
        }
      ],
      "name": "RoleAdminChanged",
      "type": "event"
    },
    {
      "anonymous": false,
      "inputs": [
        {
          "indexed": true,
          "internalType": "bytes32",
          "name": "role",
          "type": "bytes32"
        },
        {
          "indexed": true,
          "internalType": "address",
          "name": "account",
          "type": "address"
        },
        {
          "indexed": true,
          "internalType": "address",
          "name": "sender",
          "type": "address"
        }
      ],
      "name": "RoleGranted",
      "type": "event"
    },
    {
      "anonymous": false,
      "inputs": [
        {
          "indexed": true,
          "internalType": "bytes32",
          "name": "role",
          "type": "bytes32"
        },
        {
          "indexed": true,
          "internalType": "address",
          "name": "account",
          "type": "address"
        },
        {
          "indexed": true,
          "internalType": "address",
          "name": "sender",
          "type": "address"
        }
      ],
      "name": "RoleRevoked",
      "type": "event"
    },
    {
      "inputs": [],
      "name": "DEFAULT_ADMIN_ROLE",
      "outputs": [
        {
          "internalType": "bytes32",
          "name": "",
          "type": "bytes32"
        }
      ],
      "stateMutability": "view",
      "type": "function"
    },
    {
      "inputs": [
        {
          "internalType": "address",
          "name": "",
          "type": "address"
        }
      ],
      "name": "balance",
      "outputs": [
        {
          "internalType": "uint256",
          "name": "",
          "type": "uint256"
        }
      ],
      "stateMutability": "view",
      "type": "function"
    },
    {
      "inputs": [],
      "name": "claim",
      "outputs": [],
      "stateMutability": "nonpayable",
      "type": "function"
    },
    {
      "inputs": [],
      "name": "commissionPayee",
      "outputs": [
        {
          "internalType": "address",
          "name": "",
          "type": "address"
        }
      ],
      "stateMutability": "view",
      "type": "function"
    },
    {
      "inputs": [
        {
          "internalType": "address",
          "name": "_authorizedMinter",
          "type": "address"
        },
        {
          "internalType": "uint256",
          "name": "_mintingPrice",
          "type": "uint256"
        },
        {
          "internalType": "string",
          "name": "_metadataUrl",
          "type": "string"
        }
      ],
      "name": "createNotarizedDocument",
      "outputs": [],
      "stateMutability": "nonpayable",
      "type": "function"
    },
    {
      "inputs": [],
      "name": "defaultCommissionPercentage",
      "outputs": [
        {
          "internalType": "uint256",
          "name": "",
          "type": "uint256"
        }
      ],
      "stateMutability": "view",
      "type": "function"
    },
    {
      "inputs": [
        {
          "internalType": "bytes32",
          "name": "role",
          "type": "bytes32"
        }
      ],
      "name": "getRoleAdmin",
      "outputs": [
        {
          "internalType": "bytes32",
          "name": "",
          "type": "bytes32"
        }
      ],
      "stateMutability": "view",
      "type": "function"
    },
    {
      "inputs": [
        {
          "internalType": "bytes32",
          "name": "role",
          "type": "bytes32"
        },
        {
          "internalType": "address",
          "name": "account",
          "type": "address"
        }
      ],
      "name": "grantRole",
      "outputs": [],
      "stateMutability": "nonpayable",
      "type": "function"
    },
    {
      "inputs": [
        {
          "internalType": "bytes32",
          "name": "role",
          "type": "bytes32"
        },
        {
          "internalType": "address",
          "name": "account",
          "type": "address"
        }
      ],
      "name": "hasRole",
      "outputs": [
        {
          "internalType": "bool",
          "name": "",
          "type": "bool"
        }
      ],
      "stateMutability": "view",
      "type": "function"
    },
    {
      "inputs": [
        {
          "internalType": "address",
          "name": "to",
          "type": "address"
        },
        {
          "internalType": "string",
          "name": "notaryId",
          "type": "string"
        },
        {
          "internalType": "string",
          "name": "metadataUri",
          "type": "string"
        }
      ],
      "name": "issueNotaryToken",
      "outputs": [
        {
          "internalType": "uint256",
          "name": "tokenId",
          "type": "uint256"
        }
      ],
      "stateMutability": "nonpayable",
      "type": "function"
    },
    {
      "inputs": [
        {
          "internalType": "string",
          "name": "_metadataUrl",
          "type": "string"
        }
      ],
      "name": "mint",
      "outputs": [
        {
          "internalType": "uint256",
          "name": "tokenId",
          "type": "uint256"
        }
      ],
      "stateMutability": "payable",
      "type": "function"
    },
    {
      "inputs": [],
      "name": "notarizedDocumentNftContract",
      "outputs": [
        {
          "internalType": "contract NotarizedDocumentNft",
          "name": "",
          "type": "address"
        }
      ],
      "stateMutability": "view",
      "type": "function"
    },
    {
      "inputs": [],
      "name": "notaryNftContract",
      "outputs": [
        {
          "internalType": "contract NotaryNft",
          "name": "",
          "type": "address"
        }
      ],
      "stateMutability": "view",
      "type": "function"
    },
    {
      "inputs": [],
      "name": "payableBalance",
      "outputs": [
        {
          "internalType": "uint256",
          "name": "_balance",
          "type": "uint256"
        }
      ],
      "stateMutability": "view",
      "type": "function"
    },
    {
      "inputs": [
        {
          "internalType": "bytes32",
          "name": "role",
          "type": "bytes32"
        },
        {
          "internalType": "address",
          "name": "account",
          "type": "address"
        }
      ],
      "name": "renounceRole",
      "outputs": [],
      "stateMutability": "nonpayable",
      "type": "function"
    },
    {
      "inputs": [
        {
          "internalType": "bytes32",
          "name": "role",
          "type": "bytes32"
        },
        {
          "internalType": "address",
          "name": "account",
          "type": "address"
        }
      ],
      "name": "revokeRole",
      "outputs": [],
      "stateMutability": "nonpayable",
      "type": "function"
    },
    {
      "inputs": [
        {
          "internalType": "address",
          "name": "_payee",
          "type": "address"
        }
      ],
      "name": "setCommissionPayee",
      "outputs": [],
      "stateMutability": "nonpayable",
      "type": "function"
    },
    {
      "inputs": [
        {
          "internalType": "contract NotarizedDocumentNft",
          "name": "_ndn",
          "type": "address"
        }
      ],
      "name": "setNotarizedDocumentNftContact",
      "outputs": [],
      "stateMutability": "nonpayable",
      "type": "function"
    },
    {
      "inputs": [
        {
          "internalType": "contract NotaryNft",
          "name": "_notaryNft",
          "type": "address"
        }
      ],
      "name": "setNotaryNftContract",
      "outputs": [],
      "stateMutability": "nonpayable",
      "type": "function"
    },
    {
      "inputs": [
        {
          "internalType": "bytes4",
          "name": "interfaceId",
          "type": "bytes4"
        }
      ],
      "name": "supportsInterface",
      "outputs": [
        {
          "internalType": "bool",
          "name": "",
          "type": "bool"
        }
      ],
      "stateMutability": "view",
      "type": "function"
    },
    {
      "inputs": [
        {
          "internalType": "string",
          "name": "",
          "type": "string"
        }
      ],
      "name": "unmintedToken",
      "outputs": [
        {
          "internalType": "address",
          "name": "notary",
          "type": "address"
        },
        {
          "internalType": "address",
          "name": "authorizedMinter",
          "type": "address"
        },
        {
          "internalType": "uint256",
          "name": "costToMint",
          "type": "uint256"
        }
      ],
      "stateMutability": "view",
      "type": "function"
    }
  ],
  "bytecode": "0x608060405234801561001057600080fd5b5061001c600033610038565b600480546001600160a01b03191633179055601e6005556100e4565b6100428282610046565b5050565b6000828152602081815260408083206001600160a01b038516845290915290205460ff16610042576000828152602081815260408083206001600160a01b03851684529091529020805460ff191660011790556100a03390565b6001600160a01b0316816001600160a01b0316837f2f8788117e7eff1d82e926ec794901d17c78024a50270940304540a733656f0d60405160405180910390a45050565b61151a806100f36000396000f3fe60806040526004361061012a5760003560e01c806387e6ae1f116100ab578063c2955e861161006f578063c2955e86146103a3578063d547741f146103c3578063d85d3d27146103e3578063d98ab6bd146103f6578063e3d670d714610416578063f4e042d51461044357600080fd5b806387e6ae1f146102b357806391d14854146102d357806397fd655d146102f35780639f793d7414610313578063a217fddf1461038e57600080fd5b806346408c26116100f257806346408c26146102065780634d553cef146102265780634e71d92d1461025e578063675f2d6614610273578063695d38351461029357600080fd5b806301ffc9a71461012f578063248a9ca3146101645780632f2ff15d146101a257806336568abe146101c457806344b279a2146101e4575b600080fd5b34801561013b57600080fd5b5061014f61014a36600461116a565b610459565b60405190151581526020015b60405180910390f35b34801561017057600080fd5b5061019461017f366004611123565b60009081526020819052604090206001015490565b60405190815260200161015b565b3480156101ae57600080fd5b506101c26101bd36600461113b565b610490565b005b3480156101d057600080fd5b506101c26101df36600461113b565b6104ba565b3480156101f057600080fd5b5033600090815260066020526040902054610194565b34801561021257600080fd5b506101c2610221366004611047565b61053d565b34801561023257600080fd5b50600454610246906001600160a01b031681565b6040516001600160a01b03909116815260200161015b565b34801561026a57600080fd5b506101c26105ee565b34801561027f57600080fd5b506101c261028e3660046110d6565b61069b565b34801561029f57600080fd5b50600154610246906001600160a01b031681565b3480156102bf57600080fd5b506101c26102ce366004611047565b6107f0565b3480156102df57600080fd5b5061014f6102ee36600461113b565b61081e565b3480156102ff57600080fd5b50600254610246906001600160a01b031681565b34801561031f57600080fd5b5061036861032e366004611192565b8051808201602090810180516003825292820191909301209152805460018201546002909201546001600160a01b03918216929091169083565b604080516001600160a01b0394851681529390921660208401529082015260600161015b565b34801561039a57600080fd5b50610194600081565b3480156103af57600080fd5b506101c26103be366004611047565b610847565b3480156103cf57600080fd5b506101c26103de36600461113b565b610875565b6101946103f1366004611192565b61089a565b34801561040257600080fd5b50610194610411366004611063565b610a79565b34801561042257600080fd5b50610194610431366004611047565b60066020526000908152604090205481565b34801561044f57600080fd5b5061019460055481565b60006001600160e01b03198216637965db0b60e01b148061048a57506301ffc9a760e01b6001600160e01b03198316145b92915050565b6000828152602081905260409020600101546104ab81610b52565b6104b58383610b5f565b505050565b6001600160a01b038116331461052f5760405162461bcd60e51b815260206004820152602f60248201527f416363657373436f6e74726f6c3a2063616e206f6e6c792072656e6f756e636560448201526e103937b632b9903337b91039b2b63360891b60648201526084015b60405180910390fd5b6105398282610be3565b5050565b600061054881610b52565b6004546001600160a01b039081166000908152600660205260408082205492851682528120805490919061057d9084906113ee565b9091555050600480546001600160a01b0390811660009081526006602090815260408083209290925583546001600160a01b031916928616928317909355519081527fecb8f51c336e1305fd4b3be0019a43021c75e70fdaaf00ea9ba201815cc6e537910160405180910390a15050565b3360009081526006602052604090205461061d576040516351c8365f60e01b8152336004820152602401610526565b33600081815260066020526040808220805490839055905190929183156108fc02918491818181858888f1935050505015801561065e573d6000803e3d6000fd5b5060408051338152602081018390527fe64799e036cf6322d0c3b6d11f4e2fc9d1bd9bb5938dd3d6835921a427c89b8f910160405180910390a150565b6002546040516370a0823160e01b81523360048201526001600160a01b03909116906370a082319060240160206040518083038186803b1580156106de57600080fd5b505afa1580156106f2573d6000803e3d6000fd5b505050506040513d601f19601f8201168201806040525081019061071691906111cd565b61073357604051633b9fd80b60e01b815260040160405180910390fd5b604080516060810182523381526001600160a01b03851660208201528082018490529051600390610765908490611211565b9081526040805160209281900383018120845181546001600160a01b03199081166001600160a01b03928316178355948601516001830180549096169116179093559201516002909101557f18aafd4480e90a5cd4bf3236e30e81887f45c682abe7fcbe4639bf092259e059906107e39033908690869086906112a2565b60405180910390a1505050565b60006107fb81610b52565b50600180546001600160a01b0319166001600160a01b0392909216919091179055565b6000918252602082815260408084206001600160a01b0393909316845291905290205460ff1690565b600061085281610b52565b50600280546001600160a01b0319166001600160a01b0392909216919091179055565b60008281526020819052604090206001015461089081610b52565b6104b58383610be3565b6000806003836040516108ad9190611211565b908152604080516020928190038301812060608201835280546001600160a01b0390811683526001820154169382018490526002015491810191909152915061090b5782604051630fe0dd5360e31b815260040161052691906113b9565b60208101516001600160a01b0316331461093a5782604051635fbc563160e11b815260040161052691906113b9565b34816040015114610962578234604051631b4f7de760e21b81526004016105269291906113cc565b610970348260000151610c48565b60015460405163d0def52160e01b81526001600160a01b039091169063d0def521906109a290339087906004016112df565b602060405180830381600087803b1580156109bc57600080fd5b505af11580156109d0573d6000803e3d6000fd5b505050506040513d601f19601f820116820180604052508101906109f491906111cd565b9150600383604051610a069190611211565b90815260405190819003602001812080546001600160a01b03199081168255600182018054909116905560006002909101557f4127146f91ac45d59f3999d0585a57612b8be0589d86909e0399fbd1d10c634290610a6b903390349087908790611381565b60405180910390a150919050565b600080610a8581610b52565b600254604051630990711960e41b81526001600160a01b0390911690639907119090610ab990889088908890600401611303565b602060405180830381600087803b158015610ad357600080fd5b505af1158015610ae7573d6000803e3d6000fd5b505050506040513d601f19601f82011682018060405250810190610b0b91906111cd565b91507f61e98bd14ba1eb82551fce55ca0e951ff9c77b1817a9ed46d85d8fdda536d02785858585604051610b429493929190611339565b60405180910390a1509392505050565b610b5c8133610d73565b50565b610b69828261081e565b610539576000828152602081815260408083206001600160a01b03851684529091529020805460ff19166001179055610b9f3390565b6001600160a01b0316816001600160a01b0316837f2f8788117e7eff1d82e926ec794901d17c78024a50270940304540a733656f0d60405160405180910390a45050565b610bed828261081e565b15610539576000828152602081815260408083206001600160a01b0385168085529252808320805460ff1916905551339285917ff6391f5c32d9c69d2a47ea670b442974b53935d1edc7fd64eb21e047a839171b9190a45050565b6000606460055484610c5a9190611426565b610c649190611406565b90506000610c728285611445565b905083610c7f82846113ee565b14610c8957600080fd5b6001600160a01b03831660009081526006602052604081208054839290610cb19084906113ee565b9091555050604080516001600160a01b0385168152602081018390527f7a702e80a9c183a6ce9d6732991df2e914555ba35a364a70aed2433984e7544b910160405180910390a16004546001600160a01b031660009081526006602052604081208054849290610d229084906113ee565b9091555050600454604080516001600160a01b039092168252602082018490527f7a702e80a9c183a6ce9d6732991df2e914555ba35a364a70aed2433984e7544b910160405180910390a150505050565b610d7d828261081e565b61053957610d95816001600160a01b03166014610dd7565b610da0836020610dd7565b604051602001610db192919061122d565b60408051601f198184030181529082905262461bcd60e51b8252610526916004016113b9565b60606000610de6836002611426565b610df19060026113ee565b67ffffffffffffffff811115610e1757634e487b7160e01b600052604160045260246000fd5b6040519080825280601f01601f191660200182016040528015610e41576020820181803683370190505b509050600360fc1b81600081518110610e6a57634e487b7160e01b600052603260045260246000fd5b60200101906001600160f81b031916908160001a905350600f60fb1b81600181518110610ea757634e487b7160e01b600052603260045260246000fd5b60200101906001600160f81b031916908160001a9053506000610ecb846002611426565b610ed69060016113ee565b90505b6001811115610f6a576f181899199a1a9b1b9c1cb0b131b232b360811b85600f1660108110610f1857634e487b7160e01b600052603260045260246000fd5b1a60f81b828281518110610f3c57634e487b7160e01b600052603260045260246000fd5b60200101906001600160f81b031916908160001a90535060049490941c93610f638161148c565b9050610ed9565b508315610fb95760405162461bcd60e51b815260206004820181905260248201527f537472696e67733a20686578206c656e67746820696e73756666696369656e746044820152606401610526565b9392505050565b600082601f830112610fd0578081fd5b813567ffffffffffffffff80821115610feb57610feb6114b9565b604051601f8301601f19908116603f01168101908282118183101715611013576110136114b9565b8160405283815286602085880101111561102b578485fd5b8360208701602083013792830160200193909352509392505050565b600060208284031215611058578081fd5b8135610fb9816114cf565b600080600060608486031215611077578182fd5b8335611082816114cf565b9250602084013567ffffffffffffffff8082111561109e578384fd5b6110aa87838801610fc0565b935060408601359150808211156110bf578283fd5b506110cc86828701610fc0565b9150509250925092565b6000806000606084860312156110ea578283fd5b83356110f5816114cf565b925060208401359150604084013567ffffffffffffffff811115611117578182fd5b6110cc86828701610fc0565b600060208284031215611134578081fd5b5035919050565b6000806040838503121561114d578182fd5b82359150602083013561115f816114cf565b809150509250929050565b60006020828403121561117b578081fd5b81356001600160e01b031981168114610fb9578182fd5b6000602082840312156111a3578081fd5b813567ffffffffffffffff8111156111b9578182fd5b6111c584828501610fc0565b949350505050565b6000602082840312156111de578081fd5b5051919050565b600081518084526111fd81602086016020860161145c565b601f01601f19169290920160200192915050565b6000825161122381846020870161145c565b9190910192915050565b7f416363657373436f6e74726f6c3a206163636f756e742000000000000000000081526000835161126581601785016020880161145c565b7001034b99036b4b9b9b4b733903937b6329607d1b601791840191820152835161129681602884016020880161145c565b01602801949350505050565b6001600160a01b03858116825284166020820152604081018390526080606082018190526000906112d5908301846111e5565b9695505050505050565b6001600160a01b03831681526040602082018190526000906111c5908301846111e5565b6001600160a01b0384168152606060208201819052600090611327908301856111e5565b82810360408401526112d581856111e5565b6001600160a01b038516815260806020820181905260009061135d908301866111e5565b828103604084015261136f81866111e5565b91505082606083015295945050505050565b60018060a01b03851681528360208201526080604082015260006113a860808301856111e5565b905082606083015295945050505050565b602081526000610fb960208301846111e5565b6040815260006113df60408301856111e5565b90508260208301529392505050565b60008219821115611401576114016114a3565b500190565b60008261142157634e487b7160e01b81526012600452602481fd5b500490565b6000816000190483118215151615611440576114406114a3565b500290565b600082821015611457576114576114a3565b500390565b60005b8381101561147757818101518382015260200161145f565b83811115611486576000848401525b50505050565b60008161149b5761149b6114a3565b506000190190565b634e487b7160e01b600052601160045260246000fd5b634e487b7160e01b600052604160045260246000fd5b6001600160a01b0381168114610b5c57600080fdfea2646970667358221220782d79a32c54bb4835f37c85f1c4fd223243a78c1b498cd412f39ced705812f264736f6c63430008040033",
  "linkReferences": {},
  "deployedLinkReferences": {}
}