{
  "_format": "hh-sol-artifact-1",
  "contractName": "Notary",
  "sourceName": "contracts/Notary.sol",
  "abi": [
    {
      "inputs": [],
      "stateMutability": "nonpayable",
      "type": "constructor"
    },
    {
      "inputs": [
        {
          "internalType": "string",
          "name": "metadataUri",
          "type": "string"
        },
        {
          "internalType": "uint256",
          "name": "amountSent",
          "type": "uint256"
        }
      ],
      "name": "IncorrectAmountSent",
      "type": "error"
    },
    {
      "inputs": [
        {
          "internalType": "string",
          "name": "metadataUri",
          "type": "string"
        }
      ],
      "name": "MinterNotAuthorized",
      "type": "error"
    },
    {
      "inputs": [
        {
          "internalType": "address",
          "name": "payee",
          "type": "address"
        }
      ],
      "name": "NoBalanceAvailable",
      "type": "error"
    },
    {
      "inputs": [
        {
          "internalType": "string",
          "name": "metadataUri",
          "type": "string"
        }
      ],
      "name": "TokenNotMintable",
      "type": "error"
    },
    {
      "anonymous": false,
      "inputs": [
        {
          "indexed": false,
          "internalType": "address",
          "name": "payee",
          "type": "address"
        },
        {
          "indexed": false,
          "internalType": "uint256",
          "name": "amountSent",
          "type": "uint256"
        }
      ],
      "name": "BalanceClaimed",
      "type": "event"
    },
    {
      "anonymous": false,
      "inputs": [
        {
          "indexed": false,
          "internalType": "address",
          "name": "payee",
          "type": "address"
        },
        {
          "indexed": false,
          "internalType": "uint256",
          "name": "amount",
          "type": "uint256"
        }
      ],
      "name": "BalanceIncreased",
      "type": "event"
    },
    {
      "anonymous": false,
      "inputs": [
        {
          "indexed": false,
          "internalType": "address",
          "name": "commissionPayee",
          "type": "address"
        }
      ],
      "name": "CommissionPayeeChanged",
      "type": "event"
    },
    {
      "anonymous": false,
      "inputs": [
        {
          "indexed": false,
          "internalType": "address",
          "name": "notary",
          "type": "address"
        },
        {
          "indexed": false,
          "internalType": "address",
          "name": "authorizedMinter",
          "type": "address"
        },
        {
          "indexed": false,
          "internalType": "uint256",
          "name": "price",
          "type": "uint256"
        },
        {
          "indexed": false,
          "internalType": "string",
          "name": "metadataUrl",
          "type": "string"
        }
      ],
      "name": "NotarizedDocumentCreated",
      "type": "event"
    },
    {
      "anonymous": false,
      "inputs": [
        {
          "indexed": false,
          "internalType": "address",
          "name": "authorizedMinter",
          "type": "address"
        },
        {
          "indexed": false,
          "internalType": "uint256",
          "name": "price",
          "type": "uint256"
        },
        {
          "indexed": false,
          "internalType": "string",
          "name": "metadataUrl",
          "type": "string"
        },
        {
          "indexed": false,
          "internalType": "uint256",
          "name": "tokenId",
          "type": "uint256"
        }
      ],
      "name": "NotarizedDocumentNftMinted",
      "type": "event"
    },
    {
      "anonymous": false,
      "inputs": [
        {
          "indexed": true,
          "internalType": "bytes32",
          "name": "role",
          "type": "bytes32"
        },
        {
          "indexed": true,
          "internalType": "bytes32",
          "name": "previousAdminRole",
          "type": "bytes32"
        },
        {
          "indexed": true,
          "internalType": "bytes32",
          "name": "newAdminRole",
          "type": "bytes32"
        }
      ],
      "name": "RoleAdminChanged",
      "type": "event"
    },
    {
      "anonymous": false,
      "inputs": [
        {
          "indexed": true,
          "internalType": "bytes32",
          "name": "role",
          "type": "bytes32"
        },
        {
          "indexed": true,
          "internalType": "address",
          "name": "account",
          "type": "address"
        },
        {
          "indexed": true,
          "internalType": "address",
          "name": "sender",
          "type": "address"
        }
      ],
      "name": "RoleGranted",
      "type": "event"
    },
    {
      "anonymous": false,
      "inputs": [
        {
          "indexed": true,
          "internalType": "bytes32",
          "name": "role",
          "type": "bytes32"
        },
        {
          "indexed": true,
          "internalType": "address",
          "name": "account",
          "type": "address"
        },
        {
          "indexed": true,
          "internalType": "address",
          "name": "sender",
          "type": "address"
        }
      ],
      "name": "RoleRevoked",
      "type": "event"
    },
    {
      "inputs": [],
      "name": "DEFAULT_ADMIN_ROLE",
      "outputs": [
        {
          "internalType": "bytes32",
          "name": "",
          "type": "bytes32"
        }
      ],
      "stateMutability": "view",
      "type": "function"
    },
    {
      "inputs": [],
      "name": "NOTARY_ROLE",
      "outputs": [
        {
          "internalType": "bytes32",
          "name": "",
          "type": "bytes32"
        }
      ],
      "stateMutability": "view",
      "type": "function"
    },
    {
      "inputs": [
        {
          "internalType": "address",
          "name": "",
          "type": "address"
        }
      ],
      "name": "balance",
      "outputs": [
        {
          "internalType": "uint256",
          "name": "",
          "type": "uint256"
        }
      ],
      "stateMutability": "view",
      "type": "function"
    },
    {
      "inputs": [],
      "name": "claim",
      "outputs": [],
      "stateMutability": "nonpayable",
      "type": "function"
    },
    {
      "inputs": [],
      "name": "commissionPayee",
      "outputs": [
        {
          "internalType": "address",
          "name": "",
          "type": "address"
        }
      ],
      "stateMutability": "view",
      "type": "function"
    },
    {
      "inputs": [
        {
          "internalType": "address",
          "name": "_authorizedMinter",
          "type": "address"
        },
        {
          "internalType": "uint256",
          "name": "_mintingPrice",
          "type": "uint256"
        },
        {
          "internalType": "string",
          "name": "_metadataUrl",
          "type": "string"
        }
      ],
      "name": "createNotarizedDocument",
      "outputs": [],
      "stateMutability": "nonpayable",
      "type": "function"
    },
    {
      "inputs": [],
      "name": "defaultCommissionPercentage",
      "outputs": [
        {
          "internalType": "uint256",
          "name": "",
          "type": "uint256"
        }
      ],
      "stateMutability": "view",
      "type": "function"
    },
    {
      "inputs": [
        {
          "internalType": "bytes32",
          "name": "role",
          "type": "bytes32"
        }
      ],
      "name": "getRoleAdmin",
      "outputs": [
        {
          "internalType": "bytes32",
          "name": "",
          "type": "bytes32"
        }
      ],
      "stateMutability": "view",
      "type": "function"
    },
    {
      "inputs": [
        {
          "internalType": "bytes32",
          "name": "role",
          "type": "bytes32"
        },
        {
          "internalType": "address",
          "name": "account",
          "type": "address"
        }
      ],
      "name": "grantRole",
      "outputs": [],
      "stateMutability": "nonpayable",
      "type": "function"
    },
    {
      "inputs": [
        {
          "internalType": "bytes32",
          "name": "role",
          "type": "bytes32"
        },
        {
          "internalType": "address",
          "name": "account",
          "type": "address"
        }
      ],
      "name": "hasRole",
      "outputs": [
        {
          "internalType": "bool",
          "name": "",
          "type": "bool"
        }
      ],
      "stateMutability": "view",
      "type": "function"
    },
    {
      "inputs": [
        {
          "internalType": "string",
          "name": "_metadataUrl",
          "type": "string"
        }
      ],
      "name": "mint",
      "outputs": [
        {
          "internalType": "uint256",
          "name": "tokenId",
          "type": "uint256"
        }
      ],
      "stateMutability": "payable",
      "type": "function"
    },
    {
      "inputs": [],
      "name": "notarizedDocumentNftContract",
      "outputs": [
        {
          "internalType": "contract NotarizedDocumentNft",
          "name": "",
          "type": "address"
        }
      ],
      "stateMutability": "view",
      "type": "function"
    },
    {
      "inputs": [],
      "name": "payableBalance",
      "outputs": [
        {
          "internalType": "uint256",
          "name": "_balance",
          "type": "uint256"
        }
      ],
      "stateMutability": "view",
      "type": "function"
    },
    {
      "inputs": [
        {
          "internalType": "bytes32",
          "name": "role",
          "type": "bytes32"
        },
        {
          "internalType": "address",
          "name": "account",
          "type": "address"
        }
      ],
      "name": "renounceRole",
      "outputs": [],
      "stateMutability": "nonpayable",
      "type": "function"
    },
    {
      "inputs": [
        {
          "internalType": "bytes32",
          "name": "role",
          "type": "bytes32"
        },
        {
          "internalType": "address",
          "name": "account",
          "type": "address"
        }
      ],
      "name": "revokeRole",
      "outputs": [],
      "stateMutability": "nonpayable",
      "type": "function"
    },
    {
      "inputs": [
        {
          "internalType": "address",
          "name": "_payee",
          "type": "address"
        }
      ],
      "name": "setCommissionPayee",
      "outputs": [],
      "stateMutability": "nonpayable",
      "type": "function"
    },
    {
      "inputs": [
        {
          "internalType": "contract NotarizedDocumentNft",
          "name": "_ndn",
          "type": "address"
        }
      ],
      "name": "setNotarizedDocumentNftContact",
      "outputs": [],
      "stateMutability": "nonpayable",
      "type": "function"
    },
    {
      "inputs": [
        {
          "internalType": "bytes4",
          "name": "interfaceId",
          "type": "bytes4"
        }
      ],
      "name": "supportsInterface",
      "outputs": [
        {
          "internalType": "bool",
          "name": "",
          "type": "bool"
        }
      ],
      "stateMutability": "view",
      "type": "function"
    },
    {
      "inputs": [
        {
          "internalType": "string",
          "name": "",
          "type": "string"
        }
      ],
      "name": "unmintedToken",
      "outputs": [
        {
          "internalType": "address",
          "name": "notary",
          "type": "address"
        },
        {
          "internalType": "address",
          "name": "authorizedMinter",
          "type": "address"
        },
        {
          "internalType": "uint256",
          "name": "costToMint",
          "type": "uint256"
        }
      ],
      "stateMutability": "view",
      "type": "function"
    }
  ],
  "bytecode": "0x60806040523480156200001157600080fd5b50620000276000801b336200007660201b60201c565b33600360006101000a81548173ffffffffffffffffffffffffffffffffffffffff021916908373ffffffffffffffffffffffffffffffffffffffff160217905550601e600481905550620001ef565b6200008882826200008c60201b60201c565b5050565b6200009e82826200017d60201b60201c565b6200017957600160008084815260200190815260200160002060000160008373ffffffffffffffffffffffffffffffffffffffff1673ffffffffffffffffffffffffffffffffffffffff16815260200190815260200160002060006101000a81548160ff0219169083151502179055506200011e620001e760201b60201c565b73ffffffffffffffffffffffffffffffffffffffff168173ffffffffffffffffffffffffffffffffffffffff16837f2f8788117e7eff1d82e926ec794901d17c78024a50270940304540a733656f0d60405160405180910390a45b5050565b600080600084815260200190815260200160002060000160008373ffffffffffffffffffffffffffffffffffffffff1673ffffffffffffffffffffffffffffffffffffffff16815260200190815260200160002060009054906101000a900460ff16905092915050565b600033905090565b61234280620001ff6000396000f3fe6080604052600436106101145760003560e01c8063695d3835116100a0578063c48b0baa11610064578063c48b0baa1461039f578063d547741f146103ca578063d85d3d27146103f3578063e3d670d714610423578063f4e042d51461046057610114565b8063695d3835146102a457806387e6ae1f146102cf57806391d14854146102f85780639f793d7414610335578063a217fddf1461037457610114565b806344b279a2116100e757806344b279a2146101e557806346408c26146102105780634d553cef146102395780634e71d92d14610264578063675f2d661461027b57610114565b806301ffc9a714610119578063248a9ca3146101565780632f2ff15d1461019357806336568abe146101bc575b600080fd5b34801561012557600080fd5b50610140600480360381019061013b91906119bf565b61048b565b60405161014d9190611d50565b60405180910390f35b34801561016257600080fd5b5061017d6004803603810190610178919061195a565b610505565b60405161018a9190611d6b565b60405180910390f35b34801561019f57600080fd5b506101ba60048036038101906101b59190611983565b610524565b005b3480156101c857600080fd5b506101e360048036038101906101de9190611983565b610545565b005b3480156101f157600080fd5b506101fa6105c8565b6040516102079190611e33565b60405180910390f35b34801561021c57600080fd5b50610237600480360381019061023291906118ca565b61060f565b005b34801561024557600080fd5b5061024e6107d8565b60405161025b9190611c0d565b60405180910390f35b34801561027057600080fd5b506102796107fe565b005b34801561028757600080fd5b506102a2600480360381019061029d91906118f3565b61098f565b005b3480156102b057600080fd5b506102b9610afc565b6040516102c69190611d86565b60405180910390f35b3480156102db57600080fd5b506102f660048036038101906102f191906119e8565b610b22565b005b34801561030457600080fd5b5061031f600480360381019061031a9190611983565b610b74565b60405161032c9190611d50565b60405180910390f35b34801561034157600080fd5b5061035c60048036038101906103579190611a11565b610bde565b60405161036b93929190611c28565b60405180910390f35b34801561038057600080fd5b50610389610c5e565b6040516103969190611d6b565b60405180910390f35b3480156103ab57600080fd5b506103b4610c65565b6040516103c19190611d6b565b60405180910390f35b3480156103d657600080fd5b506103f160048036038101906103ec9190611983565b610c89565b005b61040d60048036038101906104089190611a11565b610caa565b60405161041a9190611e33565b60405180910390f35b34801561042f57600080fd5b5061044a600480360381019061044591906118ca565b61103b565b6040516104579190611e33565b60405180910390f35b34801561046c57600080fd5b50610475611053565b6040516104829190611e33565b60405180910390f35b60007f7965db0b000000000000000000000000000000000000000000000000000000007bffffffffffffffffffffffffffffffffffffffffffffffffffffffff1916827bffffffffffffffffffffffffffffffffffffffffffffffffffffffff191614806104fe57506104fd82611059565b5b9050919050565b6000806000838152602001908152602001600020600101549050919050565b61052d82610505565b610536816110c3565b61054083836110d7565b505050565b61054d6111b7565b73ffffffffffffffffffffffffffffffffffffffff168173ffffffffffffffffffffffffffffffffffffffff16146105ba576040517f08c379a00000000000000000000000000000000000000000000000000000000081526004016105b190611e13565b60405180910390fd5b6105c482826111bf565b5050565b6000600560003373ffffffffffffffffffffffffffffffffffffffff1673ffffffffffffffffffffffffffffffffffffffff16815260200190815260200160002054905090565b6000801b61061c816110c3565b60056000600360009054906101000a900473ffffffffffffffffffffffffffffffffffffffff1673ffffffffffffffffffffffffffffffffffffffff1673ffffffffffffffffffffffffffffffffffffffff16815260200190815260200160002054600560008473ffffffffffffffffffffffffffffffffffffffff1673ffffffffffffffffffffffffffffffffffffffff16815260200190815260200160002060008282546106cc9190611ecb565b92505081905550600060056000600360009054906101000a900473ffffffffffffffffffffffffffffffffffffffff1673ffffffffffffffffffffffffffffffffffffffff1673ffffffffffffffffffffffffffffffffffffffff1681526020019081526020016000208190555081600360006101000a81548173ffffffffffffffffffffffffffffffffffffffff021916908373ffffffffffffffffffffffffffffffffffffffff1602179055507fecb8f51c336e1305fd4b3be0019a43021c75e70fdaaf00ea9ba201815cc6e537600360009054906101000a900473ffffffffffffffffffffffffffffffffffffffff166040516107cc9190611c0d565b60405180910390a15050565b600360009054906101000a900473ffffffffffffffffffffffffffffffffffffffff1681565b6000600560003373ffffffffffffffffffffffffffffffffffffffff1673ffffffffffffffffffffffffffffffffffffffff16815260200190815260200160002054141561088357336040517f51c8365f00000000000000000000000000000000000000000000000000000000815260040161087a9190611c0d565b60405180910390fd5b6000600560003373ffffffffffffffffffffffffffffffffffffffff1673ffffffffffffffffffffffffffffffffffffffff1681526020019081526020016000205490506000600560003373ffffffffffffffffffffffffffffffffffffffff1673ffffffffffffffffffffffffffffffffffffffff168152602001908152602001600020819055503373ffffffffffffffffffffffffffffffffffffffff166108fc829081150290604051600060405180830381858888f19350505050158015610952573d6000803e3d6000fd5b507fe64799e036cf6322d0c3b6d11f4e2fc9d1bd9bb5938dd3d6835921a427c89b8f3382604051610984929190611cdb565b60405180910390a150565b7f014df5ee2861d7f34562399ffa112fc59b51f810d2b875c3609ba0c31ac873d06109b9816110c3565b60405180606001604052803373ffffffffffffffffffffffffffffffffffffffff1681526020018573ffffffffffffffffffffffffffffffffffffffff16815260200184815250600283604051610a109190611bbc565b908152602001604051809103902060008201518160000160006101000a81548173ffffffffffffffffffffffffffffffffffffffff021916908373ffffffffffffffffffffffffffffffffffffffff16021790555060208201518160010160006101000a81548173ffffffffffffffffffffffffffffffffffffffff021916908373ffffffffffffffffffffffffffffffffffffffff160217905550604082015181600201559050507f18aafd4480e90a5cd4bf3236e30e81887f45c682abe7fcbe4639bf092259e05933858585604051610aee9493929190611c5f565b60405180910390a150505050565b600160009054906101000a900473ffffffffffffffffffffffffffffffffffffffff1681565b6000801b610b2f816110c3565b81600160006101000a81548173ffffffffffffffffffffffffffffffffffffffff021916908373ffffffffffffffffffffffffffffffffffffffff1602179055505050565b600080600084815260200190815260200160002060000160008373ffffffffffffffffffffffffffffffffffffffff1673ffffffffffffffffffffffffffffffffffffffff16815260200190815260200160002060009054906101000a900460ff16905092915050565b6002818051602081018201805184825260208301602085012081835280955050505050506000915090508060000160009054906101000a900473ffffffffffffffffffffffffffffffffffffffff16908060010160009054906101000a900473ffffffffffffffffffffffffffffffffffffffff16908060020154905083565b6000801b81565b7f014df5ee2861d7f34562399ffa112fc59b51f810d2b875c3609ba0c31ac873d081565b610c9282610505565b610c9b816110c3565b610ca583836111bf565b505050565b600080600283604051610cbd9190611bbc565b90815260200160405180910390206040518060600160405290816000820160009054906101000a900473ffffffffffffffffffffffffffffffffffffffff1673ffffffffffffffffffffffffffffffffffffffff1673ffffffffffffffffffffffffffffffffffffffff1681526020016001820160009054906101000a900473ffffffffffffffffffffffffffffffffffffffff1673ffffffffffffffffffffffffffffffffffffffff1673ffffffffffffffffffffffffffffffffffffffff1681526020016002820154815250509050600073ffffffffffffffffffffffffffffffffffffffff16816020015173ffffffffffffffffffffffffffffffffffffffff161415610e0457826040517f7f06ea98000000000000000000000000000000000000000000000000000000008152600401610dfb9190611da1565b60405180910390fd5b3373ffffffffffffffffffffffffffffffffffffffff16816020015173ffffffffffffffffffffffffffffffffffffffff1614610e7857826040517fbf78ac62000000000000000000000000000000000000000000000000000000008152600401610e6f9190611da1565b60405180910390fd5b34816040015114610ec25782346040517f6d3df79c000000000000000000000000000000000000000000000000000000008152600401610eb9929190611dc3565b60405180910390fd5b610ed03482600001516112a0565b600160009054906101000a900473ffffffffffffffffffffffffffffffffffffffff1673ffffffffffffffffffffffffffffffffffffffff1663d0def52133856040518363ffffffff1660e01b8152600401610f2d929190611cab565b602060405180830381600087803b158015610f4757600080fd5b505af1158015610f5b573d6000803e3d6000fd5b505050506040513d601f19601f82011682018060405250810190610f7f9190611a52565b9150600283604051610f919190611bbc565b9081526020016040518091039020600080820160006101000a81549073ffffffffffffffffffffffffffffffffffffffff02191690556001820160006101000a81549073ffffffffffffffffffffffffffffffffffffffff0219169055600282016000905550507f4127146f91ac45d59f3999d0585a57612b8be0589d86909e0399fbd1d10c63423334858560405161102d9493929190611d04565b60405180910390a150919050565b60056020528060005260406000206000915090505481565b60045481565b60007f01ffc9a7000000000000000000000000000000000000000000000000000000007bffffffffffffffffffffffffffffffffffffffffffffffffffffffff1916827bffffffffffffffffffffffffffffffffffffffffffffffffffffffff1916149050919050565b6110d4816110cf6111b7565b61144d565b50565b6110e18282610b74565b6111b357600160008084815260200190815260200160002060000160008373ffffffffffffffffffffffffffffffffffffffff1673ffffffffffffffffffffffffffffffffffffffff16815260200190815260200160002060006101000a81548160ff0219169083151502179055506111586111b7565b73ffffffffffffffffffffffffffffffffffffffff168173ffffffffffffffffffffffffffffffffffffffff16837f2f8788117e7eff1d82e926ec794901d17c78024a50270940304540a733656f0d60405160405180910390a45b5050565b600033905090565b6111c98282610b74565b1561129c57600080600084815260200190815260200160002060000160008373ffffffffffffffffffffffffffffffffffffffff1673ffffffffffffffffffffffffffffffffffffffff16815260200190815260200160002060006101000a81548160ff0219169083151502179055506112416111b7565b73ffffffffffffffffffffffffffffffffffffffff168173ffffffffffffffffffffffffffffffffffffffff16837ff6391f5c32d9c69d2a47ea670b442974b53935d1edc7fd64eb21e047a839171b60405160405180910390a45b5050565b60006064600454846112b29190611f52565b6112bc9190611f21565b9050600081846112cc9190611fac565b90508381836112db9190611ecb565b146112e557600080fd5b80600560008573ffffffffffffffffffffffffffffffffffffffff1673ffffffffffffffffffffffffffffffffffffffff16815260200190815260200160002060008282546113349190611ecb565b925050819055507f7a702e80a9c183a6ce9d6732991df2e914555ba35a364a70aed2433984e7544b838260405161136c929190611cdb565b60405180910390a18160056000600360009054906101000a900473ffffffffffffffffffffffffffffffffffffffff1673ffffffffffffffffffffffffffffffffffffffff1673ffffffffffffffffffffffffffffffffffffffff16815260200190815260200160002060008282546113e59190611ecb565b925050819055507f7a702e80a9c183a6ce9d6732991df2e914555ba35a364a70aed2433984e7544b600360009054906101000a900473ffffffffffffffffffffffffffffffffffffffff168360405161143f929190611cdb565b60405180910390a150505050565b6114578282610b74565b6114e65761147c8173ffffffffffffffffffffffffffffffffffffffff1660146114ea565b61148a8360001c60206114ea565b60405160200161149b929190611bd3565b6040516020818303038152906040526040517f08c379a00000000000000000000000000000000000000000000000000000000081526004016114dd9190611da1565b60405180910390fd5b5050565b6060600060028360026114fd9190611f52565b6115079190611ecb565b67ffffffffffffffff811115611546577f4e487b7100000000000000000000000000000000000000000000000000000000600052604160045260246000fd5b6040519080825280601f01601f1916602001820160405280156115785781602001600182028036833780820191505090505b5090507f3000000000000000000000000000000000000000000000000000000000000000816000815181106115d6577f4e487b7100000000000000000000000000000000000000000000000000000000600052603260045260246000fd5b60200101907effffffffffffffffffffffffffffffffffffffffffffffffffffffffffffff1916908160001a9053507f780000000000000000000000000000000000000000000000000000000000000081600181518110611660577f4e487b7100000000000000000000000000000000000000000000000000000000600052603260045260246000fd5b60200101907effffffffffffffffffffffffffffffffffffffffffffffffffffffffffffff1916908160001a905350600060018460026116a09190611f52565b6116aa9190611ecb565b90505b6001811115611796577f3031323334353637383961626364656600000000000000000000000000000000600f861660108110611712577f4e487b7100000000000000000000000000000000000000000000000000000000600052603260045260246000fd5b1a60f81b82828151811061174f577f4e487b7100000000000000000000000000000000000000000000000000000000600052603260045260246000fd5b60200101907effffffffffffffffffffffffffffffffffffffffffffffffffffffffffffff1916908160001a905350600485901c94508061178f906120d6565b90506116ad565b50600084146117da576040517f08c379a00000000000000000000000000000000000000000000000000000000081526004016117d190611df3565b60405180910390fd5b8091505092915050565b60006117f76117f284611e73565b611e4e565b90508281526020810184848401111561180f57600080fd5b61181a848285612094565b509392505050565b60008135905061183181612299565b92915050565b600081359050611846816122b0565b92915050565b60008135905061185b816122c7565b92915050565b600081359050611870816122de565b92915050565b600082601f83011261188757600080fd5b81356118978482602086016117e4565b91505092915050565b6000813590506118af816122f5565b92915050565b6000815190506118c4816122f5565b92915050565b6000602082840312156118dc57600080fd5b60006118ea84828501611822565b91505092915050565b60008060006060848603121561190857600080fd5b600061191686828701611822565b9350506020611927868287016118a0565b925050604084013567ffffffffffffffff81111561194457600080fd5b61195086828701611876565b9150509250925092565b60006020828403121561196c57600080fd5b600061197a84828501611837565b91505092915050565b6000806040838503121561199657600080fd5b60006119a485828601611837565b92505060206119b585828601611822565b9150509250929050565b6000602082840312156119d157600080fd5b60006119df8482850161184c565b91505092915050565b6000602082840312156119fa57600080fd5b6000611a0884828501611861565b91505092915050565b600060208284031215611a2357600080fd5b600082013567ffffffffffffffff811115611a3d57600080fd5b611a4984828501611876565b91505092915050565b600060208284031215611a6457600080fd5b6000611a72848285016118b5565b91505092915050565b611a8481611fe0565b82525050565b611a9381611ff2565b82525050565b611aa281611ffe565b82525050565b611ab181612070565b82525050565b6000611ac282611ea4565b611acc8185611eaf565b9350611adc8185602086016120a3565b611ae5816121be565b840191505092915050565b6000611afb82611ea4565b611b058185611ec0565b9350611b158185602086016120a3565b80840191505092915050565b6000611b2e602083611eaf565b9150611b39826121cf565b602082019050919050565b6000611b51601783611ec0565b9150611b5c826121f8565b601782019050919050565b6000611b74601183611ec0565b9150611b7f82612221565b601182019050919050565b6000611b97602f83611eaf565b9150611ba28261224a565b604082019050919050565b611bb681612066565b82525050565b6000611bc88284611af0565b915081905092915050565b6000611bde82611b44565b9150611bea8285611af0565b9150611bf582611b67565b9150611c018284611af0565b91508190509392505050565b6000602082019050611c226000830184611a7b565b92915050565b6000606082019050611c3d6000830186611a7b565b611c4a6020830185611a7b565b611c576040830184611bad565b949350505050565b6000608082019050611c746000830187611a7b565b611c816020830186611a7b565b611c8e6040830185611bad565b8181036060830152611ca08184611ab7565b905095945050505050565b6000604082019050611cc06000830185611a7b565b8181036020830152611cd28184611ab7565b90509392505050565b6000604082019050611cf06000830185611a7b565b611cfd6020830184611bad565b9392505050565b6000608082019050611d196000830187611a7b565b611d266020830186611bad565b8181036040830152611d388185611ab7565b9050611d476060830184611bad565b95945050505050565b6000602082019050611d656000830184611a8a565b92915050565b6000602082019050611d806000830184611a99565b92915050565b6000602082019050611d9b6000830184611aa8565b92915050565b60006020820190508181036000830152611dbb8184611ab7565b905092915050565b60006040820190508181036000830152611ddd8185611ab7565b9050611dec6020830184611bad565b9392505050565b60006020820190508181036000830152611e0c81611b21565b9050919050565b60006020820190508181036000830152611e2c81611b8a565b9050919050565b6000602082019050611e486000830184611bad565b92915050565b6000611e58611e69565b9050611e648282612100565b919050565b6000604051905090565b600067ffffffffffffffff821115611e8e57611e8d61218f565b5b611e97826121be565b9050602081019050919050565b600081519050919050565b600082825260208201905092915050565b600081905092915050565b6000611ed682612066565b9150611ee183612066565b9250827fffffffffffffffffffffffffffffffffffffffffffffffffffffffffffffffff03821115611f1657611f15612131565b5b828201905092915050565b6000611f2c82612066565b9150611f3783612066565b925082611f4757611f46612160565b5b828204905092915050565b6000611f5d82612066565b9150611f6883612066565b9250817fffffffffffffffffffffffffffffffffffffffffffffffffffffffffffffffff0483118215151615611fa157611fa0612131565b5b828202905092915050565b6000611fb782612066565b9150611fc283612066565b925082821015611fd557611fd4612131565b5b828203905092915050565b6000611feb82612046565b9050919050565b60008115159050919050565b6000819050919050565b60007fffffffff0000000000000000000000000000000000000000000000000000000082169050919050565b600061203f82611fe0565b9050919050565b600073ffffffffffffffffffffffffffffffffffffffff82169050919050565b6000819050919050565b600061207b82612082565b9050919050565b600061208d82612046565b9050919050565b82818337600083830152505050565b60005b838110156120c15780820151818401526020810190506120a6565b838111156120d0576000848401525b50505050565b60006120e182612066565b915060008214156120f5576120f4612131565b5b600182039050919050565b612109826121be565b810181811067ffffffffffffffff821117156121285761212761218f565b5b80604052505050565b7f4e487b7100000000000000000000000000000000000000000000000000000000600052601160045260246000fd5b7f4e487b7100000000000000000000000000000000000000000000000000000000600052601260045260246000fd5b7f4e487b7100000000000000000000000000000000000000000000000000000000600052604160045260246000fd5b6000601f19601f8301169050919050565b7f537472696e67733a20686578206c656e67746820696e73756666696369656e74600082015250565b7f416363657373436f6e74726f6c3a206163636f756e7420000000000000000000600082015250565b7f206973206d697373696e6720726f6c6520000000000000000000000000000000600082015250565b7f416363657373436f6e74726f6c3a2063616e206f6e6c792072656e6f756e636560008201527f20726f6c657320666f722073656c660000000000000000000000000000000000602082015250565b6122a281611fe0565b81146122ad57600080fd5b50565b6122b981611ffe565b81146122c457600080fd5b50565b6122d081612008565b81146122db57600080fd5b50565b6122e781612034565b81146122f257600080fd5b50565b6122fe81612066565b811461230957600080fd5b5056fea2646970667358221220b9c1b80976900e6d3acc2e7d77b21695ceb00b663ae809716d19c5876ae7418f64736f6c63430008040033",
  "linkReferences": {},
  "deployedLinkReferences": {}
}