{
  "_format": "hh-sol-artifact-1",
  "contractName": "Notary",
  "sourceName": "contracts/Notary.sol",
  "abi": [
    {
      "inputs": [],
      "stateMutability": "nonpayable",
      "type": "constructor"
    },
    {
      "inputs": [
        {
          "internalType": "string",
          "name": "metadataUri",
          "type": "string"
        },
        {
          "internalType": "uint256",
          "name": "amountSent",
          "type": "uint256"
        }
      ],
      "name": "IncorrectAmountSent",
      "type": "error"
    },
    {
      "inputs": [
        {
          "internalType": "string",
          "name": "metadataUri",
          "type": "string"
        }
      ],
      "name": "MinterNotAuthorized",
      "type": "error"
    },
    {
      "inputs": [
        {
          "internalType": "string",
          "name": "metadataUri",
          "type": "string"
        }
      ],
      "name": "TokenNotMintable",
      "type": "error"
    },
    {
      "anonymous": false,
      "inputs": [
        {
          "indexed": true,
          "internalType": "bytes32",
          "name": "role",
          "type": "bytes32"
        },
        {
          "indexed": true,
          "internalType": "bytes32",
          "name": "previousAdminRole",
          "type": "bytes32"
        },
        {
          "indexed": true,
          "internalType": "bytes32",
          "name": "newAdminRole",
          "type": "bytes32"
        }
      ],
      "name": "RoleAdminChanged",
      "type": "event"
    },
    {
      "anonymous": false,
      "inputs": [
        {
          "indexed": true,
          "internalType": "bytes32",
          "name": "role",
          "type": "bytes32"
        },
        {
          "indexed": true,
          "internalType": "address",
          "name": "account",
          "type": "address"
        },
        {
          "indexed": true,
          "internalType": "address",
          "name": "sender",
          "type": "address"
        }
      ],
      "name": "RoleGranted",
      "type": "event"
    },
    {
      "anonymous": false,
      "inputs": [
        {
          "indexed": true,
          "internalType": "bytes32",
          "name": "role",
          "type": "bytes32"
        },
        {
          "indexed": true,
          "internalType": "address",
          "name": "account",
          "type": "address"
        },
        {
          "indexed": true,
          "internalType": "address",
          "name": "sender",
          "type": "address"
        }
      ],
      "name": "RoleRevoked",
      "type": "event"
    },
    {
      "inputs": [],
      "name": "DEFAULT_ADMIN_ROLE",
      "outputs": [
        {
          "internalType": "bytes32",
          "name": "",
          "type": "bytes32"
        }
      ],
      "stateMutability": "view",
      "type": "function"
    },
    {
      "inputs": [],
      "name": "NOTARY_ROLE",
      "outputs": [
        {
          "internalType": "bytes32",
          "name": "",
          "type": "bytes32"
        }
      ],
      "stateMutability": "view",
      "type": "function"
    },
    {
      "inputs": [
        {
          "internalType": "address",
          "name": "_authorizedMinter",
          "type": "address"
        },
        {
          "internalType": "uint256",
          "name": "_mintingPrice",
          "type": "uint256"
        },
        {
          "internalType": "string",
          "name": "_metadataUrl",
          "type": "string"
        }
      ],
      "name": "createNotarizedDocument",
      "outputs": [],
      "stateMutability": "nonpayable",
      "type": "function"
    },
    {
      "inputs": [
        {
          "internalType": "bytes32",
          "name": "role",
          "type": "bytes32"
        }
      ],
      "name": "getRoleAdmin",
      "outputs": [
        {
          "internalType": "bytes32",
          "name": "",
          "type": "bytes32"
        }
      ],
      "stateMutability": "view",
      "type": "function"
    },
    {
      "inputs": [
        {
          "internalType": "bytes32",
          "name": "role",
          "type": "bytes32"
        },
        {
          "internalType": "address",
          "name": "account",
          "type": "address"
        }
      ],
      "name": "grantRole",
      "outputs": [],
      "stateMutability": "nonpayable",
      "type": "function"
    },
    {
      "inputs": [
        {
          "internalType": "bytes32",
          "name": "role",
          "type": "bytes32"
        },
        {
          "internalType": "address",
          "name": "account",
          "type": "address"
        }
      ],
      "name": "hasRole",
      "outputs": [
        {
          "internalType": "bool",
          "name": "",
          "type": "bool"
        }
      ],
      "stateMutability": "view",
      "type": "function"
    },
    {
      "inputs": [
        {
          "internalType": "string",
          "name": "_metadataUrl",
          "type": "string"
        }
      ],
      "name": "mint",
      "outputs": [],
      "stateMutability": "payable",
      "type": "function"
    },
    {
      "inputs": [
        {
          "internalType": "bytes32",
          "name": "role",
          "type": "bytes32"
        },
        {
          "internalType": "address",
          "name": "account",
          "type": "address"
        }
      ],
      "name": "renounceRole",
      "outputs": [],
      "stateMutability": "nonpayable",
      "type": "function"
    },
    {
      "inputs": [
        {
          "internalType": "bytes32",
          "name": "role",
          "type": "bytes32"
        },
        {
          "internalType": "address",
          "name": "account",
          "type": "address"
        }
      ],
      "name": "revokeRole",
      "outputs": [],
      "stateMutability": "nonpayable",
      "type": "function"
    },
    {
      "inputs": [
        {
          "internalType": "contract NotarizedDocumentNft",
          "name": "_ndn",
          "type": "address"
        }
      ],
      "name": "setNotarizedDocumentNftContact",
      "outputs": [],
      "stateMutability": "nonpayable",
      "type": "function"
    },
    {
      "inputs": [
        {
          "internalType": "bytes4",
          "name": "interfaceId",
          "type": "bytes4"
        }
      ],
      "name": "supportsInterface",
      "outputs": [
        {
          "internalType": "bool",
          "name": "",
          "type": "bool"
        }
      ],
      "stateMutability": "view",
      "type": "function"
    },
    {
      "inputs": [
        {
          "internalType": "string",
          "name": "",
          "type": "string"
        }
      ],
      "name": "unmintedToken",
      "outputs": [
        {
          "internalType": "address",
          "name": "authorizedMinter",
          "type": "address"
        },
        {
          "internalType": "uint256",
          "name": "costToMint",
          "type": "uint256"
        }
      ],
      "stateMutability": "view",
      "type": "function"
    }
  ],
  "bytecode": "0x60806040523480156200001157600080fd5b50620000276000801b336200002d60201b60201c565b620001a6565b6200003f82826200004360201b60201c565b5050565b6200005582826200013460201b60201c565b6200013057600160008084815260200190815260200160002060000160008373ffffffffffffffffffffffffffffffffffffffff1673ffffffffffffffffffffffffffffffffffffffff16815260200190815260200160002060006101000a81548160ff021916908315150217905550620000d56200019e60201b60201c565b73ffffffffffffffffffffffffffffffffffffffff168173ffffffffffffffffffffffffffffffffffffffff16837f2f8788117e7eff1d82e926ec794901d17c78024a50270940304540a733656f0d60405160405180910390a45b5050565b600080600084815260200190815260200160002060000160008373ffffffffffffffffffffffffffffffffffffffff1673ffffffffffffffffffffffffffffffffffffffff16815260200190815260200160002060009054906101000a900460ff16905092915050565b600033905090565b61180b80620001b66000396000f3fe6080604052600436106100a75760003560e01c806391d148541161006457806391d14854146101ca5780639f793d7414610207578063a217fddf14610245578063c48b0baa14610270578063d547741f1461029b578063d85d3d27146102c4576100a7565b806301ffc9a7146100ac578063248a9ca3146100e95780632f2ff15d1461012657806336568abe1461014f578063675f2d661461017857806387e6ae1f146101a1575b600080fd5b3480156100b857600080fd5b506100d360048036038101906100ce919061109f565b6102e0565b6040516100e09190611307565b60405180910390f35b3480156100f557600080fd5b50610110600480360381019061010b919061103a565b61035a565b60405161011d9190611322565b60405180910390f35b34801561013257600080fd5b5061014d60048036038101906101489190611063565b610379565b005b34801561015b57600080fd5b5061017660048036038101906101719190611063565b61039a565b005b34801561018457600080fd5b5061019f600480360381019061019a9190610fd3565b61041d565b005b3480156101ad57600080fd5b506101c860048036038101906101c391906110c8565b6104ea565b005b3480156101d657600080fd5b506101f160048036038101906101ec9190611063565b61053c565b6040516101fe9190611307565b60405180910390f35b34801561021357600080fd5b5061022e600480360381019061022991906110f1565b6105a6565b60405161023c9291906112de565b60405180910390f35b34801561025157600080fd5b5061025a610600565b6040516102679190611322565b60405180910390f35b34801561027c57600080fd5b50610285610607565b6040516102929190611322565b60405180910390f35b3480156102a757600080fd5b506102c260048036038101906102bd9190611063565b61062b565b005b6102de60048036038101906102d991906110f1565b61064c565b005b60007f7965db0b000000000000000000000000000000000000000000000000000000007bffffffffffffffffffffffffffffffffffffffffffffffffffffffff1916827bffffffffffffffffffffffffffffffffffffffffffffffffffffffff1916148061035357506103528261090f565b5b9050919050565b6000806000838152602001908152602001600020600101549050919050565b6103828261035a565b61038b81610979565b610395838361098d565b505050565b6103a2610a6d565b73ffffffffffffffffffffffffffffffffffffffff168173ffffffffffffffffffffffffffffffffffffffff161461040f576040517f08c379a0000000000000000000000000000000000000000000000000000000008152600401610406906113af565b60405180910390fd5b6104198282610a75565b5050565b7f014df5ee2861d7f34562399ffa112fc59b51f810d2b875c3609ba0c31ac873d061044781610979565b60405180604001604052808573ffffffffffffffffffffffffffffffffffffffff16815260200184815250600283604051610482919061128d565b908152602001604051809103902060008201518160000160006101000a81548173ffffffffffffffffffffffffffffffffffffffff021916908373ffffffffffffffffffffffffffffffffffffffff1602179055506020820151816001015590505050505050565b6000801b6104f781610979565b81600160006101000a81548173ffffffffffffffffffffffffffffffffffffffff021916908373ffffffffffffffffffffffffffffffffffffffff1602179055505050565b600080600084815260200190815260200160002060000160008373ffffffffffffffffffffffffffffffffffffffff1673ffffffffffffffffffffffffffffffffffffffff16815260200190815260200160002060009054906101000a900460ff16905092915050565b6002818051602081018201805184825260208301602085012081835280955050505050506000915090508060000160009054906101000a900473ffffffffffffffffffffffffffffffffffffffff16908060010154905082565b6000801b81565b7f014df5ee2861d7f34562399ffa112fc59b51f810d2b875c3609ba0c31ac873d081565b6106348261035a565b61063d81610979565b6106478383610a75565b505050565b600060028260405161065e919061128d565b90815260200160405180910390206040518060400160405290816000820160009054906101000a900473ffffffffffffffffffffffffffffffffffffffff1673ffffffffffffffffffffffffffffffffffffffff1673ffffffffffffffffffffffffffffffffffffffff1681526020016001820154815250509050600073ffffffffffffffffffffffffffffffffffffffff16816000015173ffffffffffffffffffffffffffffffffffffffff16141561074f57816040517f7f06ea98000000000000000000000000000000000000000000000000000000008152600401610746919061133d565b60405180910390fd5b3373ffffffffffffffffffffffffffffffffffffffff16816000015173ffffffffffffffffffffffffffffffffffffffff16146107c357816040517fbf78ac620000000000000000000000000000000000000000000000000000000081526004016107ba919061133d565b60405180910390fd5b3481602001511461080d5781346040517f6d3df79c00000000000000000000000000000000000000000000000000000000815260040161080492919061135f565b60405180910390fd5b600160009054906101000a900473ffffffffffffffffffffffffffffffffffffffff1673ffffffffffffffffffffffffffffffffffffffff1663d85d3d27836040518263ffffffff1660e01b8152600401610868919061133d565b602060405180830381600087803b15801561088257600080fd5b505af1158015610896573d6000803e3d6000fd5b505050506040513d601f19601f820116820180604052508101906108ba9190611132565b506002826040516108cb919061128d565b9081526020016040518091039020600080820160006101000a81549073ffffffffffffffffffffffffffffffffffffffff0219169055600182016000905550505050565b60007f01ffc9a7000000000000000000000000000000000000000000000000000000007bffffffffffffffffffffffffffffffffffffffffffffffffffffffff1916827bffffffffffffffffffffffffffffffffffffffffffffffffffffffff1916149050919050565b61098a81610985610a6d565b610b56565b50565b610997828261053c565b610a6957600160008084815260200190815260200160002060000160008373ffffffffffffffffffffffffffffffffffffffff1673ffffffffffffffffffffffffffffffffffffffff16815260200190815260200160002060006101000a81548160ff021916908315150217905550610a0e610a6d565b73ffffffffffffffffffffffffffffffffffffffff168173ffffffffffffffffffffffffffffffffffffffff16837f2f8788117e7eff1d82e926ec794901d17c78024a50270940304540a733656f0d60405160405180910390a45b5050565b600033905090565b610a7f828261053c565b15610b5257600080600084815260200190815260200160002060000160008373ffffffffffffffffffffffffffffffffffffffff1673ffffffffffffffffffffffffffffffffffffffff16815260200190815260200160002060006101000a81548160ff021916908315150217905550610af7610a6d565b73ffffffffffffffffffffffffffffffffffffffff168173ffffffffffffffffffffffffffffffffffffffff16837ff6391f5c32d9c69d2a47ea670b442974b53935d1edc7fd64eb21e047a839171b60405160405180910390a45b5050565b610b60828261053c565b610bef57610b858173ffffffffffffffffffffffffffffffffffffffff166014610bf3565b610b938360001c6020610bf3565b604051602001610ba49291906112a4565b6040516020818303038152906040526040517f08c379a0000000000000000000000000000000000000000000000000000000008152600401610be6919061133d565b60405180910390fd5b5050565b606060006002836002610c0691906114a2565b610c10919061144c565b67ffffffffffffffff811115610c4f577f4e487b7100000000000000000000000000000000000000000000000000000000600052604160045260246000fd5b6040519080825280601f01601f191660200182016040528015610c815781602001600182028036833780820191505090505b5090507f300000000000000000000000000000000000000000000000000000000000000081600081518110610cdf577f4e487b7100000000000000000000000000000000000000000000000000000000600052603260045260246000fd5b60200101907effffffffffffffffffffffffffffffffffffffffffffffffffffffffffffff1916908160001a9053507f780000000000000000000000000000000000000000000000000000000000000081600181518110610d69577f4e487b7100000000000000000000000000000000000000000000000000000000600052603260045260246000fd5b60200101907effffffffffffffffffffffffffffffffffffffffffffffffffffffffffffff1916908160001a90535060006001846002610da991906114a2565b610db3919061144c565b90505b6001811115610e9f577f3031323334353637383961626364656600000000000000000000000000000000600f861660108110610e1b577f4e487b7100000000000000000000000000000000000000000000000000000000600052603260045260246000fd5b1a60f81b828281518110610e58577f4e487b7100000000000000000000000000000000000000000000000000000000600052603260045260246000fd5b60200101907effffffffffffffffffffffffffffffffffffffffffffffffffffffffffffff1916908160001a905350600485901c945080610e98906115ce565b9050610db6565b5060008414610ee3576040517f08c379a0000000000000000000000000000000000000000000000000000000008152600401610eda9061138f565b60405180910390fd5b8091505092915050565b6000610f00610efb846113f4565b6113cf565b905082815260208101848484011115610f1857600080fd5b610f2384828561158c565b509392505050565b600081359050610f3a81611762565b92915050565b600081359050610f4f81611779565b92915050565b600081359050610f6481611790565b92915050565b600081359050610f79816117a7565b92915050565b600082601f830112610f9057600080fd5b8135610fa0848260208601610eed565b91505092915050565b600081359050610fb8816117be565b92915050565b600081519050610fcd816117be565b92915050565b600080600060608486031215610fe857600080fd5b6000610ff686828701610f2b565b935050602061100786828701610fa9565b925050604084013567ffffffffffffffff81111561102457600080fd5b61103086828701610f7f565b9150509250925092565b60006020828403121561104c57600080fd5b600061105a84828501610f40565b91505092915050565b6000806040838503121561107657600080fd5b600061108485828601610f40565b925050602061109585828601610f2b565b9150509250929050565b6000602082840312156110b157600080fd5b60006110bf84828501610f55565b91505092915050565b6000602082840312156110da57600080fd5b60006110e884828501610f6a565b91505092915050565b60006020828403121561110357600080fd5b600082013567ffffffffffffffff81111561111d57600080fd5b61112984828501610f7f565b91505092915050565b60006020828403121561114457600080fd5b600061115284828501610fbe565b91505092915050565b611164816114fc565b82525050565b6111738161150e565b82525050565b6111828161151a565b82525050565b600061119382611425565b61119d8185611430565b93506111ad81856020860161159b565b6111b681611687565b840191505092915050565b60006111cc82611425565b6111d68185611441565b93506111e681856020860161159b565b80840191505092915050565b60006111ff602083611430565b915061120a82611698565b602082019050919050565b6000611222601783611441565b915061122d826116c1565b601782019050919050565b6000611245601183611441565b9150611250826116ea565b601182019050919050565b6000611268602f83611430565b915061127382611713565b604082019050919050565b61128781611582565b82525050565b600061129982846111c1565b915081905092915050565b60006112af82611215565b91506112bb82856111c1565b91506112c682611238565b91506112d282846111c1565b91508190509392505050565b60006040820190506112f3600083018561115b565b611300602083018461127e565b9392505050565b600060208201905061131c600083018461116a565b92915050565b60006020820190506113376000830184611179565b92915050565b600060208201905081810360008301526113578184611188565b905092915050565b600060408201905081810360008301526113798185611188565b9050611388602083018461127e565b9392505050565b600060208201905081810360008301526113a8816111f2565b9050919050565b600060208201905081810360008301526113c88161125b565b9050919050565b60006113d96113ea565b90506113e582826115f8565b919050565b6000604051905090565b600067ffffffffffffffff82111561140f5761140e611658565b5b61141882611687565b9050602081019050919050565b600081519050919050565b600082825260208201905092915050565b600081905092915050565b600061145782611582565b915061146283611582565b9250827fffffffffffffffffffffffffffffffffffffffffffffffffffffffffffffffff0382111561149757611496611629565b5b828201905092915050565b60006114ad82611582565b91506114b883611582565b9250817fffffffffffffffffffffffffffffffffffffffffffffffffffffffffffffffff04831182151516156114f1576114f0611629565b5b828202905092915050565b600061150782611562565b9050919050565b60008115159050919050565b6000819050919050565b60007fffffffff0000000000000000000000000000000000000000000000000000000082169050919050565b600061155b826114fc565b9050919050565b600073ffffffffffffffffffffffffffffffffffffffff82169050919050565b6000819050919050565b82818337600083830152505050565b60005b838110156115b957808201518184015260208101905061159e565b838111156115c8576000848401525b50505050565b60006115d982611582565b915060008214156115ed576115ec611629565b5b600182039050919050565b61160182611687565b810181811067ffffffffffffffff821117156116205761161f611658565b5b80604052505050565b7f4e487b7100000000000000000000000000000000000000000000000000000000600052601160045260246000fd5b7f4e487b7100000000000000000000000000000000000000000000000000000000600052604160045260246000fd5b6000601f19601f8301169050919050565b7f537472696e67733a20686578206c656e67746820696e73756666696369656e74600082015250565b7f416363657373436f6e74726f6c3a206163636f756e7420000000000000000000600082015250565b7f206973206d697373696e6720726f6c6520000000000000000000000000000000600082015250565b7f416363657373436f6e74726f6c3a2063616e206f6e6c792072656e6f756e636560008201527f20726f6c657320666f722073656c660000000000000000000000000000000000602082015250565b61176b816114fc565b811461177657600080fd5b50565b6117828161151a565b811461178d57600080fd5b50565b61179981611524565b81146117a457600080fd5b50565b6117b081611550565b81146117bb57600080fd5b50565b6117c781611582565b81146117d257600080fd5b5056fea2646970667358221220ef84aa943b7b477d733423bd8a4263bafdb6bede64baa40e506cc561d320bcea64736f6c63430008040033",
  "linkReferences": {},
  "deployedLinkReferences": {}
}