{
  "_format": "hh-sol-artifact-1",
  "contractName": "Notary",
  "sourceName": "contracts/Notary.sol",
  "abi": [
    {
      "inputs": [],
      "stateMutability": "nonpayable",
      "type": "constructor"
    },
    {
      "inputs": [
        {
          "internalType": "string",
          "name": "metadataUri",
          "type": "string"
        },
        {
          "internalType": "uint256",
          "name": "amountSent",
          "type": "uint256"
        }
      ],
      "name": "IncorrectAmountSent",
      "type": "error"
    },
    {
      "inputs": [
        {
          "internalType": "string",
          "name": "metadataUri",
          "type": "string"
        }
      ],
      "name": "MinterNotAuthorized",
      "type": "error"
    },
    {
      "inputs": [
        {
          "internalType": "string",
          "name": "metadataUri",
          "type": "string"
        }
      ],
      "name": "TokenNotMintable",
      "type": "error"
    },
    {
      "anonymous": false,
      "inputs": [
        {
          "indexed": false,
          "internalType": "address",
          "name": "notary",
          "type": "address"
        },
        {
          "indexed": false,
          "internalType": "address",
          "name": "authorizedMinter",
          "type": "address"
        },
        {
          "indexed": false,
          "internalType": "uint256",
          "name": "price",
          "type": "uint256"
        },
        {
          "indexed": false,
          "internalType": "string",
          "name": "metadataUrl",
          "type": "string"
        }
      ],
      "name": "NotarizedDocumentCreated",
      "type": "event"
    },
    {
      "anonymous": false,
      "inputs": [
        {
          "indexed": false,
          "internalType": "address",
          "name": "authorizedMinter",
          "type": "address"
        },
        {
          "indexed": false,
          "internalType": "uint256",
          "name": "price",
          "type": "uint256"
        },
        {
          "indexed": false,
          "internalType": "string",
          "name": "metadataUrl",
          "type": "string"
        },
        {
          "indexed": false,
          "internalType": "uint256",
          "name": "tokenId",
          "type": "uint256"
        }
      ],
      "name": "NotarizedDocumentNftMinted",
      "type": "event"
    },
    {
      "anonymous": false,
      "inputs": [
        {
          "indexed": true,
          "internalType": "bytes32",
          "name": "role",
          "type": "bytes32"
        },
        {
          "indexed": true,
          "internalType": "bytes32",
          "name": "previousAdminRole",
          "type": "bytes32"
        },
        {
          "indexed": true,
          "internalType": "bytes32",
          "name": "newAdminRole",
          "type": "bytes32"
        }
      ],
      "name": "RoleAdminChanged",
      "type": "event"
    },
    {
      "anonymous": false,
      "inputs": [
        {
          "indexed": true,
          "internalType": "bytes32",
          "name": "role",
          "type": "bytes32"
        },
        {
          "indexed": true,
          "internalType": "address",
          "name": "account",
          "type": "address"
        },
        {
          "indexed": true,
          "internalType": "address",
          "name": "sender",
          "type": "address"
        }
      ],
      "name": "RoleGranted",
      "type": "event"
    },
    {
      "anonymous": false,
      "inputs": [
        {
          "indexed": true,
          "internalType": "bytes32",
          "name": "role",
          "type": "bytes32"
        },
        {
          "indexed": true,
          "internalType": "address",
          "name": "account",
          "type": "address"
        },
        {
          "indexed": true,
          "internalType": "address",
          "name": "sender",
          "type": "address"
        }
      ],
      "name": "RoleRevoked",
      "type": "event"
    },
    {
      "inputs": [],
      "name": "DEFAULT_ADMIN_ROLE",
      "outputs": [
        {
          "internalType": "bytes32",
          "name": "",
          "type": "bytes32"
        }
      ],
      "stateMutability": "view",
      "type": "function"
    },
    {
      "inputs": [],
      "name": "NOTARY_ROLE",
      "outputs": [
        {
          "internalType": "bytes32",
          "name": "",
          "type": "bytes32"
        }
      ],
      "stateMutability": "view",
      "type": "function"
    },
    {
      "inputs": [
        {
          "internalType": "address",
          "name": "_authorizedMinter",
          "type": "address"
        },
        {
          "internalType": "uint256",
          "name": "_mintingPrice",
          "type": "uint256"
        },
        {
          "internalType": "string",
          "name": "_metadataUrl",
          "type": "string"
        }
      ],
      "name": "createNotarizedDocument",
      "outputs": [],
      "stateMutability": "nonpayable",
      "type": "function"
    },
    {
      "inputs": [
        {
          "internalType": "bytes32",
          "name": "role",
          "type": "bytes32"
        }
      ],
      "name": "getRoleAdmin",
      "outputs": [
        {
          "internalType": "bytes32",
          "name": "",
          "type": "bytes32"
        }
      ],
      "stateMutability": "view",
      "type": "function"
    },
    {
      "inputs": [
        {
          "internalType": "bytes32",
          "name": "role",
          "type": "bytes32"
        },
        {
          "internalType": "address",
          "name": "account",
          "type": "address"
        }
      ],
      "name": "grantRole",
      "outputs": [],
      "stateMutability": "nonpayable",
      "type": "function"
    },
    {
      "inputs": [
        {
          "internalType": "bytes32",
          "name": "role",
          "type": "bytes32"
        },
        {
          "internalType": "address",
          "name": "account",
          "type": "address"
        }
      ],
      "name": "hasRole",
      "outputs": [
        {
          "internalType": "bool",
          "name": "",
          "type": "bool"
        }
      ],
      "stateMutability": "view",
      "type": "function"
    },
    {
      "inputs": [
        {
          "internalType": "string",
          "name": "_metadataUrl",
          "type": "string"
        }
      ],
      "name": "mint",
      "outputs": [
        {
          "internalType": "uint256",
          "name": "tokenId",
          "type": "uint256"
        }
      ],
      "stateMutability": "payable",
      "type": "function"
    },
    {
      "inputs": [],
      "name": "ndn",
      "outputs": [
        {
          "internalType": "contract NotarizedDocumentNft",
          "name": "",
          "type": "address"
        }
      ],
      "stateMutability": "view",
      "type": "function"
    },
    {
      "inputs": [
        {
          "internalType": "bytes32",
          "name": "role",
          "type": "bytes32"
        },
        {
          "internalType": "address",
          "name": "account",
          "type": "address"
        }
      ],
      "name": "renounceRole",
      "outputs": [],
      "stateMutability": "nonpayable",
      "type": "function"
    },
    {
      "inputs": [
        {
          "internalType": "bytes32",
          "name": "role",
          "type": "bytes32"
        },
        {
          "internalType": "address",
          "name": "account",
          "type": "address"
        }
      ],
      "name": "revokeRole",
      "outputs": [],
      "stateMutability": "nonpayable",
      "type": "function"
    },
    {
      "inputs": [
        {
          "internalType": "contract NotarizedDocumentNft",
          "name": "_ndn",
          "type": "address"
        }
      ],
      "name": "setNotarizedDocumentNftContact",
      "outputs": [],
      "stateMutability": "nonpayable",
      "type": "function"
    },
    {
      "inputs": [
        {
          "internalType": "bytes4",
          "name": "interfaceId",
          "type": "bytes4"
        }
      ],
      "name": "supportsInterface",
      "outputs": [
        {
          "internalType": "bool",
          "name": "",
          "type": "bool"
        }
      ],
      "stateMutability": "view",
      "type": "function"
    },
    {
      "inputs": [
        {
          "internalType": "string",
          "name": "",
          "type": "string"
        }
      ],
      "name": "unmintedToken",
      "outputs": [
        {
          "internalType": "address",
          "name": "authorizedMinter",
          "type": "address"
        },
        {
          "internalType": "uint256",
          "name": "costToMint",
          "type": "uint256"
        }
      ],
      "stateMutability": "view",
      "type": "function"
    }
  ],
  "bytecode": "0x60806040523480156200001157600080fd5b50620000276000801b336200002d60201b60201c565b620001a6565b6200003f82826200004360201b60201c565b5050565b6200005582826200013460201b60201c565b6200013057600160008084815260200190815260200160002060000160008373ffffffffffffffffffffffffffffffffffffffff1673ffffffffffffffffffffffffffffffffffffffff16815260200190815260200160002060006101000a81548160ff021916908315150217905550620000d56200019e60201b60201c565b73ffffffffffffffffffffffffffffffffffffffff168173ffffffffffffffffffffffffffffffffffffffff16837f2f8788117e7eff1d82e926ec794901d17c78024a50270940304540a733656f0d60405160405180910390a45b5050565b600080600084815260200190815260200160002060000160008373ffffffffffffffffffffffffffffffffffffffff1673ffffffffffffffffffffffffffffffffffffffff16815260200190815260200160002060009054906101000a900460ff16905092915050565b600033905090565b611a3c80620001b66000396000f3fe6080604052600436106100c25760003560e01c806387e6ae1f1161007f578063a217fddf11610059578063a217fddf1461028b578063c48b0baa146102b6578063d547741f146102e1578063d85d3d271461030a576100c2565b806387e6ae1f146101e757806391d14854146102105780639f793d741461024d576100c2565b806301ffc9a7146100c7578063248a9ca31461010457806326051307146101415780632f2ff15d1461016c57806336568abe14610195578063675f2d66146101be575b600080fd5b3480156100d357600080fd5b506100ee60048036038101906100e9919061119f565b61033a565b6040516100fb91906114de565b60405180910390f35b34801561011057600080fd5b5061012b6004803603810190610126919061113a565b6103b4565b60405161013891906114f9565b60405180910390f35b34801561014d57600080fd5b506101566103d3565b6040516101639190611514565b60405180910390f35b34801561017857600080fd5b50610193600480360381019061018e9190611163565b6103f9565b005b3480156101a157600080fd5b506101bc60048036038101906101b79190611163565b61041a565b005b3480156101ca57600080fd5b506101e560048036038101906101e091906110d3565b61049d565b005b3480156101f357600080fd5b5061020e600480360381019061020991906111c8565b6105a7565b005b34801561021c57600080fd5b5061023760048036038101906102329190611163565b6105f9565b60405161024491906114de565b60405180910390f35b34801561025957600080fd5b50610274600480360381019061026f91906111f1565b610663565b604051610282929190611469565b60405180910390f35b34801561029757600080fd5b506102a06106bd565b6040516102ad91906114f9565b60405180910390f35b3480156102c257600080fd5b506102cb6106c4565b6040516102d891906114f9565b60405180910390f35b3480156102ed57600080fd5b5061030860048036038101906103039190611163565b6106e8565b005b610324600480360381019061031f91906111f1565b610709565b60405161033191906115c1565b60405180910390f35b60007f7965db0b000000000000000000000000000000000000000000000000000000007bffffffffffffffffffffffffffffffffffffffffffffffffffffffff1916827bffffffffffffffffffffffffffffffffffffffffffffffffffffffff191614806103ad57506103ac82610a0f565b5b9050919050565b6000806000838152602001908152602001600020600101549050919050565b600160009054906101000a900473ffffffffffffffffffffffffffffffffffffffff1681565b610402826103b4565b61040b81610a79565b6104158383610a8d565b505050565b610422610b6d565b73ffffffffffffffffffffffffffffffffffffffff168173ffffffffffffffffffffffffffffffffffffffff161461048f576040517f08c379a0000000000000000000000000000000000000000000000000000000008152600401610486906115a1565b60405180910390fd5b6104998282610b75565b5050565b7f014df5ee2861d7f34562399ffa112fc59b51f810d2b875c3609ba0c31ac873d06104c781610a79565b60405180604001604052808573ffffffffffffffffffffffffffffffffffffffff16815260200184815250600283604051610502919061139c565b908152602001604051809103902060008201518160000160006101000a81548173ffffffffffffffffffffffffffffffffffffffff021916908373ffffffffffffffffffffffffffffffffffffffff160217905550602082015181600101559050507f18aafd4480e90a5cd4bf3236e30e81887f45c682abe7fcbe4639bf092259e0593385858560405161059994939291906113ed565b60405180910390a150505050565b6000801b6105b481610a79565b81600160006101000a81548173ffffffffffffffffffffffffffffffffffffffff021916908373ffffffffffffffffffffffffffffffffffffffff1602179055505050565b600080600084815260200190815260200160002060000160008373ffffffffffffffffffffffffffffffffffffffff1673ffffffffffffffffffffffffffffffffffffffff16815260200190815260200160002060009054906101000a900460ff16905092915050565b6002818051602081018201805184825260208301602085012081835280955050505050506000915090508060000160009054906101000a900473ffffffffffffffffffffffffffffffffffffffff16908060010154905082565b6000801b81565b7f014df5ee2861d7f34562399ffa112fc59b51f810d2b875c3609ba0c31ac873d081565b6106f1826103b4565b6106fa81610a79565b6107048383610b75565b505050565b60008060028360405161071c919061139c565b90815260200160405180910390206040518060400160405290816000820160009054906101000a900473ffffffffffffffffffffffffffffffffffffffff1673ffffffffffffffffffffffffffffffffffffffff1673ffffffffffffffffffffffffffffffffffffffff1681526020016001820154815250509050600073ffffffffffffffffffffffffffffffffffffffff16816000015173ffffffffffffffffffffffffffffffffffffffff16141561080d57826040517f7f06ea98000000000000000000000000000000000000000000000000000000008152600401610804919061152f565b60405180910390fd5b3373ffffffffffffffffffffffffffffffffffffffff16816000015173ffffffffffffffffffffffffffffffffffffffff161461088157826040517fbf78ac62000000000000000000000000000000000000000000000000000000008152600401610878919061152f565b60405180910390fd5b348160200151146108cb5782346040517f6d3df79c0000000000000000000000000000000000000000000000000000000081526004016108c2929190611551565b60405180910390fd5b600160009054906101000a900473ffffffffffffffffffffffffffffffffffffffff1673ffffffffffffffffffffffffffffffffffffffff1663d0def52133856040518363ffffffff1660e01b8152600401610928929190611439565b602060405180830381600087803b15801561094257600080fd5b505af1158015610956573d6000803e3d6000fd5b505050506040513d601f19601f8201168201806040525081019061097a9190611232565b915060028360405161098c919061139c565b9081526020016040518091039020600080820160006101000a81549073ffffffffffffffffffffffffffffffffffffffff0219169055600182016000905550507f4127146f91ac45d59f3999d0585a57612b8be0589d86909e0399fbd1d10c634233348585604051610a019493929190611492565b60405180910390a150919050565b60007f01ffc9a7000000000000000000000000000000000000000000000000000000007bffffffffffffffffffffffffffffffffffffffffffffffffffffffff1916827bffffffffffffffffffffffffffffffffffffffffffffffffffffffff1916149050919050565b610a8a81610a85610b6d565b610c56565b50565b610a9782826105f9565b610b6957600160008084815260200190815260200160002060000160008373ffffffffffffffffffffffffffffffffffffffff1673ffffffffffffffffffffffffffffffffffffffff16815260200190815260200160002060006101000a81548160ff021916908315150217905550610b0e610b6d565b73ffffffffffffffffffffffffffffffffffffffff168173ffffffffffffffffffffffffffffffffffffffff16837f2f8788117e7eff1d82e926ec794901d17c78024a50270940304540a733656f0d60405160405180910390a45b5050565b600033905090565b610b7f82826105f9565b15610c5257600080600084815260200190815260200160002060000160008373ffffffffffffffffffffffffffffffffffffffff1673ffffffffffffffffffffffffffffffffffffffff16815260200190815260200160002060006101000a81548160ff021916908315150217905550610bf7610b6d565b73ffffffffffffffffffffffffffffffffffffffff168173ffffffffffffffffffffffffffffffffffffffff16837ff6391f5c32d9c69d2a47ea670b442974b53935d1edc7fd64eb21e047a839171b60405160405180910390a45b5050565b610c6082826105f9565b610cef57610c858173ffffffffffffffffffffffffffffffffffffffff166014610cf3565b610c938360001c6020610cf3565b604051602001610ca49291906113b3565b6040516020818303038152906040526040517f08c379a0000000000000000000000000000000000000000000000000000000008152600401610ce6919061152f565b60405180910390fd5b5050565b606060006002836002610d0691906116af565b610d109190611659565b67ffffffffffffffff811115610d4f577f4e487b7100000000000000000000000000000000000000000000000000000000600052604160045260246000fd5b6040519080825280601f01601f191660200182016040528015610d815781602001600182028036833780820191505090505b5090507f300000000000000000000000000000000000000000000000000000000000000081600081518110610ddf577f4e487b7100000000000000000000000000000000000000000000000000000000600052603260045260246000fd5b60200101907effffffffffffffffffffffffffffffffffffffffffffffffffffffffffffff1916908160001a9053507f780000000000000000000000000000000000000000000000000000000000000081600181518110610e69577f4e487b7100000000000000000000000000000000000000000000000000000000600052603260045260246000fd5b60200101907effffffffffffffffffffffffffffffffffffffffffffffffffffffffffffff1916908160001a90535060006001846002610ea991906116af565b610eb39190611659565b90505b6001811115610f9f577f3031323334353637383961626364656600000000000000000000000000000000600f861660108110610f1b577f4e487b7100000000000000000000000000000000000000000000000000000000600052603260045260246000fd5b1a60f81b828281518110610f58577f4e487b7100000000000000000000000000000000000000000000000000000000600052603260045260246000fd5b60200101907effffffffffffffffffffffffffffffffffffffffffffffffffffffffffffff1916908160001a905350600485901c945080610f98906117ff565b9050610eb6565b5060008414610fe3576040517f08c379a0000000000000000000000000000000000000000000000000000000008152600401610fda90611581565b60405180910390fd5b8091505092915050565b6000611000610ffb84611601565b6115dc565b90508281526020810184848401111561101857600080fd5b6110238482856117bd565b509392505050565b60008135905061103a81611993565b92915050565b60008135905061104f816119aa565b92915050565b600081359050611064816119c1565b92915050565b600081359050611079816119d8565b92915050565b600082601f83011261109057600080fd5b81356110a0848260208601610fed565b91505092915050565b6000813590506110b8816119ef565b92915050565b6000815190506110cd816119ef565b92915050565b6000806000606084860312156110e857600080fd5b60006110f68682870161102b565b9350506020611107868287016110a9565b925050604084013567ffffffffffffffff81111561112457600080fd5b6111308682870161107f565b9150509250925092565b60006020828403121561114c57600080fd5b600061115a84828501611040565b91505092915050565b6000806040838503121561117657600080fd5b600061118485828601611040565b92505060206111958582860161102b565b9150509250929050565b6000602082840312156111b157600080fd5b60006111bf84828501611055565b91505092915050565b6000602082840312156111da57600080fd5b60006111e88482850161106a565b91505092915050565b60006020828403121561120357600080fd5b600082013567ffffffffffffffff81111561121d57600080fd5b6112298482850161107f565b91505092915050565b60006020828403121561124457600080fd5b6000611252848285016110be565b91505092915050565b61126481611709565b82525050565b6112738161171b565b82525050565b61128281611727565b82525050565b61129181611799565b82525050565b60006112a282611632565b6112ac818561163d565b93506112bc8185602086016117cc565b6112c5816118b8565b840191505092915050565b60006112db82611632565b6112e5818561164e565b93506112f58185602086016117cc565b80840191505092915050565b600061130e60208361163d565b9150611319826118c9565b602082019050919050565b600061133160178361164e565b915061133c826118f2565b601782019050919050565b600061135460118361164e565b915061135f8261191b565b601182019050919050565b6000611377602f8361163d565b915061138282611944565b604082019050919050565b6113968161178f565b82525050565b60006113a882846112d0565b915081905092915050565b60006113be82611324565b91506113ca82856112d0565b91506113d582611347565b91506113e182846112d0565b91508190509392505050565b6000608082019050611402600083018761125b565b61140f602083018661125b565b61141c604083018561138d565b818103606083015261142e8184611297565b905095945050505050565b600060408201905061144e600083018561125b565b81810360208301526114608184611297565b90509392505050565b600060408201905061147e600083018561125b565b61148b602083018461138d565b9392505050565b60006080820190506114a7600083018761125b565b6114b4602083018661138d565b81810360408301526114c68185611297565b90506114d5606083018461138d565b95945050505050565b60006020820190506114f3600083018461126a565b92915050565b600060208201905061150e6000830184611279565b92915050565b60006020820190506115296000830184611288565b92915050565b600060208201905081810360008301526115498184611297565b905092915050565b6000604082019050818103600083015261156b8185611297565b905061157a602083018461138d565b9392505050565b6000602082019050818103600083015261159a81611301565b9050919050565b600060208201905081810360008301526115ba8161136a565b9050919050565b60006020820190506115d6600083018461138d565b92915050565b60006115e66115f7565b90506115f28282611829565b919050565b6000604051905090565b600067ffffffffffffffff82111561161c5761161b611889565b5b611625826118b8565b9050602081019050919050565b600081519050919050565b600082825260208201905092915050565b600081905092915050565b60006116648261178f565b915061166f8361178f565b9250827fffffffffffffffffffffffffffffffffffffffffffffffffffffffffffffffff038211156116a4576116a361185a565b5b828201905092915050565b60006116ba8261178f565b91506116c58361178f565b9250817fffffffffffffffffffffffffffffffffffffffffffffffffffffffffffffffff04831182151516156116fe576116fd61185a565b5b828202905092915050565b60006117148261176f565b9050919050565b60008115159050919050565b6000819050919050565b60007fffffffff0000000000000000000000000000000000000000000000000000000082169050919050565b600061176882611709565b9050919050565b600073ffffffffffffffffffffffffffffffffffffffff82169050919050565b6000819050919050565b60006117a4826117ab565b9050919050565b60006117b68261176f565b9050919050565b82818337600083830152505050565b60005b838110156117ea5780820151818401526020810190506117cf565b838111156117f9576000848401525b50505050565b600061180a8261178f565b9150600082141561181e5761181d61185a565b5b600182039050919050565b611832826118b8565b810181811067ffffffffffffffff8211171561185157611850611889565b5b80604052505050565b7f4e487b7100000000000000000000000000000000000000000000000000000000600052601160045260246000fd5b7f4e487b7100000000000000000000000000000000000000000000000000000000600052604160045260246000fd5b6000601f19601f8301169050919050565b7f537472696e67733a20686578206c656e67746820696e73756666696369656e74600082015250565b7f416363657373436f6e74726f6c3a206163636f756e7420000000000000000000600082015250565b7f206973206d697373696e6720726f6c6520000000000000000000000000000000600082015250565b7f416363657373436f6e74726f6c3a2063616e206f6e6c792072656e6f756e636560008201527f20726f6c657320666f722073656c660000000000000000000000000000000000602082015250565b61199c81611709565b81146119a757600080fd5b50565b6119b381611727565b81146119be57600080fd5b50565b6119ca81611731565b81146119d557600080fd5b50565b6119e18161175d565b81146119ec57600080fd5b50565b6119f88161178f565b8114611a0357600080fd5b5056fea26469706673582212207ddce27ca1cc4a44af57d71838b8e3f4bbbbde179d71b1c922ae285decabc7c164736f6c63430008040033",
  "linkReferences": {},
  "deployedLinkReferences": {}
}