{
  "_format": "hh-sol-artifact-1",
  "contractName": "DocumentPermissionNft",
  "sourceName": "contracts/DocumentPermissionNft.sol",
  "abi": [
    {
      "inputs": [],
      "stateMutability": "nonpayable",
      "type": "constructor"
    },
    {
      "anonymous": false,
      "inputs": [
        {
          "indexed": true,
          "internalType": "address",
          "name": "owner",
          "type": "address"
        },
        {
          "indexed": true,
          "internalType": "address",
          "name": "approved",
          "type": "address"
        },
        {
          "indexed": true,
          "internalType": "uint256",
          "name": "tokenId",
          "type": "uint256"
        }
      ],
      "name": "Approval",
      "type": "event"
    },
    {
      "anonymous": false,
      "inputs": [
        {
          "indexed": true,
          "internalType": "address",
          "name": "owner",
          "type": "address"
        },
        {
          "indexed": true,
          "internalType": "address",
          "name": "operator",
          "type": "address"
        },
        {
          "indexed": false,
          "internalType": "bool",
          "name": "approved",
          "type": "bool"
        }
      ],
      "name": "ApprovalForAll",
      "type": "event"
    },
    {
      "anonymous": false,
      "inputs": [
        {
          "indexed": true,
          "internalType": "address",
          "name": "previousOwner",
          "type": "address"
        },
        {
          "indexed": true,
          "internalType": "address",
          "name": "newOwner",
          "type": "address"
        }
      ],
      "name": "OwnershipTransferred",
      "type": "event"
    },
    {
      "anonymous": false,
      "inputs": [
        {
          "indexed": true,
          "internalType": "address",
          "name": "from",
          "type": "address"
        },
        {
          "indexed": true,
          "internalType": "address",
          "name": "to",
          "type": "address"
        },
        {
          "indexed": true,
          "internalType": "uint256",
          "name": "tokenId",
          "type": "uint256"
        }
      ],
      "name": "Transfer",
      "type": "event"
    },
    {
      "inputs": [
        {
          "internalType": "address",
          "name": "to",
          "type": "address"
        },
        {
          "internalType": "uint256",
          "name": "tokenId",
          "type": "uint256"
        }
      ],
      "name": "approve",
      "outputs": [],
      "stateMutability": "nonpayable",
      "type": "function"
    },
    {
      "inputs": [
        {
          "internalType": "address",
          "name": "owner",
          "type": "address"
        }
      ],
      "name": "balanceOf",
      "outputs": [
        {
          "internalType": "uint256",
          "name": "",
          "type": "uint256"
        }
      ],
      "stateMutability": "view",
      "type": "function"
    },
    {
      "inputs": [
        {
          "internalType": "address",
          "name": "to",
          "type": "address"
        },
        {
          "internalType": "uint256",
          "name": "documentTokenId",
          "type": "uint256"
        }
      ],
      "name": "burn",
      "outputs": [],
      "stateMutability": "nonpayable",
      "type": "function"
    },
    {
      "inputs": [
        {
          "internalType": "uint256",
          "name": "tokenId",
          "type": "uint256"
        }
      ],
      "name": "getApproved",
      "outputs": [
        {
          "internalType": "address",
          "name": "",
          "type": "address"
        }
      ],
      "stateMutability": "view",
      "type": "function"
    },
    {
      "inputs": [
        {
          "internalType": "address",
          "name": "to",
          "type": "address"
        },
        {
          "internalType": "uint256",
          "name": "documentTokenId",
          "type": "uint256"
        }
      ],
      "name": "getTokenId",
      "outputs": [
        {
          "internalType": "uint256",
          "name": "tokenId",
          "type": "uint256"
        }
      ],
      "stateMutability": "pure",
      "type": "function"
    },
    {
      "inputs": [
        {
          "internalType": "address",
          "name": "owner",
          "type": "address"
        },
        {
          "internalType": "address",
          "name": "operator",
          "type": "address"
        }
      ],
      "name": "isApprovedForAll",
      "outputs": [
        {
          "internalType": "bool",
          "name": "",
          "type": "bool"
        }
      ],
      "stateMutability": "view",
      "type": "function"
    },
    {
      "inputs": [
        {
          "internalType": "address",
          "name": "to",
          "type": "address"
        },
        {
          "internalType": "uint256",
          "name": "documentTokenId",
          "type": "uint256"
        }
      ],
      "name": "mint",
      "outputs": [
        {
          "internalType": "uint256",
          "name": "tokenId",
          "type": "uint256"
        }
      ],
      "stateMutability": "nonpayable",
      "type": "function"
    },
    {
      "inputs": [],
      "name": "name",
      "outputs": [
        {
          "internalType": "string",
          "name": "",
          "type": "string"
        }
      ],
      "stateMutability": "view",
      "type": "function"
    },
    {
      "inputs": [
        {
          "internalType": "uint256",
          "name": "",
          "type": "uint256"
        }
      ],
      "name": "notarizedDocument",
      "outputs": [
        {
          "internalType": "uint256",
          "name": "",
          "type": "uint256"
        }
      ],
      "stateMutability": "view",
      "type": "function"
    },
    {
      "inputs": [],
      "name": "owner",
      "outputs": [
        {
          "internalType": "address",
          "name": "",
          "type": "address"
        }
      ],
      "stateMutability": "view",
      "type": "function"
    },
    {
      "inputs": [
        {
          "internalType": "uint256",
          "name": "tokenId",
          "type": "uint256"
        }
      ],
      "name": "ownerOf",
      "outputs": [
        {
          "internalType": "address",
          "name": "",
          "type": "address"
        }
      ],
      "stateMutability": "view",
      "type": "function"
    },
    {
      "inputs": [],
      "name": "renounceOwnership",
      "outputs": [],
      "stateMutability": "nonpayable",
      "type": "function"
    },
    {
      "inputs": [
        {
          "internalType": "address",
          "name": "from",
          "type": "address"
        },
        {
          "internalType": "address",
          "name": "to",
          "type": "address"
        },
        {
          "internalType": "uint256",
          "name": "tokenId",
          "type": "uint256"
        }
      ],
      "name": "safeTransferFrom",
      "outputs": [],
      "stateMutability": "nonpayable",
      "type": "function"
    },
    {
      "inputs": [
        {
          "internalType": "address",
          "name": "from",
          "type": "address"
        },
        {
          "internalType": "address",
          "name": "to",
          "type": "address"
        },
        {
          "internalType": "uint256",
          "name": "tokenId",
          "type": "uint256"
        },
        {
          "internalType": "bytes",
          "name": "data",
          "type": "bytes"
        }
      ],
      "name": "safeTransferFrom",
      "outputs": [],
      "stateMutability": "nonpayable",
      "type": "function"
    },
    {
      "inputs": [
        {
          "internalType": "address",
          "name": "operator",
          "type": "address"
        },
        {
          "internalType": "bool",
          "name": "approved",
          "type": "bool"
        }
      ],
      "name": "setApprovalForAll",
      "outputs": [],
      "stateMutability": "nonpayable",
      "type": "function"
    },
    {
      "inputs": [
        {
          "internalType": "bytes4",
          "name": "interfaceId",
          "type": "bytes4"
        }
      ],
      "name": "supportsInterface",
      "outputs": [
        {
          "internalType": "bool",
          "name": "",
          "type": "bool"
        }
      ],
      "stateMutability": "view",
      "type": "function"
    },
    {
      "inputs": [],
      "name": "symbol",
      "outputs": [
        {
          "internalType": "string",
          "name": "",
          "type": "string"
        }
      ],
      "stateMutability": "view",
      "type": "function"
    },
    {
      "inputs": [
        {
          "internalType": "uint256",
          "name": "index",
          "type": "uint256"
        }
      ],
      "name": "tokenByIndex",
      "outputs": [
        {
          "internalType": "uint256",
          "name": "",
          "type": "uint256"
        }
      ],
      "stateMutability": "view",
      "type": "function"
    },
    {
      "inputs": [
        {
          "internalType": "address",
          "name": "owner",
          "type": "address"
        },
        {
          "internalType": "uint256",
          "name": "index",
          "type": "uint256"
        }
      ],
      "name": "tokenOfOwnerByIndex",
      "outputs": [
        {
          "internalType": "uint256",
          "name": "",
          "type": "uint256"
        }
      ],
      "stateMutability": "view",
      "type": "function"
    },
    {
      "inputs": [
        {
          "internalType": "uint256",
          "name": "tokenId",
          "type": "uint256"
        }
      ],
      "name": "tokenURI",
      "outputs": [
        {
          "internalType": "string",
          "name": "",
          "type": "string"
        }
      ],
      "stateMutability": "view",
      "type": "function"
    },
    {
      "inputs": [],
      "name": "totalSupply",
      "outputs": [
        {
          "internalType": "uint256",
          "name": "",
          "type": "uint256"
        }
      ],
      "stateMutability": "view",
      "type": "function"
    },
    {
      "inputs": [
        {
          "internalType": "address",
          "name": "from",
          "type": "address"
        },
        {
          "internalType": "address",
          "name": "to",
          "type": "address"
        },
        {
          "internalType": "uint256",
          "name": "tokenId",
          "type": "uint256"
        }
      ],
      "name": "transferFrom",
      "outputs": [],
      "stateMutability": "nonpayable",
      "type": "function"
    },
    {
      "inputs": [
        {
          "internalType": "address",
          "name": "newOwner",
          "type": "address"
        }
      ],
      "name": "transferOwnership",
      "outputs": [],
      "stateMutability": "nonpayable",
      "type": "function"
    }
  ],
  "bytecode": "0x60806040523480156200001157600080fd5b50604080518082018252601581527f446f63756d656e745065726d697373696f6e4e66740000000000000000000000602080830191825283518085019094526004845263082aaa8960e31b908401528151919291620000739160009162000102565b5080516200008990600190602084019062000102565b505050620000a6620000a0620000ac60201b60201c565b620000b0565b620001e5565b3390565b600a80546001600160a01b038381166001600160a01b0319831681179093556040519116919082907f8be0079c531659141344cd1fd0a4f28419497f9722a3daafe3b4186f6b6457e090600090a35050565b8280546200011090620001a8565b90600052602060002090601f0160209004810192826200013457600085556200017f565b82601f106200014f57805160ff19168380011785556200017f565b828001600101855582156200017f579182015b828111156200017f57825182559160200191906001019062000162565b506200018d92915062000191565b5090565b5b808211156200018d576000815560010162000192565b600181811c90821680620001bd57607f821691505b60208210811415620001df57634e487b7160e01b600052602260045260246000fd5b50919050565b611a5580620001f56000396000f3fe608060405234801561001057600080fd5b506004361061014d5760003560e01c80634f6ccce7116100c35780639dc29fac1161007c5780639dc29fac146102ba578063a22cb465146102cd578063b88d4fde146102e0578063c87b56dd146102f3578063e985e9c514610306578063f2fde38b1461034257600080fd5b80634f6ccce7146102605780636352211e1461027357806370a0823114610286578063715018a6146102995780638da5cb5b146102a157806395d89b41146102b257600080fd5b806323b872dd1161011557806323b872dd146101e157806329f99b9f146101f45780632d8f39a9146102075780632f745c591461022757806340c10f191461023a57806342842e0e1461024d57600080fd5b806301ffc9a71461015257806306fdde031461017a578063081812fc1461018f578063095ea7b3146101ba57806318160ddd146101cf575b600080fd5b610165610160366004611753565b610355565b60405190151581526020015b60405180910390f35b610182610380565b604051610171919061183b565b6101a261019d36600461178b565b610412565b6040516001600160a01b039091168152602001610171565b6101cd6101c836600461172a565b610439565b005b6008545b604051908152602001610171565b6101cd6101ef3660046115e0565b610554565b6101d361020236600461172a565b610585565b6101d361021536600461178b565b600b6020526000908152604090205481565b6101d361023536600461172a565b6105cd565b6101d361024836600461172a565b610663565b6101cd61025b3660046115e0565b610694565b6101d361026e36600461178b565b6106af565b6101a261028136600461178b565b610750565b6101d3610294366004611594565b6107b0565b6101cd610836565b600a546001600160a01b03166101a2565b61018261084a565b6101cd6102c836600461172a565b610859565b6101cd6102db3660046116f0565b610878565b6101cd6102ee36600461161b565b610887565b61018261030136600461178b565b6108bf565b6101656103143660046115ae565b6001600160a01b03918216600090815260056020908152604080832093909416825291909152205460ff1690565b6101cd610350366004611594565b610933565b60006001600160e01b0319821663780e9d6360e01b148061037a575061037a826109ac565b92915050565b60606000805461038f9061195d565b80601f01602080910402602001604051908101604052809291908181526020018280546103bb9061195d565b80156104085780601f106103dd57610100808354040283529160200191610408565b820191906000526020600020905b8154815290600101906020018083116103eb57829003601f168201915b5050505050905090565b600061041d826109fc565b506000908152600460205260409020546001600160a01b031690565b600061044482610750565b9050806001600160a01b0316836001600160a01b031614156104b75760405162461bcd60e51b815260206004820152602160248201527f4552433732313a20617070726f76616c20746f2063757272656e74206f776e656044820152603960f91b60648201526084015b60405180910390fd5b336001600160a01b03821614806104d357506104d38133610314565b6105455760405162461bcd60e51b815260206004820152603e60248201527f4552433732313a20617070726f76652063616c6c6572206973206e6f7420746f60448201527f6b656e206f776e6572206e6f7220617070726f76656420666f7220616c6c000060648201526084016104ae565b61054f8383610a5b565b505050565b61055e3382610ac9565b61057a5760405162461bcd60e51b81526004016104ae906118a0565b61054f838383610b48565b6040516bffffffffffffffffffffffff19606084901b1660208201526034810182905260009060540160408051601f1981840301815291905280516020909101209392505050565b60006105d8836107b0565b821061063a5760405162461bcd60e51b815260206004820152602b60248201527f455243373231456e756d657261626c653a206f776e657220696e646578206f7560448201526a74206f6620626f756e647360a81b60648201526084016104ae565b506001600160a01b03919091166000908152600660209081526040808320938352929052205490565b600061066d610cef565b6106778383610585565b6000818152600b60205260409020839055905061037a8382610d49565b61054f83838360405180602001604052806000815250610887565b60006106ba60085490565b821061071d5760405162461bcd60e51b815260206004820152602c60248201527f455243373231456e756d657261626c653a20676c6f62616c20696e646578206f60448201526b7574206f6620626f756e647360a01b60648201526084016104ae565b6008828154811061073e57634e487b7160e01b600052603260045260246000fd5b90600052602060002001549050919050565b6000818152600260205260408120546001600160a01b03168061037a5760405162461bcd60e51b8152602060048201526018602482015277115490cdcc8c4e881a5b9d985b1a59081d1bdad95b88125160421b60448201526064016104ae565b60006001600160a01b03821661081a5760405162461bcd60e51b815260206004820152602960248201527f4552433732313a2061646472657373207a65726f206973206e6f7420612076616044820152683634b21037bbb732b960b91b60648201526084016104ae565b506001600160a01b031660009081526003602052604090205490565b61083e610cef565b6108486000610d63565b565b60606001805461038f9061195d565b610861610cef565b600061086d8383610585565b905061054f81610db5565b610883338383610e5c565b5050565b6108913383610ac9565b6108ad5760405162461bcd60e51b81526004016104ae906118a0565b6108b984848484610f2b565b50505050565b60606108ca826109fc565b60006108e160408051602081019091526000815290565b90506000815111610901576040518060200160405280600081525061092c565b8061090b84610f5e565b60405160200161091c9291906117cf565b6040516020818303038152906040525b9392505050565b61093b610cef565b6001600160a01b0381166109a05760405162461bcd60e51b815260206004820152602660248201527f4f776e61626c653a206e6577206f776e657220697320746865207a65726f206160448201526564647265737360d01b60648201526084016104ae565b6109a981610d63565b50565b60006001600160e01b031982166380ac58cd60e01b14806109dd57506001600160e01b03198216635b5e139f60e01b145b8061037a57506301ffc9a760e01b6001600160e01b031983161461037a565b6000818152600260205260409020546001600160a01b03166109a95760405162461bcd60e51b8152602060048201526018602482015277115490cdcc8c4e881a5b9d985b1a59081d1bdad95b88125160421b60448201526064016104ae565b600081815260046020526040902080546001600160a01b0319166001600160a01b0384169081179091558190610a9082610750565b6001600160a01b03167f8c5be1e5ebec7d5bd14f71427d1e84f3dd0314c0f7b2291e5b200ac8c7c3b92560405160405180910390a45050565b600080610ad583610750565b9050806001600160a01b0316846001600160a01b03161480610b1c57506001600160a01b0380821660009081526005602090815260408083209388168352929052205460ff165b80610b405750836001600160a01b0316610b3584610412565b6001600160a01b0316145b949350505050565b826001600160a01b0316610b5b82610750565b6001600160a01b031614610bbf5760405162461bcd60e51b815260206004820152602560248201527f4552433732313a207472616e736665722066726f6d20696e636f72726563742060448201526437bbb732b960d91b60648201526084016104ae565b6001600160a01b038216610c215760405162461bcd60e51b8152602060048201526024808201527f4552433732313a207472616e7366657220746f20746865207a65726f206164646044820152637265737360e01b60648201526084016104ae565b610c2c838383611078565b610c37600082610a5b565b6001600160a01b0383166000908152600360205260408120805460019290610c6090849061191a565b90915550506001600160a01b0382166000908152600360205260408120805460019290610c8e9084906118ee565b909155505060008181526002602052604080822080546001600160a01b0319166001600160a01b0386811691821790925591518493918716917fddf252ad1be2c89b69c2b068fc378daa952ba7f163c4a11628f55a4df523b3ef91a4505050565b600a546001600160a01b031633146108485760405162461bcd60e51b815260206004820181905260248201527f4f776e61626c653a2063616c6c6572206973206e6f7420746865206f776e657260448201526064016104ae565b610883828260405180602001604052806000815250611130565b600a80546001600160a01b038381166001600160a01b0319831681179093556040519116919082907f8be0079c531659141344cd1fd0a4f28419497f9722a3daafe3b4186f6b6457e090600090a35050565b6000610dc082610750565b9050610dce81600084611078565b610dd9600083610a5b565b6001600160a01b0381166000908152600360205260408120805460019290610e0290849061191a565b909155505060008281526002602052604080822080546001600160a01b0319169055518391906001600160a01b038416907fddf252ad1be2c89b69c2b068fc378daa952ba7f163c4a11628f55a4df523b3ef908390a45050565b816001600160a01b0316836001600160a01b03161415610ebe5760405162461bcd60e51b815260206004820152601960248201527f4552433732313a20617070726f766520746f2063616c6c65720000000000000060448201526064016104ae565b6001600160a01b03838116600081815260056020908152604080832094871680845294825291829020805460ff191686151590811790915591519182527f17307eab39ab6107e8899845ad3d59bd9653f200f220920489ca2b5937696c31910160405180910390a3505050565b610f36848484610b48565b610f4284848484611163565b6108b95760405162461bcd60e51b81526004016104ae9061184e565b606081610f825750506040805180820190915260018152600360fc1b602082015290565b8160005b8115610fac5780610f9681611998565b9150610fa59050600a83611906565b9150610f86565b60008167ffffffffffffffff811115610fd557634e487b7160e01b600052604160045260246000fd5b6040519080825280601f01601f191660200182016040528015610fff576020820181803683370190505b5090505b8415610b405761101460018361191a565b9150611021600a866119b3565b61102c9060306118ee565b60f81b81838151811061104f57634e487b7160e01b600052603260045260246000fd5b60200101906001600160f81b031916908160001a905350611071600a86611906565b9450611003565b6001600160a01b0383166110d3576110ce81600880546000838152600960205260408120829055600182018355919091527ff3f7a9fe364faab93b216da50a3214154f22a0a2b415b23a84c8169e8b636ee30155565b6110f6565b816001600160a01b0316836001600160a01b0316146110f6576110f68382611270565b6001600160a01b03821661110d5761054f8161130d565b826001600160a01b0316826001600160a01b03161461054f5761054f82826113e6565b61113a838361142a565b6111476000848484611163565b61054f5760405162461bcd60e51b81526004016104ae9061184e565b60006001600160a01b0384163b1561126557604051630a85bd0160e11b81526001600160a01b0385169063150b7a02906111a79033908990889088906004016117fe565b602060405180830381600087803b1580156111c157600080fd5b505af19250505080156111f1575060408051601f3d908101601f191682019092526111ee9181019061176f565b60015b61124b573d80801561121f576040519150601f19603f3d011682016040523d82523d6000602084013e611224565b606091505b5080516112435760405162461bcd60e51b81526004016104ae9061184e565b805181602001fd5b6001600160e01b031916630a85bd0160e11b149050610b40565b506001949350505050565b6000600161127d846107b0565b611287919061191a565b6000838152600760205260409020549091508082146112da576001600160a01b03841660009081526006602090815260408083208584528252808320548484528184208190558352600790915290208190555b5060009182526007602090815260408084208490556001600160a01b039094168352600681528383209183525290812055565b60085460009061131f9060019061191a565b6000838152600960205260408120546008805493945090928490811061135557634e487b7160e01b600052603260045260246000fd5b90600052602060002001549050806008838154811061138457634e487b7160e01b600052603260045260246000fd5b60009182526020808320909101929092558281526009909152604080822084905585825281205560088054806113ca57634e487b7160e01b600052603160045260246000fd5b6001900381819060005260206000200160009055905550505050565b60006113f1836107b0565b6001600160a01b039093166000908152600660209081526040808320868452825280832085905593825260079052919091209190915550565b6001600160a01b0382166114805760405162461bcd60e51b815260206004820181905260248201527f4552433732313a206d696e7420746f20746865207a65726f206164647265737360448201526064016104ae565b6000818152600260205260409020546001600160a01b0316156114e55760405162461bcd60e51b815260206004820152601c60248201527f4552433732313a20746f6b656e20616c7265616479206d696e7465640000000060448201526064016104ae565b6114f160008383611078565b6001600160a01b038216600090815260036020526040812080546001929061151a9084906118ee565b909155505060008181526002602052604080822080546001600160a01b0319166001600160a01b03861690811790915590518392907fddf252ad1be2c89b69c2b068fc378daa952ba7f163c4a11628f55a4df523b3ef908290a45050565b80356001600160a01b038116811461158f57600080fd5b919050565b6000602082840312156115a5578081fd5b61092c82611578565b600080604083850312156115c0578081fd5b6115c983611578565b91506115d760208401611578565b90509250929050565b6000806000606084860312156115f4578081fd5b6115fd84611578565b925061160b60208501611578565b9150604084013590509250925092565b60008060008060808587031215611630578081fd5b61163985611578565b935061164760208601611578565b925060408501359150606085013567ffffffffffffffff8082111561166a578283fd5b818701915087601f83011261167d578283fd5b81358181111561168f5761168f6119f3565b604051601f8201601f19908116603f011681019083821181831017156116b7576116b76119f3565b816040528281528a60208487010111156116cf578586fd5b82602086016020830137918201602001949094529598949750929550505050565b60008060408385031215611702578182fd5b61170b83611578565b91506020830135801515811461171f578182fd5b809150509250929050565b6000806040838503121561173c578182fd5b61174583611578565b946020939093013593505050565b600060208284031215611764578081fd5b813561092c81611a09565b600060208284031215611780578081fd5b815161092c81611a09565b60006020828403121561179c578081fd5b5035919050565b600081518084526117bb816020860160208601611931565b601f01601f19169290920160200192915050565b600083516117e1818460208801611931565b8351908301906117f5818360208801611931565b01949350505050565b6001600160a01b0385811682528416602082015260408101839052608060608201819052600090611831908301846117a3565b9695505050505050565b60208152600061092c60208301846117a3565b60208082526032908201527f4552433732313a207472616e7366657220746f206e6f6e20455243373231526560408201527131b2b4bb32b91034b6b83632b6b2b73a32b960711b606082015260800190565b6020808252602e908201527f4552433732313a2063616c6c6572206973206e6f7420746f6b656e206f776e6560408201526d1c881b9bdc88185c1c1c9bdd995960921b606082015260800190565b60008219821115611901576119016119c7565b500190565b600082611915576119156119dd565b500490565b60008282101561192c5761192c6119c7565b500390565b60005b8381101561194c578181015183820152602001611934565b838111156108b95750506000910152565b600181811c9082168061197157607f821691505b6020821081141561199257634e487b7160e01b600052602260045260246000fd5b50919050565b60006000198214156119ac576119ac6119c7565b5060010190565b6000826119c2576119c26119dd565b500690565b634e487b7160e01b600052601160045260246000fd5b634e487b7160e01b600052601260045260246000fd5b634e487b7160e01b600052604160045260246000fd5b6001600160e01b0319811681146109a957600080fdfea26469706673582212201ca91af077e28d2b423349cc206e3f35b2ddfd46fdd4f3a31076e56e8ff97a1b64736f6c63430008040033",
  "linkReferences": {},
  "deployedLinkReferences": {}
}