{
  "_format": "hh-sol-artifact-1",
  "contractName": "DocumentPermissionNft",
  "sourceName": "contracts/DocumentPermissionNft.sol",
  "abi": [
    {
      "inputs": [],
      "stateMutability": "nonpayable",
      "type": "constructor"
    },
    {
      "anonymous": false,
      "inputs": [
        {
          "indexed": true,
          "internalType": "address",
          "name": "owner",
          "type": "address"
        },
        {
          "indexed": true,
          "internalType": "address",
          "name": "approved",
          "type": "address"
        },
        {
          "indexed": true,
          "internalType": "uint256",
          "name": "tokenId",
          "type": "uint256"
        }
      ],
      "name": "Approval",
      "type": "event"
    },
    {
      "anonymous": false,
      "inputs": [
        {
          "indexed": true,
          "internalType": "address",
          "name": "owner",
          "type": "address"
        },
        {
          "indexed": true,
          "internalType": "address",
          "name": "operator",
          "type": "address"
        },
        {
          "indexed": false,
          "internalType": "bool",
          "name": "approved",
          "type": "bool"
        }
      ],
      "name": "ApprovalForAll",
      "type": "event"
    },
    {
      "anonymous": false,
      "inputs": [
        {
          "indexed": true,
          "internalType": "address",
          "name": "previousOwner",
          "type": "address"
        },
        {
          "indexed": true,
          "internalType": "address",
          "name": "newOwner",
          "type": "address"
        }
      ],
      "name": "OwnershipTransferred",
      "type": "event"
    },
    {
      "anonymous": false,
      "inputs": [
        {
          "indexed": true,
          "internalType": "address",
          "name": "from",
          "type": "address"
        },
        {
          "indexed": true,
          "internalType": "address",
          "name": "to",
          "type": "address"
        },
        {
          "indexed": true,
          "internalType": "uint256",
          "name": "tokenId",
          "type": "uint256"
        }
      ],
      "name": "Transfer",
      "type": "event"
    },
    {
      "inputs": [
        {
          "internalType": "address",
          "name": "to",
          "type": "address"
        },
        {
          "internalType": "uint256",
          "name": "tokenId",
          "type": "uint256"
        }
      ],
      "name": "approve",
      "outputs": [],
      "stateMutability": "nonpayable",
      "type": "function"
    },
    {
      "inputs": [
        {
          "internalType": "address",
          "name": "owner",
          "type": "address"
        }
      ],
      "name": "balanceOf",
      "outputs": [
        {
          "internalType": "uint256",
          "name": "",
          "type": "uint256"
        }
      ],
      "stateMutability": "view",
      "type": "function"
    },
    {
      "inputs": [
        {
          "internalType": "address",
          "name": "to",
          "type": "address"
        },
        {
          "internalType": "uint256",
          "name": "documentTokenId",
          "type": "uint256"
        }
      ],
      "name": "burn",
      "outputs": [],
      "stateMutability": "nonpayable",
      "type": "function"
    },
    {
      "inputs": [
        {
          "internalType": "uint256",
          "name": "tokenId",
          "type": "uint256"
        }
      ],
      "name": "getApproved",
      "outputs": [
        {
          "internalType": "address",
          "name": "",
          "type": "address"
        }
      ],
      "stateMutability": "view",
      "type": "function"
    },
    {
      "inputs": [
        {
          "internalType": "address",
          "name": "to",
          "type": "address"
        },
        {
          "internalType": "uint256",
          "name": "documentTokenId",
          "type": "uint256"
        }
      ],
      "name": "getTokenId",
      "outputs": [
        {
          "internalType": "uint256",
          "name": "tokenId",
          "type": "uint256"
        }
      ],
      "stateMutability": "pure",
      "type": "function"
    },
    {
      "inputs": [
        {
          "internalType": "address",
          "name": "owner",
          "type": "address"
        },
        {
          "internalType": "address",
          "name": "operator",
          "type": "address"
        }
      ],
      "name": "isApprovedForAll",
      "outputs": [
        {
          "internalType": "bool",
          "name": "",
          "type": "bool"
        }
      ],
      "stateMutability": "view",
      "type": "function"
    },
    {
      "inputs": [
        {
          "internalType": "address",
          "name": "to",
          "type": "address"
        },
        {
          "internalType": "uint256",
          "name": "documentTokenId",
          "type": "uint256"
        }
      ],
      "name": "mint",
      "outputs": [
        {
          "internalType": "uint256",
          "name": "tokenId",
          "type": "uint256"
        }
      ],
      "stateMutability": "nonpayable",
      "type": "function"
    },
    {
      "inputs": [],
      "name": "name",
      "outputs": [
        {
          "internalType": "string",
          "name": "",
          "type": "string"
        }
      ],
      "stateMutability": "view",
      "type": "function"
    },
    {
      "inputs": [
        {
          "internalType": "uint256",
          "name": "",
          "type": "uint256"
        }
      ],
      "name": "notarizedDocument",
      "outputs": [
        {
          "internalType": "uint256",
          "name": "",
          "type": "uint256"
        }
      ],
      "stateMutability": "view",
      "type": "function"
    },
    {
      "inputs": [],
      "name": "owner",
      "outputs": [
        {
          "internalType": "address",
          "name": "",
          "type": "address"
        }
      ],
      "stateMutability": "view",
      "type": "function"
    },
    {
      "inputs": [
        {
          "internalType": "uint256",
          "name": "tokenId",
          "type": "uint256"
        }
      ],
      "name": "ownerOf",
      "outputs": [
        {
          "internalType": "address",
          "name": "",
          "type": "address"
        }
      ],
      "stateMutability": "view",
      "type": "function"
    },
    {
      "inputs": [],
      "name": "renounceOwnership",
      "outputs": [],
      "stateMutability": "nonpayable",
      "type": "function"
    },
    {
      "inputs": [
        {
          "internalType": "address",
          "name": "from",
          "type": "address"
        },
        {
          "internalType": "address",
          "name": "to",
          "type": "address"
        },
        {
          "internalType": "uint256",
          "name": "tokenId",
          "type": "uint256"
        }
      ],
      "name": "safeTransferFrom",
      "outputs": [],
      "stateMutability": "nonpayable",
      "type": "function"
    },
    {
      "inputs": [
        {
          "internalType": "address",
          "name": "from",
          "type": "address"
        },
        {
          "internalType": "address",
          "name": "to",
          "type": "address"
        },
        {
          "internalType": "uint256",
          "name": "tokenId",
          "type": "uint256"
        },
        {
          "internalType": "bytes",
          "name": "data",
          "type": "bytes"
        }
      ],
      "name": "safeTransferFrom",
      "outputs": [],
      "stateMutability": "nonpayable",
      "type": "function"
    },
    {
      "inputs": [
        {
          "internalType": "address",
          "name": "operator",
          "type": "address"
        },
        {
          "internalType": "bool",
          "name": "approved",
          "type": "bool"
        }
      ],
      "name": "setApprovalForAll",
      "outputs": [],
      "stateMutability": "nonpayable",
      "type": "function"
    },
    {
      "inputs": [
        {
          "internalType": "bytes4",
          "name": "interfaceId",
          "type": "bytes4"
        }
      ],
      "name": "supportsInterface",
      "outputs": [
        {
          "internalType": "bool",
          "name": "",
          "type": "bool"
        }
      ],
      "stateMutability": "view",
      "type": "function"
    },
    {
      "inputs": [],
      "name": "symbol",
      "outputs": [
        {
          "internalType": "string",
          "name": "",
          "type": "string"
        }
      ],
      "stateMutability": "view",
      "type": "function"
    },
    {
      "inputs": [
        {
          "internalType": "uint256",
          "name": "index",
          "type": "uint256"
        }
      ],
      "name": "tokenByIndex",
      "outputs": [
        {
          "internalType": "uint256",
          "name": "",
          "type": "uint256"
        }
      ],
      "stateMutability": "view",
      "type": "function"
    },
    {
      "inputs": [
        {
          "internalType": "address",
          "name": "owner",
          "type": "address"
        },
        {
          "internalType": "uint256",
          "name": "index",
          "type": "uint256"
        }
      ],
      "name": "tokenOfOwnerByIndex",
      "outputs": [
        {
          "internalType": "uint256",
          "name": "",
          "type": "uint256"
        }
      ],
      "stateMutability": "view",
      "type": "function"
    },
    {
      "inputs": [
        {
          "internalType": "uint256",
          "name": "tokenId",
          "type": "uint256"
        }
      ],
      "name": "tokenURI",
      "outputs": [
        {
          "internalType": "string",
          "name": "",
          "type": "string"
        }
      ],
      "stateMutability": "view",
      "type": "function"
    },
    {
      "inputs": [],
      "name": "totalSupply",
      "outputs": [
        {
          "internalType": "uint256",
          "name": "",
          "type": "uint256"
        }
      ],
      "stateMutability": "view",
      "type": "function"
    },
    {
      "inputs": [
        {
          "internalType": "address",
          "name": "from",
          "type": "address"
        },
        {
          "internalType": "address",
          "name": "to",
          "type": "address"
        },
        {
          "internalType": "uint256",
          "name": "tokenId",
          "type": "uint256"
        }
      ],
      "name": "transferFrom",
      "outputs": [],
      "stateMutability": "nonpayable",
      "type": "function"
    },
    {
      "inputs": [
        {
          "internalType": "address",
          "name": "newOwner",
          "type": "address"
        }
      ],
      "name": "transferOwnership",
      "outputs": [],
      "stateMutability": "nonpayable",
      "type": "function"
    }
  ],
  "bytecode": "0x60806040523480156200001157600080fd5b506040518060400160405280601581526020017f446f63756d656e745065726d697373696f6e4e667400000000000000000000008152506040518060400160405280600481526020017f4155544800000000000000000000000000000000000000000000000000000000815250816000908051906020019062000096929190620001a6565b508060019080519060200190620000af929190620001a6565b505050620000d2620000c6620000d860201b60201c565b620000e060201b60201c565b620002bb565b600033905090565b6000600a60009054906101000a900473ffffffffffffffffffffffffffffffffffffffff16905081600a60006101000a81548173ffffffffffffffffffffffffffffffffffffffff021916908373ffffffffffffffffffffffffffffffffffffffff1602179055508173ffffffffffffffffffffffffffffffffffffffff168173ffffffffffffffffffffffffffffffffffffffff167f8be0079c531659141344cd1fd0a4f28419497f9722a3daafe3b4186f6b6457e060405160405180910390a35050565b828054620001b49062000256565b90600052602060002090601f016020900481019282620001d8576000855562000224565b82601f10620001f357805160ff191683800117855562000224565b8280016001018555821562000224579182015b828111156200022357825182559160200191906001019062000206565b5b50905062000233919062000237565b5090565b5b808211156200025257600081600090555060010162000238565b5090565b600060028204905060018216806200026f57607f821691505b602082108114156200028657620002856200028c565b5b50919050565b7f4e487b7100000000000000000000000000000000000000000000000000000000600052602260045260246000fd5b61335f80620002cb6000396000f3fe608060405234801561001057600080fd5b506004361061014d5760003560e01c80634f6ccce7116100c35780639dc29fac1161007c5780639dc29fac146103d8578063a22cb465146103f4578063b88d4fde14610410578063c87b56dd1461042c578063e985e9c51461045c578063f2fde38b1461048c5761014d565b80634f6ccce7146103025780636352211e1461033257806370a0823114610362578063715018a6146103925780638da5cb5b1461039c57806395d89b41146103ba5761014d565b806323b872dd1161011557806323b872dd1461020a57806329f99b9f146102265780632d8f39a9146102565780632f745c591461028657806340c10f19146102b657806342842e0e146102e65761014d565b806301ffc9a71461015257806306fdde0314610182578063081812fc146101a0578063095ea7b3146101d057806318160ddd146101ec575b600080fd5b61016c60048036038101906101679190612486565b6104a8565b60405161017991906128c3565b60405180910390f35b61018a610522565b60405161019791906128de565b60405180910390f35b6101ba60048036038101906101b591906124d8565b6105b4565b6040516101c7919061285c565b60405180910390f35b6101ea60048036038101906101e5919061244a565b6105fa565b005b6101f4610712565b6040516102019190612ae0565b60405180910390f35b610224600480360381019061021f9190612344565b61071f565b005b610240600480360381019061023b919061244a565b61077f565b60405161024d9190612ae0565b60405180910390f35b610270600480360381019061026b91906124d8565b6107b5565b60405161027d9190612ae0565b60405180910390f35b6102a0600480360381019061029b919061244a565b6107cd565b6040516102ad9190612ae0565b60405180910390f35b6102d060048036038101906102cb919061244a565b610872565b6040516102dd9190612ae0565b60405180910390f35b61030060048036038101906102fb9190612344565b6108b0565b005b61031c600480360381019061031791906124d8565b6108d0565b6040516103299190612ae0565b60405180910390f35b61034c600480360381019061034791906124d8565b610967565b604051610359919061285c565b60405180910390f35b61037c600480360381019061037791906122df565b610a19565b6040516103899190612ae0565b60405180910390f35b61039a610ad1565b005b6103a4610ae5565b6040516103b1919061285c565b60405180910390f35b6103c2610b0f565b6040516103cf91906128de565b60405180910390f35b6103f260048036038101906103ed919061244a565b610ba1565b005b61040e6004803603810190610409919061240e565b610bc5565b005b61042a60048036038101906104259190612393565b610bdb565b005b610446600480360381019061044191906124d8565b610c3d565b60405161045391906128de565b60405180910390f35b61047660048036038101906104719190612308565b610ca5565b60405161048391906128c3565b60405180910390f35b6104a660048036038101906104a191906122df565b610d39565b005b60007f780e9d63000000000000000000000000000000000000000000000000000000007bffffffffffffffffffffffffffffffffffffffffffffffffffffffff1916827bffffffffffffffffffffffffffffffffffffffffffffffffffffffff1916148061051b575061051a82610dbd565b5b9050919050565b60606000805461053190612d05565b80601f016020809104026020016040519081016040528092919081815260200182805461055d90612d05565b80156105aa5780601f1061057f576101008083540402835291602001916105aa565b820191906000526020600020905b81548152906001019060200180831161058d57829003601f168201915b5050505050905090565b60006105bf82610e9f565b6004600083815260200190815260200160002060009054906101000a900473ffffffffffffffffffffffffffffffffffffffff169050919050565b600061060582610967565b90508073ffffffffffffffffffffffffffffffffffffffff168373ffffffffffffffffffffffffffffffffffffffff161415610676576040517f08c379a000000000000000000000000000000000000000000000000000000000815260040161066d90612a80565b60405180910390fd5b8073ffffffffffffffffffffffffffffffffffffffff16610695610eea565b73ffffffffffffffffffffffffffffffffffffffff1614806106c457506106c3816106be610eea565b610ca5565b5b610703576040517f08c379a00000000000000000000000000000000000000000000000000000000081526004016106fa90612a00565b60405180910390fd5b61070d8383610ef2565b505050565b6000600880549050905090565b61073061072a610eea565b82610fab565b61076f576040517f08c379a000000000000000000000000000000000000000000000000000000000815260040161076690612ac0565b60405180910390fd5b61077a838383611040565b505050565b6000828260405160200161079492919061280c565b6040516020818303038152906040528051906020012060001c905092915050565b600b6020528060005260406000206000915090505481565b60006107d883610a19565b8210610819576040517f08c379a000000000000000000000000000000000000000000000000000000000815260040161081090612900565b60405180910390fd5b600660008473ffffffffffffffffffffffffffffffffffffffff1673ffffffffffffffffffffffffffffffffffffffff168152602001908152602001600020600083815260200190815260200160002054905092915050565b600061087c6112a7565b610886838361077f565b905081600b6000838152602001908152602001600020819055506108aa8382611325565b92915050565b6108cb83838360405180602001604052806000815250610bdb565b505050565b60006108da610712565b821061091b576040517f08c379a000000000000000000000000000000000000000000000000000000000815260040161091290612aa0565b60405180910390fd5b60088281548110610955577f4e487b7100000000000000000000000000000000000000000000000000000000600052603260045260246000fd5b90600052602060002001549050919050565b6000806002600084815260200190815260200160002060009054906101000a900473ffffffffffffffffffffffffffffffffffffffff169050600073ffffffffffffffffffffffffffffffffffffffff168173ffffffffffffffffffffffffffffffffffffffff161415610a10576040517f08c379a0000000000000000000000000000000000000000000000000000000008152600401610a0790612a60565b60405180910390fd5b80915050919050565b60008073ffffffffffffffffffffffffffffffffffffffff168273ffffffffffffffffffffffffffffffffffffffff161415610a8a576040517f08c379a0000000000000000000000000000000000000000000000000000000008152600401610a81906129e0565b60405180910390fd5b600360008373ffffffffffffffffffffffffffffffffffffffff1673ffffffffffffffffffffffffffffffffffffffff168152602001908152602001600020549050919050565b610ad96112a7565b610ae36000611343565b565b6000600a60009054906101000a900473ffffffffffffffffffffffffffffffffffffffff16905090565b606060018054610b1e90612d05565b80601f0160208091040260200160405190810160405280929190818152602001828054610b4a90612d05565b8015610b975780601f10610b6c57610100808354040283529160200191610b97565b820191906000526020600020905b815481529060010190602001808311610b7a57829003601f168201915b5050505050905090565b610ba96112a7565b6000610bb5838361077f565b9050610bc081611409565b505050565b610bd7610bd0610eea565b8383611526565b5050565b610bec610be6610eea565b83610fab565b610c2b576040517f08c379a0000000000000000000000000000000000000000000000000000000008152600401610c2290612ac0565b60405180910390fd5b610c3784848484611693565b50505050565b6060610c4882610e9f565b6000610c526116ef565b90506000815111610c725760405180602001604052806000815250610c9d565b80610c7c84611706565b604051602001610c8d929190612838565b6040516020818303038152906040525b915050919050565b6000600560008473ffffffffffffffffffffffffffffffffffffffff1673ffffffffffffffffffffffffffffffffffffffff16815260200190815260200160002060008373ffffffffffffffffffffffffffffffffffffffff1673ffffffffffffffffffffffffffffffffffffffff16815260200190815260200160002060009054906101000a900460ff16905092915050565b610d416112a7565b600073ffffffffffffffffffffffffffffffffffffffff168173ffffffffffffffffffffffffffffffffffffffff161415610db1576040517f08c379a0000000000000000000000000000000000000000000000000000000008152600401610da890612940565b60405180910390fd5b610dba81611343565b50565b60007f80ac58cd000000000000000000000000000000000000000000000000000000007bffffffffffffffffffffffffffffffffffffffffffffffffffffffff1916827bffffffffffffffffffffffffffffffffffffffffffffffffffffffff19161480610e8857507f5b5e139f000000000000000000000000000000000000000000000000000000007bffffffffffffffffffffffffffffffffffffffffffffffffffffffff1916827bffffffffffffffffffffffffffffffffffffffffffffffffffffffff1916145b80610e985750610e97826118b3565b5b9050919050565b610ea88161191d565b610ee7576040517f08c379a0000000000000000000000000000000000000000000000000000000008152600401610ede90612a60565b60405180910390fd5b50565b600033905090565b816004600083815260200190815260200160002060006101000a81548173ffffffffffffffffffffffffffffffffffffffff021916908373ffffffffffffffffffffffffffffffffffffffff160217905550808273ffffffffffffffffffffffffffffffffffffffff16610f6583610967565b73ffffffffffffffffffffffffffffffffffffffff167f8c5be1e5ebec7d5bd14f71427d1e84f3dd0314c0f7b2291e5b200ac8c7c3b92560405160405180910390a45050565b600080610fb783610967565b90508073ffffffffffffffffffffffffffffffffffffffff168473ffffffffffffffffffffffffffffffffffffffff161480610ff95750610ff88185610ca5565b5b8061103757508373ffffffffffffffffffffffffffffffffffffffff1661101f846105b4565b73ffffffffffffffffffffffffffffffffffffffff16145b91505092915050565b8273ffffffffffffffffffffffffffffffffffffffff1661106082610967565b73ffffffffffffffffffffffffffffffffffffffff16146110b6576040517f08c379a00000000000000000000000000000000000000000000000000000000081526004016110ad90612960565b60405180910390fd5b600073ffffffffffffffffffffffffffffffffffffffff168273ffffffffffffffffffffffffffffffffffffffff161415611126576040517f08c379a000000000000000000000000000000000000000000000000000000000815260040161111d906129a0565b60405180910390fd5b611131838383611989565b61113c600082610ef2565b6001600360008573ffffffffffffffffffffffffffffffffffffffff1673ffffffffffffffffffffffffffffffffffffffff168152602001908152602001600020600082825461118c9190612c1b565b925050819055506001600360008473ffffffffffffffffffffffffffffffffffffffff1673ffffffffffffffffffffffffffffffffffffffff16815260200190815260200160002060008282546111e39190612b94565b92505081905550816002600083815260200190815260200160002060006101000a81548173ffffffffffffffffffffffffffffffffffffffff021916908373ffffffffffffffffffffffffffffffffffffffff160217905550808273ffffffffffffffffffffffffffffffffffffffff168473ffffffffffffffffffffffffffffffffffffffff167fddf252ad1be2c89b69c2b068fc378daa952ba7f163c4a11628f55a4df523b3ef60405160405180910390a46112a2838383611a9d565b505050565b6112af610eea565b73ffffffffffffffffffffffffffffffffffffffff166112cd610ae5565b73ffffffffffffffffffffffffffffffffffffffff1614611323576040517f08c379a000000000000000000000000000000000000000000000000000000000815260040161131a90612a40565b60405180910390fd5b565b61133f828260405180602001604052806000815250611aa2565b5050565b6000600a60009054906101000a900473ffffffffffffffffffffffffffffffffffffffff16905081600a60006101000a81548173ffffffffffffffffffffffffffffffffffffffff021916908373ffffffffffffffffffffffffffffffffffffffff1602179055508173ffffffffffffffffffffffffffffffffffffffff168173ffffffffffffffffffffffffffffffffffffffff167f8be0079c531659141344cd1fd0a4f28419497f9722a3daafe3b4186f6b6457e060405160405180910390a35050565b600061141482610967565b905061142281600084611989565b61142d600083610ef2565b6001600360008373ffffffffffffffffffffffffffffffffffffffff1673ffffffffffffffffffffffffffffffffffffffff168152602001908152602001600020600082825461147d9190612c1b565b925050819055506002600083815260200190815260200160002060006101000a81549073ffffffffffffffffffffffffffffffffffffffff021916905581600073ffffffffffffffffffffffffffffffffffffffff168273ffffffffffffffffffffffffffffffffffffffff167fddf252ad1be2c89b69c2b068fc378daa952ba7f163c4a11628f55a4df523b3ef60405160405180910390a461152281600084611a9d565b5050565b8173ffffffffffffffffffffffffffffffffffffffff168373ffffffffffffffffffffffffffffffffffffffff161415611595576040517f08c379a000000000000000000000000000000000000000000000000000000000815260040161158c906129c0565b60405180910390fd5b80600560008573ffffffffffffffffffffffffffffffffffffffff1673ffffffffffffffffffffffffffffffffffffffff16815260200190815260200160002060008473ffffffffffffffffffffffffffffffffffffffff1673ffffffffffffffffffffffffffffffffffffffff16815260200190815260200160002060006101000a81548160ff0219169083151502179055508173ffffffffffffffffffffffffffffffffffffffff168373ffffffffffffffffffffffffffffffffffffffff167f17307eab39ab6107e8899845ad3d59bd9653f200f220920489ca2b5937696c318360405161168691906128c3565b60405180910390a3505050565b61169e848484611040565b6116aa84848484611afd565b6116e9576040517f08c379a00000000000000000000000000000000000000000000000000000000081526004016116e090612920565b60405180910390fd5b50505050565b606060405180602001604052806000815250905090565b6060600082141561174e576040518060400160405280600181526020017f300000000000000000000000000000000000000000000000000000000000000081525090506118ae565b600082905060005b6000821461178057808061176990612d68565b915050600a826117799190612bea565b9150611756565b60008167ffffffffffffffff8111156117c2577f4e487b7100000000000000000000000000000000000000000000000000000000600052604160045260246000fd5b6040519080825280601f01601f1916602001820160405280156117f45781602001600182028036833780820191505090505b5090505b600085146118a75760018261180d9190612c1b565b9150600a8561181c9190612ddf565b60306118289190612b94565b60f81b818381518110611864577f4e487b7100000000000000000000000000000000000000000000000000000000600052603260045260246000fd5b60200101907effffffffffffffffffffffffffffffffffffffffffffffffffffffffffffff1916908160001a905350600a856118a09190612bea565b94506117f8565b8093505050505b919050565b60007f01ffc9a7000000000000000000000000000000000000000000000000000000007bffffffffffffffffffffffffffffffffffffffffffffffffffffffff1916827bffffffffffffffffffffffffffffffffffffffffffffffffffffffff1916149050919050565b60008073ffffffffffffffffffffffffffffffffffffffff166002600084815260200190815260200160002060009054906101000a900473ffffffffffffffffffffffffffffffffffffffff1673ffffffffffffffffffffffffffffffffffffffff1614159050919050565b611994838383611c94565b600073ffffffffffffffffffffffffffffffffffffffff168373ffffffffffffffffffffffffffffffffffffffff1614156119d7576119d281611c99565b611a16565b8173ffffffffffffffffffffffffffffffffffffffff168373ffffffffffffffffffffffffffffffffffffffff1614611a1557611a148382611ce2565b5b5b600073ffffffffffffffffffffffffffffffffffffffff168273ffffffffffffffffffffffffffffffffffffffff161415611a5957611a5481611e4f565b611a98565b8273ffffffffffffffffffffffffffffffffffffffff168273ffffffffffffffffffffffffffffffffffffffff1614611a9757611a968282611f92565b5b5b505050565b505050565b611aac8383612011565b611ab96000848484611afd565b611af8576040517f08c379a0000000000000000000000000000000000000000000000000000000008152600401611aef90612920565b60405180910390fd5b505050565b6000611b1e8473ffffffffffffffffffffffffffffffffffffffff166121eb565b15611c87578373ffffffffffffffffffffffffffffffffffffffff1663150b7a02611b47610eea565b8786866040518563ffffffff1660e01b8152600401611b699493929190612877565b602060405180830381600087803b158015611b8357600080fd5b505af1925050508015611bb457506040513d601f19601f82011682018060405250810190611bb191906124af565b60015b611c37573d8060008114611be4576040519150601f19603f3d011682016040523d82523d6000602084013e611be9565b606091505b50600081511415611c2f576040517f08c379a0000000000000000000000000000000000000000000000000000000008152600401611c2690612920565b60405180910390fd5b805181602001fd5b63150b7a0260e01b7bffffffffffffffffffffffffffffffffffffffffffffffffffffffff1916817bffffffffffffffffffffffffffffffffffffffffffffffffffffffff191614915050611c8c565b600190505b949350505050565b505050565b6008805490506009600083815260200190815260200160002081905550600881908060018154018082558091505060019003906000526020600020016000909190919091505550565b60006001611cef84610a19565b611cf99190612c1b565b9050600060076000848152602001908152602001600020549050818114611dde576000600660008673ffffffffffffffffffffffffffffffffffffffff1673ffffffffffffffffffffffffffffffffffffffff168152602001908152602001600020600084815260200190815260200160002054905080600660008773ffffffffffffffffffffffffffffffffffffffff1673ffffffffffffffffffffffffffffffffffffffff168152602001908152602001600020600084815260200190815260200160002081905550816007600083815260200190815260200160002081905550505b6007600084815260200190815260200160002060009055600660008573ffffffffffffffffffffffffffffffffffffffff1673ffffffffffffffffffffffffffffffffffffffff16815260200190815260200160002060008381526020019081526020016000206000905550505050565b60006001600880549050611e639190612c1b565b9050600060096000848152602001908152602001600020549050600060088381548110611eb9577f4e487b7100000000000000000000000000000000000000000000000000000000600052603260045260246000fd5b906000526020600020015490508060088381548110611f01577f4e487b7100000000000000000000000000000000000000000000000000000000600052603260045260246000fd5b906000526020600020018190555081600960008381526020019081526020016000208190555060096000858152602001908152602001600020600090556008805480611f76577f4e487b7100000000000000000000000000000000000000000000000000000000600052603160045260246000fd5b6001900381819060005260206000200160009055905550505050565b6000611f9d83610a19565b905081600660008573ffffffffffffffffffffffffffffffffffffffff1673ffffffffffffffffffffffffffffffffffffffff168152602001908152602001600020600083815260200190815260200160002081905550806007600084815260200190815260200160002081905550505050565b600073ffffffffffffffffffffffffffffffffffffffff168273ffffffffffffffffffffffffffffffffffffffff161415612081576040517f08c379a000000000000000000000000000000000000000000000000000000000815260040161207890612a20565b60405180910390fd5b61208a8161191d565b156120ca576040517f08c379a00000000000000000000000000000000000000000000000000000000081526004016120c190612980565b60405180910390fd5b6120d660008383611989565b6001600360008473ffffffffffffffffffffffffffffffffffffffff1673ffffffffffffffffffffffffffffffffffffffff16815260200190815260200160002060008282546121269190612b94565b92505081905550816002600083815260200190815260200160002060006101000a81548173ffffffffffffffffffffffffffffffffffffffff021916908373ffffffffffffffffffffffffffffffffffffffff160217905550808273ffffffffffffffffffffffffffffffffffffffff16600073ffffffffffffffffffffffffffffffffffffffff167fddf252ad1be2c89b69c2b068fc378daa952ba7f163c4a11628f55a4df523b3ef60405160405180910390a46121e760008383611a9d565b5050565b6000808273ffffffffffffffffffffffffffffffffffffffff163b119050919050565b600061222161221c84612b20565b612afb565b90508281526020810184848401111561223957600080fd5b612244848285612cc3565b509392505050565b60008135905061225b816132cd565b92915050565b600081359050612270816132e4565b92915050565b600081359050612285816132fb565b92915050565b60008151905061229a816132fb565b92915050565b600082601f8301126122b157600080fd5b81356122c184826020860161220e565b91505092915050565b6000813590506122d981613312565b92915050565b6000602082840312156122f157600080fd5b60006122ff8482850161224c565b91505092915050565b6000806040838503121561231b57600080fd5b60006123298582860161224c565b925050602061233a8582860161224c565b9150509250929050565b60008060006060848603121561235957600080fd5b60006123678682870161224c565b93505060206123788682870161224c565b9250506040612389868287016122ca565b9150509250925092565b600080600080608085870312156123a957600080fd5b60006123b78782880161224c565b94505060206123c88782880161224c565b93505060406123d9878288016122ca565b925050606085013567ffffffffffffffff8111156123f657600080fd5b612402878288016122a0565b91505092959194509250565b6000806040838503121561242157600080fd5b600061242f8582860161224c565b925050602061244085828601612261565b9150509250929050565b6000806040838503121561245d57600080fd5b600061246b8582860161224c565b925050602061247c858286016122ca565b9150509250929050565b60006020828403121561249857600080fd5b60006124a684828501612276565b91505092915050565b6000602082840312156124c157600080fd5b60006124cf8482850161228b565b91505092915050565b6000602082840312156124ea57600080fd5b60006124f8848285016122ca565b91505092915050565b61250a81612c4f565b82525050565b61252161251c82612c4f565b612db1565b82525050565b61253081612c61565b82525050565b600061254182612b51565b61254b8185612b67565b935061255b818560208601612cd2565b61256481612ecc565b840191505092915050565b600061257a82612b5c565b6125848185612b78565b9350612594818560208601612cd2565b61259d81612ecc565b840191505092915050565b60006125b382612b5c565b6125bd8185612b89565b93506125cd818560208601612cd2565b80840191505092915050565b60006125e6602b83612b78565b91506125f182612eea565b604082019050919050565b6000612609603283612b78565b915061261482612f39565b604082019050919050565b600061262c602683612b78565b915061263782612f88565b604082019050919050565b600061264f602583612b78565b915061265a82612fd7565b604082019050919050565b6000612672601c83612b78565b915061267d82613026565b602082019050919050565b6000612695602483612b78565b91506126a08261304f565b604082019050919050565b60006126b8601983612b78565b91506126c38261309e565b602082019050919050565b60006126db602983612b78565b91506126e6826130c7565b604082019050919050565b60006126fe603e83612b78565b915061270982613116565b604082019050919050565b6000612721602083612b78565b915061272c82613165565b602082019050919050565b6000612744602083612b78565b915061274f8261318e565b602082019050919050565b6000612767601883612b78565b9150612772826131b7565b602082019050919050565b600061278a602183612b78565b9150612795826131e0565b604082019050919050565b60006127ad602c83612b78565b91506127b88261322f565b604082019050919050565b60006127d0602e83612b78565b91506127db8261327e565b604082019050919050565b6127ef81612cb9565b82525050565b61280661280182612cb9565b612dd5565b82525050565b60006128188285612510565b60148201915061282882846127f5565b6020820191508190509392505050565b600061284482856125a8565b915061285082846125a8565b91508190509392505050565b60006020820190506128716000830184612501565b92915050565b600060808201905061288c6000830187612501565b6128996020830186612501565b6128a660408301856127e6565b81810360608301526128b88184612536565b905095945050505050565b60006020820190506128d86000830184612527565b92915050565b600060208201905081810360008301526128f8818461256f565b905092915050565b60006020820190508181036000830152612919816125d9565b9050919050565b60006020820190508181036000830152612939816125fc565b9050919050565b600060208201905081810360008301526129598161261f565b9050919050565b6000602082019050818103600083015261297981612642565b9050919050565b6000602082019050818103600083015261299981612665565b9050919050565b600060208201905081810360008301526129b981612688565b9050919050565b600060208201905081810360008301526129d9816126ab565b9050919050565b600060208201905081810360008301526129f9816126ce565b9050919050565b60006020820190508181036000830152612a19816126f1565b9050919050565b60006020820190508181036000830152612a3981612714565b9050919050565b60006020820190508181036000830152612a5981612737565b9050919050565b60006020820190508181036000830152612a798161275a565b9050919050565b60006020820190508181036000830152612a998161277d565b9050919050565b60006020820190508181036000830152612ab9816127a0565b9050919050565b60006020820190508181036000830152612ad9816127c3565b9050919050565b6000602082019050612af560008301846127e6565b92915050565b6000612b05612b16565b9050612b118282612d37565b919050565b6000604051905090565b600067ffffffffffffffff821115612b3b57612b3a612e9d565b5b612b4482612ecc565b9050602081019050919050565b600081519050919050565b600081519050919050565b600082825260208201905092915050565b600082825260208201905092915050565b600081905092915050565b6000612b9f82612cb9565b9150612baa83612cb9565b9250827fffffffffffffffffffffffffffffffffffffffffffffffffffffffffffffffff03821115612bdf57612bde612e10565b5b828201905092915050565b6000612bf582612cb9565b9150612c0083612cb9565b925082612c1057612c0f612e3f565b5b828204905092915050565b6000612c2682612cb9565b9150612c3183612cb9565b925082821015612c4457612c43612e10565b5b828203905092915050565b6000612c5a82612c99565b9050919050565b60008115159050919050565b60007fffffffff0000000000000000000000000000000000000000000000000000000082169050919050565b600073ffffffffffffffffffffffffffffffffffffffff82169050919050565b6000819050919050565b82818337600083830152505050565b60005b83811015612cf0578082015181840152602081019050612cd5565b83811115612cff576000848401525b50505050565b60006002820490506001821680612d1d57607f821691505b60208210811415612d3157612d30612e6e565b5b50919050565b612d4082612ecc565b810181811067ffffffffffffffff82111715612d5f57612d5e612e9d565b5b80604052505050565b6000612d7382612cb9565b91507fffffffffffffffffffffffffffffffffffffffffffffffffffffffffffffffff821415612da657612da5612e10565b5b600182019050919050565b6000612dbc82612dc3565b9050919050565b6000612dce82612edd565b9050919050565b6000819050919050565b6000612dea82612cb9565b9150612df583612cb9565b925082612e0557612e04612e3f565b5b828206905092915050565b7f4e487b7100000000000000000000000000000000000000000000000000000000600052601160045260246000fd5b7f4e487b7100000000000000000000000000000000000000000000000000000000600052601260045260246000fd5b7f4e487b7100000000000000000000000000000000000000000000000000000000600052602260045260246000fd5b7f4e487b7100000000000000000000000000000000000000000000000000000000600052604160045260246000fd5b6000601f19601f8301169050919050565b60008160601b9050919050565b7f455243373231456e756d657261626c653a206f776e657220696e646578206f7560008201527f74206f6620626f756e6473000000000000000000000000000000000000000000602082015250565b7f4552433732313a207472616e7366657220746f206e6f6e20455243373231526560008201527f63656976657220696d706c656d656e7465720000000000000000000000000000602082015250565b7f4f776e61626c653a206e6577206f776e657220697320746865207a65726f206160008201527f6464726573730000000000000000000000000000000000000000000000000000602082015250565b7f4552433732313a207472616e736665722066726f6d20696e636f72726563742060008201527f6f776e6572000000000000000000000000000000000000000000000000000000602082015250565b7f4552433732313a20746f6b656e20616c7265616479206d696e74656400000000600082015250565b7f4552433732313a207472616e7366657220746f20746865207a65726f2061646460008201527f7265737300000000000000000000000000000000000000000000000000000000602082015250565b7f4552433732313a20617070726f766520746f2063616c6c657200000000000000600082015250565b7f4552433732313a2061646472657373207a65726f206973206e6f74206120766160008201527f6c6964206f776e65720000000000000000000000000000000000000000000000602082015250565b7f4552433732313a20617070726f76652063616c6c6572206973206e6f7420746f60008201527f6b656e206f776e6572206e6f7220617070726f76656420666f7220616c6c0000602082015250565b7f4552433732313a206d696e7420746f20746865207a65726f2061646472657373600082015250565b7f4f776e61626c653a2063616c6c6572206973206e6f7420746865206f776e6572600082015250565b7f4552433732313a20696e76616c696420746f6b656e2049440000000000000000600082015250565b7f4552433732313a20617070726f76616c20746f2063757272656e74206f776e6560008201527f7200000000000000000000000000000000000000000000000000000000000000602082015250565b7f455243373231456e756d657261626c653a20676c6f62616c20696e646578206f60008201527f7574206f6620626f756e64730000000000000000000000000000000000000000602082015250565b7f4552433732313a2063616c6c6572206973206e6f7420746f6b656e206f776e6560008201527f72206e6f7220617070726f766564000000000000000000000000000000000000602082015250565b6132d681612c4f565b81146132e157600080fd5b50565b6132ed81612c61565b81146132f857600080fd5b50565b61330481612c6d565b811461330f57600080fd5b50565b61331b81612cb9565b811461332657600080fd5b5056fea2646970667358221220ddeaf6917ce1461e2d9e0459879928008d6b8303cdd085d71686fe733a8bc6ba64736f6c63430008040033",
  "linkReferences": {},
  "deployedLinkReferences": {}
}