{
  "_format": "hh-sol-artifact-1",
  "contractName": "NotaryNft",
  "sourceName": "contracts/NotaryNft.sol",
  "abi": [
    {
      "inputs": [],
      "stateMutability": "nonpayable",
      "type": "constructor"
    },
    {
      "inputs": [
        {
          "internalType": "address",
          "name": "to",
          "type": "address"
        }
      ],
      "name": "OnlyOneTokenAllowedPerAddress",
      "type": "error"
    },
    {
      "inputs": [
        {
          "internalType": "string",
          "name": "notaryId",
          "type": "string"
        }
      ],
      "name": "OnlyOneTokenAllowedPerNotaryId",
      "type": "error"
    },
    {
      "anonymous": false,
      "inputs": [
        {
          "indexed": true,
          "internalType": "address",
          "name": "owner",
          "type": "address"
        },
        {
          "indexed": true,
          "internalType": "address",
          "name": "approved",
          "type": "address"
        },
        {
          "indexed": true,
          "internalType": "uint256",
          "name": "tokenId",
          "type": "uint256"
        }
      ],
      "name": "Approval",
      "type": "event"
    },
    {
      "anonymous": false,
      "inputs": [
        {
          "indexed": true,
          "internalType": "address",
          "name": "owner",
          "type": "address"
        },
        {
          "indexed": true,
          "internalType": "address",
          "name": "operator",
          "type": "address"
        },
        {
          "indexed": false,
          "internalType": "bool",
          "name": "approved",
          "type": "bool"
        }
      ],
      "name": "ApprovalForAll",
      "type": "event"
    },
    {
      "anonymous": false,
      "inputs": [
        {
          "indexed": true,
          "internalType": "address",
          "name": "previousOwner",
          "type": "address"
        },
        {
          "indexed": true,
          "internalType": "address",
          "name": "newOwner",
          "type": "address"
        }
      ],
      "name": "OwnershipTransferred",
      "type": "event"
    },
    {
      "anonymous": false,
      "inputs": [
        {
          "indexed": true,
          "internalType": "address",
          "name": "from",
          "type": "address"
        },
        {
          "indexed": true,
          "internalType": "address",
          "name": "to",
          "type": "address"
        },
        {
          "indexed": true,
          "internalType": "uint256",
          "name": "tokenId",
          "type": "uint256"
        }
      ],
      "name": "Transfer",
      "type": "event"
    },
    {
      "inputs": [
        {
          "internalType": "address",
          "name": "to",
          "type": "address"
        },
        {
          "internalType": "uint256",
          "name": "tokenId",
          "type": "uint256"
        }
      ],
      "name": "approve",
      "outputs": [],
      "stateMutability": "nonpayable",
      "type": "function"
    },
    {
      "inputs": [
        {
          "internalType": "address",
          "name": "owner",
          "type": "address"
        }
      ],
      "name": "balanceOf",
      "outputs": [
        {
          "internalType": "uint256",
          "name": "",
          "type": "uint256"
        }
      ],
      "stateMutability": "view",
      "type": "function"
    },
    {
      "inputs": [
        {
          "internalType": "uint256",
          "name": "tokenId",
          "type": "uint256"
        }
      ],
      "name": "getApproved",
      "outputs": [
        {
          "internalType": "address",
          "name": "",
          "type": "address"
        }
      ],
      "stateMutability": "view",
      "type": "function"
    },
    {
      "inputs": [
        {
          "internalType": "uint256",
          "name": "",
          "type": "uint256"
        }
      ],
      "name": "isActive",
      "outputs": [
        {
          "internalType": "bool",
          "name": "",
          "type": "bool"
        }
      ],
      "stateMutability": "view",
      "type": "function"
    },
    {
      "inputs": [
        {
          "internalType": "address",
          "name": "owner",
          "type": "address"
        },
        {
          "internalType": "address",
          "name": "operator",
          "type": "address"
        }
      ],
      "name": "isApprovedForAll",
      "outputs": [
        {
          "internalType": "bool",
          "name": "",
          "type": "bool"
        }
      ],
      "stateMutability": "view",
      "type": "function"
    },
    {
      "inputs": [
        {
          "internalType": "address",
          "name": "to",
          "type": "address"
        },
        {
          "internalType": "string",
          "name": "notaryId",
          "type": "string"
        },
        {
          "internalType": "string",
          "name": "_metadataUri",
          "type": "string"
        }
      ],
      "name": "mint",
      "outputs": [
        {
          "internalType": "uint256",
          "name": "tokenId",
          "type": "uint256"
        }
      ],
      "stateMutability": "nonpayable",
      "type": "function"
    },
    {
      "inputs": [],
      "name": "name",
      "outputs": [
        {
          "internalType": "string",
          "name": "",
          "type": "string"
        }
      ],
      "stateMutability": "view",
      "type": "function"
    },
    {
      "inputs": [],
      "name": "owner",
      "outputs": [
        {
          "internalType": "address",
          "name": "",
          "type": "address"
        }
      ],
      "stateMutability": "view",
      "type": "function"
    },
    {
      "inputs": [
        {
          "internalType": "uint256",
          "name": "tokenId",
          "type": "uint256"
        }
      ],
      "name": "ownerOf",
      "outputs": [
        {
          "internalType": "address",
          "name": "",
          "type": "address"
        }
      ],
      "stateMutability": "view",
      "type": "function"
    },
    {
      "inputs": [],
      "name": "renounceOwnership",
      "outputs": [],
      "stateMutability": "nonpayable",
      "type": "function"
    },
    {
      "inputs": [
        {
          "internalType": "address",
          "name": "from",
          "type": "address"
        },
        {
          "internalType": "address",
          "name": "to",
          "type": "address"
        },
        {
          "internalType": "uint256",
          "name": "tokenId",
          "type": "uint256"
        }
      ],
      "name": "safeTransferFrom",
      "outputs": [],
      "stateMutability": "nonpayable",
      "type": "function"
    },
    {
      "inputs": [
        {
          "internalType": "address",
          "name": "from",
          "type": "address"
        },
        {
          "internalType": "address",
          "name": "to",
          "type": "address"
        },
        {
          "internalType": "uint256",
          "name": "tokenId",
          "type": "uint256"
        },
        {
          "internalType": "bytes",
          "name": "data",
          "type": "bytes"
        }
      ],
      "name": "safeTransferFrom",
      "outputs": [],
      "stateMutability": "nonpayable",
      "type": "function"
    },
    {
      "inputs": [
        {
          "internalType": "address",
          "name": "operator",
          "type": "address"
        },
        {
          "internalType": "bool",
          "name": "approved",
          "type": "bool"
        }
      ],
      "name": "setApprovalForAll",
      "outputs": [],
      "stateMutability": "nonpayable",
      "type": "function"
    },
    {
      "inputs": [
        {
          "internalType": "bytes4",
          "name": "interfaceId",
          "type": "bytes4"
        }
      ],
      "name": "supportsInterface",
      "outputs": [
        {
          "internalType": "bool",
          "name": "",
          "type": "bool"
        }
      ],
      "stateMutability": "view",
      "type": "function"
    },
    {
      "inputs": [],
      "name": "symbol",
      "outputs": [
        {
          "internalType": "string",
          "name": "",
          "type": "string"
        }
      ],
      "stateMutability": "view",
      "type": "function"
    },
    {
      "inputs": [
        {
          "internalType": "string",
          "name": "",
          "type": "string"
        }
      ],
      "name": "tokenByNotaryId",
      "outputs": [
        {
          "internalType": "uint256",
          "name": "",
          "type": "uint256"
        }
      ],
      "stateMutability": "view",
      "type": "function"
    },
    {
      "inputs": [
        {
          "internalType": "uint256",
          "name": "tokenId",
          "type": "uint256"
        }
      ],
      "name": "tokenURI",
      "outputs": [
        {
          "internalType": "string",
          "name": "",
          "type": "string"
        }
      ],
      "stateMutability": "view",
      "type": "function"
    },
    {
      "inputs": [
        {
          "internalType": "address",
          "name": "from",
          "type": "address"
        },
        {
          "internalType": "address",
          "name": "to",
          "type": "address"
        },
        {
          "internalType": "uint256",
          "name": "tokenId",
          "type": "uint256"
        }
      ],
      "name": "transferFrom",
      "outputs": [],
      "stateMutability": "nonpayable",
      "type": "function"
    },
    {
      "inputs": [
        {
          "internalType": "address",
          "name": "newOwner",
          "type": "address"
        }
      ],
      "name": "transferOwnership",
      "outputs": [],
      "stateMutability": "nonpayable",
      "type": "function"
    }
  ],
  "bytecode": "0x608060405260006008553480156200001657600080fd5b506040518060400160405280601b81526020017f5665726966696564204e6f746172792043726564656e7469616c7300000000008152506040518060400160405280600b81526020017f4e6f74617279204365727400000000000000000000000000000000000000000081525081600090805190602001906200009b929190620001ab565b508060019080519060200190620000b4929190620001ab565b505050620000d7620000cb620000dd60201b60201c565b620000e560201b60201c565b620002c0565b600033905090565b6000600760009054906101000a900473ffffffffffffffffffffffffffffffffffffffff16905081600760006101000a81548173ffffffffffffffffffffffffffffffffffffffff021916908373ffffffffffffffffffffffffffffffffffffffff1602179055508173ffffffffffffffffffffffffffffffffffffffff168173ffffffffffffffffffffffffffffffffffffffff167f8be0079c531659141344cd1fd0a4f28419497f9722a3daafe3b4186f6b6457e060405160405180910390a35050565b828054620001b9906200025b565b90600052602060002090601f016020900481019282620001dd576000855562000229565b82601f10620001f857805160ff191683800117855562000229565b8280016001018555821562000229579182015b82811115620002285782518255916020019190600101906200020b565b5b5090506200023891906200023c565b5090565b5b80821115620002575760008160009055506001016200023d565b5090565b600060028204905060018216806200027457607f821691505b602082108114156200028b576200028a62000291565b5b50919050565b7f4e487b7100000000000000000000000000000000000000000000000000000000600052602260045260246000fd5b612e8280620002d06000396000f3fe608060405234801561001057600080fd5b50600436106101215760003560e01c8063715018a6116100ad578063a22cb46511610071578063a22cb4651461032e578063b88d4fde1461034a578063c87b56dd14610366578063e985e9c514610396578063f2fde38b146103c657610121565b8063715018a61461028857806382afd23b146102925780638da5cb5b146102c257806395d89b41146102e057806399071190146102fe57610121565b806323b872dd116100f457806323b872dd146101c057806342842e0e146101dc5780636352211e146101f85780636c885f081461022857806370a082311461025857610121565b806301ffc9a71461012657806306fdde0314610156578063081812fc14610174578063095ea7b3146101a4575b600080fd5b610140600480360381019061013b9190612047565b6103e2565b60405161014d919061245f565b60405180910390f35b61015e6104c4565b60405161016b919061247a565b60405180910390f35b61018e600480360381019061018991906120da565b610556565b60405161019b91906123f8565b60405180910390f35b6101be60048036038101906101b9919061200b565b61059c565b005b6101da60048036038101906101d59190611e86565b6106b4565b005b6101f660048036038101906101f19190611e86565b610714565b005b610212600480360381019061020d91906120da565b610734565b60405161021f91906123f8565b60405180910390f35b610242600480360381019061023d9190612099565b6107e6565b60405161024f919061265c565b60405180910390f35b610272600480360381019061026d9190611e21565b610814565b60405161027f919061265c565b60405180910390f35b6102906108cc565b005b6102ac60048036038101906102a791906120da565b6108e0565b6040516102b9919061245f565b60405180910390f35b6102ca610900565b6040516102d791906123f8565b60405180910390f35b6102e861092a565b6040516102f5919061247a565b60405180910390f35b61031860048036038101906103139190611f8c565b6109bc565b604051610325919061265c565b60405180910390f35b61034860048036038101906103439190611f50565b610b00565b005b610364600480360381019061035f9190611ed5565b610b16565b005b610380600480360381019061037b91906120da565b610b78565b60405161038d919061247a565b60405180910390f35b6103b060048036038101906103ab9190611e4a565b610c8b565b6040516103bd919061245f565b60405180910390f35b6103e060048036038101906103db9190611e21565b610d1f565b005b60007f80ac58cd000000000000000000000000000000000000000000000000000000007bffffffffffffffffffffffffffffffffffffffffffffffffffffffff1916827bffffffffffffffffffffffffffffffffffffffffffffffffffffffff191614806104ad57507f5b5e139f000000000000000000000000000000000000000000000000000000007bffffffffffffffffffffffffffffffffffffffffffffffffffffffff1916827bffffffffffffffffffffffffffffffffffffffffffffffffffffffff1916145b806104bd57506104bc82610da3565b5b9050919050565b6060600080546104d3906128b2565b80601f01602080910402602001604051908101604052809291908181526020018280546104ff906128b2565b801561054c5780601f106105215761010080835404028352916020019161054c565b820191906000526020600020905b81548152906001019060200180831161052f57829003601f168201915b5050505050905090565b600061056182610e0d565b6004600083815260200190815260200160002060009054906101000a900473ffffffffffffffffffffffffffffffffffffffff169050919050565b60006105a782610734565b90508073ffffffffffffffffffffffffffffffffffffffff168373ffffffffffffffffffffffffffffffffffffffff161415610618576040517f08c379a000000000000000000000000000000000000000000000000000000000815260040161060f9061261c565b60405180910390fd5b8073ffffffffffffffffffffffffffffffffffffffff16610637610e58565b73ffffffffffffffffffffffffffffffffffffffff161480610666575061066581610660610e58565b610c8b565b5b6106a5576040517f08c379a000000000000000000000000000000000000000000000000000000000815260040161069c9061259c565b60405180910390fd5b6106af8383610e60565b505050565b6106c56106bf610e58565b82610f19565b610704576040517f08c379a00000000000000000000000000000000000000000000000000000000081526004016106fb9061263c565b60405180910390fd5b61070f838383610fae565b505050565b61072f83838360405180602001604052806000815250610b16565b505050565b6000806002600084815260200190815260200160002060009054906101000a900473ffffffffffffffffffffffffffffffffffffffff169050600073ffffffffffffffffffffffffffffffffffffffff168173ffffffffffffffffffffffffffffffffffffffff1614156107dd576040517f08c379a00000000000000000000000000000000000000000000000000000000081526004016107d4906125fc565b60405180910390fd5b80915050919050565b6009818051602081018201805184825260208301602085012081835280955050505050506000915090505481565b60008073ffffffffffffffffffffffffffffffffffffffff168273ffffffffffffffffffffffffffffffffffffffff161415610885576040517f08c379a000000000000000000000000000000000000000000000000000000000815260040161087c9061255c565b60405180910390fd5b600360008373ffffffffffffffffffffffffffffffffffffffff1673ffffffffffffffffffffffffffffffffffffffff168152602001908152602001600020549050919050565b6108d4611215565b6108de6000611293565b565b600a6020528060005260406000206000915054906101000a900460ff1681565b6000600760009054906101000a900473ffffffffffffffffffffffffffffffffffffffff16905090565b606060018054610939906128b2565b80601f0160208091040260200160405190810160405280929190818152602001828054610965906128b2565b80156109b25780601f10610987576101008083540402835291602001916109b2565b820191906000526020600020905b81548152906001019060200180831161099557829003601f168201915b5050505050905090565b60008360006109ca82610814565b14610a0c57806040517fe58d1d4a000000000000000000000000000000000000000000000000000000008152600401610a0391906123f8565b60405180910390fd5b836000600982604051610a1f91906123bd565b90815260200160405180910390205414610a7057806040517f7c7df932000000000000000000000000000000000000000000000000000000008152600401610a67919061247a565b60405180910390fd5b6001600854610a7f9190612741565b925082600986604051610a9291906123bd565b9081526020016040518091039020819055506001600a600085815260200190815260200160002060006101000a81548160ff021916908315150217905550610ada8684611359565b610ae48385611377565b600183610af19190612741565b60088190555050509392505050565b610b12610b0b610e58565b83836113eb565b5050565b610b27610b21610e58565b83610f19565b610b66576040517f08c379a0000000000000000000000000000000000000000000000000000000008152600401610b5d9061263c565b60405180910390fd5b610b7284848484611558565b50505050565b6060610b8382610e0d565b6000600660008481526020019081526020016000208054610ba3906128b2565b80601f0160208091040260200160405190810160405280929190818152602001828054610bcf906128b2565b8015610c1c5780601f10610bf157610100808354040283529160200191610c1c565b820191906000526020600020905b815481529060010190602001808311610bff57829003601f168201915b505050505090506000610c2d6115b4565b9050600081511415610c43578192505050610c86565b600082511115610c78578082604051602001610c609291906123d4565b60405160208183030381529060405292505050610c86565b610c81846115cb565b925050505b919050565b6000600560008473ffffffffffffffffffffffffffffffffffffffff1673ffffffffffffffffffffffffffffffffffffffff16815260200190815260200160002060008373ffffffffffffffffffffffffffffffffffffffff1673ffffffffffffffffffffffffffffffffffffffff16815260200190815260200160002060009054906101000a900460ff16905092915050565b610d27611215565b600073ffffffffffffffffffffffffffffffffffffffff168173ffffffffffffffffffffffffffffffffffffffff161415610d97576040517f08c379a0000000000000000000000000000000000000000000000000000000008152600401610d8e906124bc565b60405180910390fd5b610da081611293565b50565b60007f01ffc9a7000000000000000000000000000000000000000000000000000000007bffffffffffffffffffffffffffffffffffffffffffffffffffffffff1916827bffffffffffffffffffffffffffffffffffffffffffffffffffffffff1916149050919050565b610e1681611633565b610e55576040517f08c379a0000000000000000000000000000000000000000000000000000000008152600401610e4c906125fc565b60405180910390fd5b50565b600033905090565b816004600083815260200190815260200160002060006101000a81548173ffffffffffffffffffffffffffffffffffffffff021916908373ffffffffffffffffffffffffffffffffffffffff160217905550808273ffffffffffffffffffffffffffffffffffffffff16610ed383610734565b73ffffffffffffffffffffffffffffffffffffffff167f8c5be1e5ebec7d5bd14f71427d1e84f3dd0314c0f7b2291e5b200ac8c7c3b92560405160405180910390a45050565b600080610f2583610734565b90508073ffffffffffffffffffffffffffffffffffffffff168473ffffffffffffffffffffffffffffffffffffffff161480610f675750610f668185610c8b565b5b80610fa557508373ffffffffffffffffffffffffffffffffffffffff16610f8d84610556565b73ffffffffffffffffffffffffffffffffffffffff16145b91505092915050565b8273ffffffffffffffffffffffffffffffffffffffff16610fce82610734565b73ffffffffffffffffffffffffffffffffffffffff1614611024576040517f08c379a000000000000000000000000000000000000000000000000000000000815260040161101b906124dc565b60405180910390fd5b600073ffffffffffffffffffffffffffffffffffffffff168273ffffffffffffffffffffffffffffffffffffffff161415611094576040517f08c379a000000000000000000000000000000000000000000000000000000000815260040161108b9061251c565b60405180910390fd5b61109f83838361169f565b6110aa600082610e60565b6001600360008573ffffffffffffffffffffffffffffffffffffffff1673ffffffffffffffffffffffffffffffffffffffff16815260200190815260200160002060008282546110fa91906127c8565b925050819055506001600360008473ffffffffffffffffffffffffffffffffffffffff1673ffffffffffffffffffffffffffffffffffffffff16815260200190815260200160002060008282546111519190612741565b92505081905550816002600083815260200190815260200160002060006101000a81548173ffffffffffffffffffffffffffffffffffffffff021916908373ffffffffffffffffffffffffffffffffffffffff160217905550808273ffffffffffffffffffffffffffffffffffffffff168473ffffffffffffffffffffffffffffffffffffffff167fddf252ad1be2c89b69c2b068fc378daa952ba7f163c4a11628f55a4df523b3ef60405160405180910390a46112108383836116a4565b505050565b61121d610e58565b73ffffffffffffffffffffffffffffffffffffffff1661123b610900565b73ffffffffffffffffffffffffffffffffffffffff1614611291576040517f08c379a0000000000000000000000000000000000000000000000000000000008152600401611288906125dc565b60405180910390fd5b565b6000600760009054906101000a900473ffffffffffffffffffffffffffffffffffffffff16905081600760006101000a81548173ffffffffffffffffffffffffffffffffffffffff021916908373ffffffffffffffffffffffffffffffffffffffff1602179055508173ffffffffffffffffffffffffffffffffffffffff168173ffffffffffffffffffffffffffffffffffffffff167f8be0079c531659141344cd1fd0a4f28419497f9722a3daafe3b4186f6b6457e060405160405180910390a35050565b6113738282604051806020016040528060008152506116a9565b5050565b61138082611633565b6113bf576040517f08c379a00000000000000000000000000000000000000000000000000000000081526004016113b69061257c565b60405180910390fd5b806006600084815260200190815260200160002090805190602001906113e6929190611c45565b505050565b8173ffffffffffffffffffffffffffffffffffffffff168373ffffffffffffffffffffffffffffffffffffffff16141561145a576040517f08c379a00000000000000000000000000000000000000000000000000000000081526004016114519061253c565b60405180910390fd5b80600560008573ffffffffffffffffffffffffffffffffffffffff1673ffffffffffffffffffffffffffffffffffffffff16815260200190815260200160002060008473ffffffffffffffffffffffffffffffffffffffff1673ffffffffffffffffffffffffffffffffffffffff16815260200190815260200160002060006101000a81548160ff0219169083151502179055508173ffffffffffffffffffffffffffffffffffffffff168373ffffffffffffffffffffffffffffffffffffffff167f17307eab39ab6107e8899845ad3d59bd9653f200f220920489ca2b5937696c318360405161154b919061245f565b60405180910390a3505050565b611563848484610fae565b61156f84848484611704565b6115ae576040517f08c379a00000000000000000000000000000000000000000000000000000000081526004016115a59061249c565b60405180910390fd5b50505050565b606060405180602001604052806000815250905090565b60606115d682610e0d565b60006115e06115b4565b90506000815111611600576040518060200160405280600081525061162b565b8061160a8461189b565b60405160200161161b9291906123d4565b6040516020818303038152906040525b915050919050565b60008073ffffffffffffffffffffffffffffffffffffffff166002600084815260200190815260200160002060009054906101000a900473ffffffffffffffffffffffffffffffffffffffff1673ffffffffffffffffffffffffffffffffffffffff1614159050919050565b505050565b505050565b6116b38383611a48565b6116c06000848484611704565b6116ff576040517f08c379a00000000000000000000000000000000000000000000000000000000081526004016116f69061249c565b60405180910390fd5b505050565b60006117258473ffffffffffffffffffffffffffffffffffffffff16611c22565b1561188e578373ffffffffffffffffffffffffffffffffffffffff1663150b7a0261174e610e58565b8786866040518563ffffffff1660e01b81526004016117709493929190612413565b602060405180830381600087803b15801561178a57600080fd5b505af19250505080156117bb57506040513d601f19601f820116820180604052508101906117b89190612070565b60015b61183e573d80600081146117eb576040519150601f19603f3d011682016040523d82523d6000602084013e6117f0565b606091505b50600081511415611836576040517f08c379a000000000000000000000000000000000000000000000000000000000815260040161182d9061249c565b60405180910390fd5b805181602001fd5b63150b7a0260e01b7bffffffffffffffffffffffffffffffffffffffffffffffffffffffff1916817bffffffffffffffffffffffffffffffffffffffffffffffffffffffff191614915050611893565b600190505b949350505050565b606060008214156118e3576040518060400160405280600181526020017f30000000000000000000000000000000000000000000000000000000000000008152509050611a43565b600082905060005b600082146119155780806118fe90612915565b915050600a8261190e9190612797565b91506118eb565b60008167ffffffffffffffff811115611957577f4e487b7100000000000000000000000000000000000000000000000000000000600052604160045260246000fd5b6040519080825280601f01601f1916602001820160405280156119895781602001600182028036833780820191505090505b5090505b60008514611a3c576001826119a291906127c8565b9150600a856119b1919061295e565b60306119bd9190612741565b60f81b8183815181106119f9577f4e487b7100000000000000000000000000000000000000000000000000000000600052603260045260246000fd5b60200101907effffffffffffffffffffffffffffffffffffffffffffffffffffffffffffff1916908160001a905350600a85611a359190612797565b945061198d565b8093505050505b919050565b600073ffffffffffffffffffffffffffffffffffffffff168273ffffffffffffffffffffffffffffffffffffffff161415611ab8576040517f08c379a0000000000000000000000000000000000000000000000000000000008152600401611aaf906125bc565b60405180910390fd5b611ac181611633565b15611b01576040517f08c379a0000000000000000000000000000000000000000000000000000000008152600401611af8906124fc565b60405180910390fd5b611b0d6000838361169f565b6001600360008473ffffffffffffffffffffffffffffffffffffffff1673ffffffffffffffffffffffffffffffffffffffff1681526020019081526020016000206000828254611b5d9190612741565b92505081905550816002600083815260200190815260200160002060006101000a81548173ffffffffffffffffffffffffffffffffffffffff021916908373ffffffffffffffffffffffffffffffffffffffff160217905550808273ffffffffffffffffffffffffffffffffffffffff16600073ffffffffffffffffffffffffffffffffffffffff167fddf252ad1be2c89b69c2b068fc378daa952ba7f163c4a11628f55a4df523b3ef60405160405180910390a4611c1e600083836116a4565b5050565b6000808273ffffffffffffffffffffffffffffffffffffffff163b119050919050565b828054611c51906128b2565b90600052602060002090601f016020900481019282611c735760008555611cba565b82601f10611c8c57805160ff1916838001178555611cba565b82800160010185558215611cba579182015b82811115611cb9578251825591602001919060010190611c9e565b5b509050611cc79190611ccb565b5090565b5b80821115611ce4576000816000905550600101611ccc565b5090565b6000611cfb611cf68461269c565b612677565b905082815260208101848484011115611d1357600080fd5b611d1e848285612870565b509392505050565b6000611d39611d34846126cd565b612677565b905082815260208101848484011115611d5157600080fd5b611d5c848285612870565b509392505050565b600081359050611d7381612df0565b92915050565b600081359050611d8881612e07565b92915050565b600081359050611d9d81612e1e565b92915050565b600081519050611db281612e1e565b92915050565b600082601f830112611dc957600080fd5b8135611dd9848260208601611ce8565b91505092915050565b600082601f830112611df357600080fd5b8135611e03848260208601611d26565b91505092915050565b600081359050611e1b81612e35565b92915050565b600060208284031215611e3357600080fd5b6000611e4184828501611d64565b91505092915050565b60008060408385031215611e5d57600080fd5b6000611e6b85828601611d64565b9250506020611e7c85828601611d64565b9150509250929050565b600080600060608486031215611e9b57600080fd5b6000611ea986828701611d64565b9350506020611eba86828701611d64565b9250506040611ecb86828701611e0c565b9150509250925092565b60008060008060808587031215611eeb57600080fd5b6000611ef987828801611d64565b9450506020611f0a87828801611d64565b9350506040611f1b87828801611e0c565b925050606085013567ffffffffffffffff811115611f3857600080fd5b611f4487828801611db8565b91505092959194509250565b60008060408385031215611f6357600080fd5b6000611f7185828601611d64565b9250506020611f8285828601611d79565b9150509250929050565b600080600060608486031215611fa157600080fd5b6000611faf86828701611d64565b935050602084013567ffffffffffffffff811115611fcc57600080fd5b611fd886828701611de2565b925050604084013567ffffffffffffffff811115611ff557600080fd5b61200186828701611de2565b9150509250925092565b6000806040838503121561201e57600080fd5b600061202c85828601611d64565b925050602061203d85828601611e0c565b9150509250929050565b60006020828403121561205957600080fd5b600061206784828501611d8e565b91505092915050565b60006020828403121561208257600080fd5b600061209084828501611da3565b91505092915050565b6000602082840312156120ab57600080fd5b600082013567ffffffffffffffff8111156120c557600080fd5b6120d184828501611de2565b91505092915050565b6000602082840312156120ec57600080fd5b60006120fa84828501611e0c565b91505092915050565b61210c816127fc565b82525050565b61211b8161280e565b82525050565b600061212c826126fe565b6121368185612714565b935061214681856020860161287f565b61214f81612a4b565b840191505092915050565b600061216582612709565b61216f8185612725565b935061217f81856020860161287f565b61218881612a4b565b840191505092915050565b600061219e82612709565b6121a88185612736565b93506121b881856020860161287f565b80840191505092915050565b60006121d1603283612725565b91506121dc82612a5c565b604082019050919050565b60006121f4602683612725565b91506121ff82612aab565b604082019050919050565b6000612217602583612725565b915061222282612afa565b604082019050919050565b600061223a601c83612725565b915061224582612b49565b602082019050919050565b600061225d602483612725565b915061226882612b72565b604082019050919050565b6000612280601983612725565b915061228b82612bc1565b602082019050919050565b60006122a3602983612725565b91506122ae82612bea565b604082019050919050565b60006122c6602e83612725565b91506122d182612c39565b604082019050919050565b60006122e9603e83612725565b91506122f482612c88565b604082019050919050565b600061230c602083612725565b915061231782612cd7565b602082019050919050565b600061232f602083612725565b915061233a82612d00565b602082019050919050565b6000612352601883612725565b915061235d82612d29565b602082019050919050565b6000612375602183612725565b915061238082612d52565b604082019050919050565b6000612398602e83612725565b91506123a382612da1565b604082019050919050565b6123b781612866565b82525050565b60006123c98284612193565b915081905092915050565b60006123e08285612193565b91506123ec8284612193565b91508190509392505050565b600060208201905061240d6000830184612103565b92915050565b60006080820190506124286000830187612103565b6124356020830186612103565b61244260408301856123ae565b81810360608301526124548184612121565b905095945050505050565b60006020820190506124746000830184612112565b92915050565b60006020820190508181036000830152612494818461215a565b905092915050565b600060208201905081810360008301526124b5816121c4565b9050919050565b600060208201905081810360008301526124d5816121e7565b9050919050565b600060208201905081810360008301526124f58161220a565b9050919050565b600060208201905081810360008301526125158161222d565b9050919050565b6000602082019050818103600083015261253581612250565b9050919050565b6000602082019050818103600083015261255581612273565b9050919050565b6000602082019050818103600083015261257581612296565b9050919050565b60006020820190508181036000830152612595816122b9565b9050919050565b600060208201905081810360008301526125b5816122dc565b9050919050565b600060208201905081810360008301526125d5816122ff565b9050919050565b600060208201905081810360008301526125f581612322565b9050919050565b6000602082019050818103600083015261261581612345565b9050919050565b6000602082019050818103600083015261263581612368565b9050919050565b600060208201905081810360008301526126558161238b565b9050919050565b600060208201905061267160008301846123ae565b92915050565b6000612681612692565b905061268d82826128e4565b919050565b6000604051905090565b600067ffffffffffffffff8211156126b7576126b6612a1c565b5b6126c082612a4b565b9050602081019050919050565b600067ffffffffffffffff8211156126e8576126e7612a1c565b5b6126f182612a4b565b9050602081019050919050565b600081519050919050565b600081519050919050565b600082825260208201905092915050565b600082825260208201905092915050565b600081905092915050565b600061274c82612866565b915061275783612866565b9250827fffffffffffffffffffffffffffffffffffffffffffffffffffffffffffffffff0382111561278c5761278b61298f565b5b828201905092915050565b60006127a282612866565b91506127ad83612866565b9250826127bd576127bc6129be565b5b828204905092915050565b60006127d382612866565b91506127de83612866565b9250828210156127f1576127f061298f565b5b828203905092915050565b600061280782612846565b9050919050565b60008115159050919050565b60007fffffffff0000000000000000000000000000000000000000000000000000000082169050919050565b600073ffffffffffffffffffffffffffffffffffffffff82169050919050565b6000819050919050565b82818337600083830152505050565b60005b8381101561289d578082015181840152602081019050612882565b838111156128ac576000848401525b50505050565b600060028204905060018216806128ca57607f821691505b602082108114156128de576128dd6129ed565b5b50919050565b6128ed82612a4b565b810181811067ffffffffffffffff8211171561290c5761290b612a1c565b5b80604052505050565b600061292082612866565b91507fffffffffffffffffffffffffffffffffffffffffffffffffffffffffffffffff8214156129535761295261298f565b5b600182019050919050565b600061296982612866565b915061297483612866565b925082612984576129836129be565b5b828206905092915050565b7f4e487b7100000000000000000000000000000000000000000000000000000000600052601160045260246000fd5b7f4e487b7100000000000000000000000000000000000000000000000000000000600052601260045260246000fd5b7f4e487b7100000000000000000000000000000000000000000000000000000000600052602260045260246000fd5b7f4e487b7100000000000000000000000000000000000000000000000000000000600052604160045260246000fd5b6000601f19601f8301169050919050565b7f4552433732313a207472616e7366657220746f206e6f6e20455243373231526560008201527f63656976657220696d706c656d656e7465720000000000000000000000000000602082015250565b7f4f776e61626c653a206e6577206f776e657220697320746865207a65726f206160008201527f6464726573730000000000000000000000000000000000000000000000000000602082015250565b7f4552433732313a207472616e736665722066726f6d20696e636f72726563742060008201527f6f776e6572000000000000000000000000000000000000000000000000000000602082015250565b7f4552433732313a20746f6b656e20616c7265616479206d696e74656400000000600082015250565b7f4552433732313a207472616e7366657220746f20746865207a65726f2061646460008201527f7265737300000000000000000000000000000000000000000000000000000000602082015250565b7f4552433732313a20617070726f766520746f2063616c6c657200000000000000600082015250565b7f4552433732313a2061646472657373207a65726f206973206e6f74206120766160008201527f6c6964206f776e65720000000000000000000000000000000000000000000000602082015250565b7f45524337323155524953746f726167653a2055524920736574206f66206e6f6e60008201527f6578697374656e7420746f6b656e000000000000000000000000000000000000602082015250565b7f4552433732313a20617070726f76652063616c6c6572206973206e6f7420746f60008201527f6b656e206f776e6572206e6f7220617070726f76656420666f7220616c6c0000602082015250565b7f4552433732313a206d696e7420746f20746865207a65726f2061646472657373600082015250565b7f4f776e61626c653a2063616c6c6572206973206e6f7420746865206f776e6572600082015250565b7f4552433732313a20696e76616c696420746f6b656e2049440000000000000000600082015250565b7f4552433732313a20617070726f76616c20746f2063757272656e74206f776e6560008201527f7200000000000000000000000000000000000000000000000000000000000000602082015250565b7f4552433732313a2063616c6c6572206973206e6f7420746f6b656e206f776e6560008201527f72206e6f7220617070726f766564000000000000000000000000000000000000602082015250565b612df9816127fc565b8114612e0457600080fd5b50565b612e108161280e565b8114612e1b57600080fd5b50565b612e278161281a565b8114612e3257600080fd5b50565b612e3e81612866565b8114612e4957600080fd5b5056fea26469706673582212207548fcec2c250aea9f4504f18375dc9e1d4a1556a2c92f5946bbce6665e999ed64736f6c63430008040033",
  "linkReferences": {},
  "deployedLinkReferences": {}
}