{
  "_format": "hh-sol-artifact-1",
  "contractName": "Notary",
  "sourceName": "contracts/Notary.sol",
  "abi": [
    {
      "inputs": [],
      "stateMutability": "nonpayable",
      "type": "constructor"
    },
    {
      "inputs": [
        {
          "internalType": "string",
          "name": "metadataUri",
          "type": "string"
        },
        {
          "internalType": "uint256",
          "name": "amountSent",
          "type": "uint256"
        }
      ],
      "name": "IncorrectAmountSent",
      "type": "error"
    },
    {
      "inputs": [
        {
          "internalType": "string",
          "name": "metadataUri",
          "type": "string"
        }
      ],
      "name": "MinterNotAuthorized",
      "type": "error"
    },
    {
      "inputs": [],
      "name": "MustBeDocumentOwner",
      "type": "error"
    },
    {
      "inputs": [],
      "name": "MustHaveNotaryNft",
      "type": "error"
    },
    {
      "inputs": [
        {
          "internalType": "address",
          "name": "payee",
          "type": "address"
        }
      ],
      "name": "NoBalanceAvailable",
      "type": "error"
    },
    {
      "inputs": [
        {
          "internalType": "string",
          "name": "metadataUri",
          "type": "string"
        }
      ],
      "name": "TokenNotMintable",
      "type": "error"
    },
    {
      "anonymous": false,
      "inputs": [
        {
          "indexed": false,
          "internalType": "address",
          "name": "payee",
          "type": "address"
        },
        {
          "indexed": false,
          "internalType": "uint256",
          "name": "amountSent",
          "type": "uint256"
        }
      ],
      "name": "BalanceClaimed",
      "type": "event"
    },
    {
      "anonymous": false,
      "inputs": [
        {
          "indexed": false,
          "internalType": "address",
          "name": "payee",
          "type": "address"
        },
        {
          "indexed": false,
          "internalType": "uint256",
          "name": "amount",
          "type": "uint256"
        }
      ],
      "name": "BalanceIncreased",
      "type": "event"
    },
    {
      "anonymous": false,
      "inputs": [
        {
          "indexed": false,
          "internalType": "address",
          "name": "commissionPayee",
          "type": "address"
        }
      ],
      "name": "CommissionPayeeChanged",
      "type": "event"
    },
    {
      "anonymous": false,
      "inputs": [
        {
          "indexed": false,
          "internalType": "address",
          "name": "notary",
          "type": "address"
        },
        {
          "indexed": false,
          "internalType": "address",
          "name": "authorizedMinter",
          "type": "address"
        },
        {
          "indexed": false,
          "internalType": "uint256",
          "name": "price",
          "type": "uint256"
        },
        {
          "indexed": false,
          "internalType": "string",
          "name": "metadataUrl",
          "type": "string"
        }
      ],
      "name": "NotarizedDocumentCreated",
      "type": "event"
    },
    {
      "anonymous": false,
      "inputs": [
        {
          "indexed": false,
          "internalType": "address",
          "name": "authorizedMinter",
          "type": "address"
        },
        {
          "indexed": false,
          "internalType": "uint256",
          "name": "price",
          "type": "uint256"
        },
        {
          "indexed": false,
          "internalType": "string",
          "name": "metadataUrl",
          "type": "string"
        },
        {
          "indexed": false,
          "internalType": "uint256",
          "name": "tokenId",
          "type": "uint256"
        }
      ],
      "name": "NotarizedDocumentNftMinted",
      "type": "event"
    },
    {
      "anonymous": false,
      "inputs": [
        {
          "indexed": false,
          "internalType": "address",
          "name": "notary",
          "type": "address"
        },
        {
          "indexed": false,
          "internalType": "string",
          "name": "notaryId",
          "type": "string"
        },
        {
          "indexed": false,
          "internalType": "string",
          "name": "metadataUri",
          "type": "string"
        },
        {
          "indexed": false,
          "internalType": "uint256",
          "name": "tokenId",
          "type": "uint256"
        }
      ],
      "name": "NotaryCredentialsIssued",
      "type": "event"
    },
    {
      "anonymous": false,
      "inputs": [
        {
          "indexed": false,
          "internalType": "uint256",
          "name": "permissionTokenId",
          "type": "uint256"
        },
        {
          "indexed": false,
          "internalType": "address",
          "name": "grantee",
          "type": "address"
        },
        {
          "indexed": false,
          "internalType": "uint256",
          "name": "documentTokenId",
          "type": "uint256"
        }
      ],
      "name": "PermissionAuthorized",
      "type": "event"
    },
    {
      "anonymous": false,
      "inputs": [
        {
          "indexed": false,
          "internalType": "address",
          "name": "grantee",
          "type": "address"
        },
        {
          "indexed": false,
          "internalType": "uint256",
          "name": "documentTokenId",
          "type": "uint256"
        }
      ],
      "name": "PermissionRevoked",
      "type": "event"
    },
    {
      "anonymous": false,
      "inputs": [
        {
          "indexed": true,
          "internalType": "bytes32",
          "name": "role",
          "type": "bytes32"
        },
        {
          "indexed": true,
          "internalType": "bytes32",
          "name": "previousAdminRole",
          "type": "bytes32"
        },
        {
          "indexed": true,
          "internalType": "bytes32",
          "name": "newAdminRole",
          "type": "bytes32"
        }
      ],
      "name": "RoleAdminChanged",
      "type": "event"
    },
    {
      "anonymous": false,
      "inputs": [
        {
          "indexed": true,
          "internalType": "bytes32",
          "name": "role",
          "type": "bytes32"
        },
        {
          "indexed": true,
          "internalType": "address",
          "name": "account",
          "type": "address"
        },
        {
          "indexed": true,
          "internalType": "address",
          "name": "sender",
          "type": "address"
        }
      ],
      "name": "RoleGranted",
      "type": "event"
    },
    {
      "anonymous": false,
      "inputs": [
        {
          "indexed": true,
          "internalType": "bytes32",
          "name": "role",
          "type": "bytes32"
        },
        {
          "indexed": true,
          "internalType": "address",
          "name": "account",
          "type": "address"
        },
        {
          "indexed": true,
          "internalType": "address",
          "name": "sender",
          "type": "address"
        }
      ],
      "name": "RoleRevoked",
      "type": "event"
    },
    {
      "inputs": [],
      "name": "DEFAULT_ADMIN_ROLE",
      "outputs": [
        {
          "internalType": "bytes32",
          "name": "",
          "type": "bytes32"
        }
      ],
      "stateMutability": "view",
      "type": "function"
    },
    {
      "inputs": [
        {
          "internalType": "address",
          "name": "",
          "type": "address"
        }
      ],
      "name": "balance",
      "outputs": [
        {
          "internalType": "uint256",
          "name": "",
          "type": "uint256"
        }
      ],
      "stateMutability": "view",
      "type": "function"
    },
    {
      "inputs": [],
      "name": "claim",
      "outputs": [],
      "stateMutability": "nonpayable",
      "type": "function"
    },
    {
      "inputs": [],
      "name": "commissionPayee",
      "outputs": [
        {
          "internalType": "address",
          "name": "",
          "type": "address"
        }
      ],
      "stateMutability": "view",
      "type": "function"
    },
    {
      "inputs": [
        {
          "internalType": "address",
          "name": "_authorizedMinter",
          "type": "address"
        },
        {
          "internalType": "uint256",
          "name": "_mintingPrice",
          "type": "uint256"
        },
        {
          "internalType": "string",
          "name": "_metadataUrl",
          "type": "string"
        }
      ],
      "name": "createNotarizedDocument",
      "outputs": [],
      "stateMutability": "nonpayable",
      "type": "function"
    },
    {
      "inputs": [],
      "name": "defaultCommissionPercentage",
      "outputs": [
        {
          "internalType": "uint256",
          "name": "",
          "type": "uint256"
        }
      ],
      "stateMutability": "view",
      "type": "function"
    },
    {
      "inputs": [],
      "name": "documentPermissionNftContract",
      "outputs": [
        {
          "internalType": "contract DocumentPermissionNft",
          "name": "",
          "type": "address"
        }
      ],
      "stateMutability": "view",
      "type": "function"
    },
    {
      "inputs": [
        {
          "internalType": "bytes32",
          "name": "role",
          "type": "bytes32"
        }
      ],
      "name": "getRoleAdmin",
      "outputs": [
        {
          "internalType": "bytes32",
          "name": "",
          "type": "bytes32"
        }
      ],
      "stateMutability": "view",
      "type": "function"
    },
    {
      "inputs": [
        {
          "internalType": "address",
          "name": "to",
          "type": "address"
        },
        {
          "internalType": "uint256",
          "name": "documentTokenId",
          "type": "uint256"
        }
      ],
      "name": "grantDocumentViewPermission",
      "outputs": [
        {
          "internalType": "uint256",
          "name": "tokenId",
          "type": "uint256"
        }
      ],
      "stateMutability": "nonpayable",
      "type": "function"
    },
    {
      "inputs": [
        {
          "internalType": "bytes32",
          "name": "role",
          "type": "bytes32"
        },
        {
          "internalType": "address",
          "name": "account",
          "type": "address"
        }
      ],
      "name": "grantRole",
      "outputs": [],
      "stateMutability": "nonpayable",
      "type": "function"
    },
    {
      "inputs": [
        {
          "internalType": "bytes32",
          "name": "role",
          "type": "bytes32"
        },
        {
          "internalType": "address",
          "name": "account",
          "type": "address"
        }
      ],
      "name": "hasRole",
      "outputs": [
        {
          "internalType": "bool",
          "name": "",
          "type": "bool"
        }
      ],
      "stateMutability": "view",
      "type": "function"
    },
    {
      "inputs": [
        {
          "internalType": "address",
          "name": "to",
          "type": "address"
        },
        {
          "internalType": "string",
          "name": "notaryId",
          "type": "string"
        },
        {
          "internalType": "string",
          "name": "metadataUri",
          "type": "string"
        }
      ],
      "name": "issueNotaryToken",
      "outputs": [
        {
          "internalType": "uint256",
          "name": "tokenId",
          "type": "uint256"
        }
      ],
      "stateMutability": "nonpayable",
      "type": "function"
    },
    {
      "inputs": [
        {
          "internalType": "string",
          "name": "_metadataUrl",
          "type": "string"
        }
      ],
      "name": "mint",
      "outputs": [
        {
          "internalType": "uint256",
          "name": "tokenId",
          "type": "uint256"
        }
      ],
      "stateMutability": "payable",
      "type": "function"
    },
    {
      "inputs": [],
      "name": "notarizedDocumentNftContract",
      "outputs": [
        {
          "internalType": "contract NotarizedDocumentNft",
          "name": "",
          "type": "address"
        }
      ],
      "stateMutability": "view",
      "type": "function"
    },
    {
      "inputs": [],
      "name": "notaryNftContract",
      "outputs": [
        {
          "internalType": "contract NotaryNft",
          "name": "",
          "type": "address"
        }
      ],
      "stateMutability": "view",
      "type": "function"
    },
    {
      "inputs": [],
      "name": "payableBalance",
      "outputs": [
        {
          "internalType": "uint256",
          "name": "_balance",
          "type": "uint256"
        }
      ],
      "stateMutability": "view",
      "type": "function"
    },
    {
      "inputs": [
        {
          "internalType": "bytes32",
          "name": "role",
          "type": "bytes32"
        },
        {
          "internalType": "address",
          "name": "account",
          "type": "address"
        }
      ],
      "name": "renounceRole",
      "outputs": [],
      "stateMutability": "nonpayable",
      "type": "function"
    },
    {
      "inputs": [
        {
          "internalType": "address",
          "name": "to",
          "type": "address"
        },
        {
          "internalType": "uint256",
          "name": "documentTokenId",
          "type": "uint256"
        }
      ],
      "name": "revokeDocumentViewPermission",
      "outputs": [],
      "stateMutability": "nonpayable",
      "type": "function"
    },
    {
      "inputs": [
        {
          "internalType": "bytes32",
          "name": "role",
          "type": "bytes32"
        },
        {
          "internalType": "address",
          "name": "account",
          "type": "address"
        }
      ],
      "name": "revokeRole",
      "outputs": [],
      "stateMutability": "nonpayable",
      "type": "function"
    },
    {
      "inputs": [
        {
          "internalType": "address",
          "name": "_payee",
          "type": "address"
        }
      ],
      "name": "setCommissionPayee",
      "outputs": [],
      "stateMutability": "nonpayable",
      "type": "function"
    },
    {
      "inputs": [
        {
          "internalType": "contract DocumentPermissionNft",
          "name": "_documentPermissionNftContract",
          "type": "address"
        }
      ],
      "name": "setDocumentPermissionNftContract",
      "outputs": [],
      "stateMutability": "nonpayable",
      "type": "function"
    },
    {
      "inputs": [
        {
          "internalType": "contract NotarizedDocumentNft",
          "name": "_ndn",
          "type": "address"
        }
      ],
      "name": "setNotarizedDocumentNftContact",
      "outputs": [],
      "stateMutability": "nonpayable",
      "type": "function"
    },
    {
      "inputs": [
        {
          "internalType": "contract NotaryNft",
          "name": "_notaryNft",
          "type": "address"
        }
      ],
      "name": "setNotaryNftContract",
      "outputs": [],
      "stateMutability": "nonpayable",
      "type": "function"
    },
    {
      "inputs": [
        {
          "internalType": "bytes4",
          "name": "interfaceId",
          "type": "bytes4"
        }
      ],
      "name": "supportsInterface",
      "outputs": [
        {
          "internalType": "bool",
          "name": "",
          "type": "bool"
        }
      ],
      "stateMutability": "view",
      "type": "function"
    },
    {
      "inputs": [
        {
          "internalType": "string",
          "name": "",
          "type": "string"
        }
      ],
      "name": "unmintedToken",
      "outputs": [
        {
          "internalType": "address",
          "name": "notary",
          "type": "address"
        },
        {
          "internalType": "address",
          "name": "authorizedMinter",
          "type": "address"
        },
        {
          "internalType": "uint256",
          "name": "costToMint",
          "type": "uint256"
        }
      ],
      "stateMutability": "view",
      "type": "function"
    }
  ],
  "bytecode": "0x60806040523480156200001157600080fd5b50620000276000801b336200007660201b60201c565b33600560006101000a81548173ffffffffffffffffffffffffffffffffffffffff021916908373ffffffffffffffffffffffffffffffffffffffff160217905550601e600681905550620001ef565b6200008882826200008c60201b60201c565b5050565b6200009e82826200017d60201b60201c565b6200017957600160008084815260200190815260200160002060000160008373ffffffffffffffffffffffffffffffffffffffff1673ffffffffffffffffffffffffffffffffffffffff16815260200190815260200160002060006101000a81548160ff0219169083151502179055506200011e620001e760201b60201c565b73ffffffffffffffffffffffffffffffffffffffff168173ffffffffffffffffffffffffffffffffffffffff16837f2f8788117e7eff1d82e926ec794901d17c78024a50270940304540a733656f0d60405160405180910390a45b5050565b600080600084815260200190815260200160002060000160008373ffffffffffffffffffffffffffffffffffffffff1673ffffffffffffffffffffffffffffffffffffffff16815260200190815260200160002060009054906101000a900460ff16905092915050565b600033905090565b612e4780620001ff6000396000f3fe6080604052600436106101665760003560e01c806387e6ae1f116100d1578063bb3bae221161008a578063d85d3d2711610064578063d85d3d2714610528578063d98ab6bd14610558578063e3d670d714610595578063f4e042d5146105d257610166565b8063bb3bae22146104ab578063c2955e86146104d6578063d547741f146104ff57610166565b806387e6ae1f1461037357806391d148541461039c57806397fd655d146103d95780639f793d7414610404578063a217fddf14610443578063a395c3911461046e57610166565b80634d553cef116101235780634d553cef1461028b5780634e71d92d146102b6578063675f2d66146102cd578063695d3835146102f657806375bcf9af14610321578063795ee1061461034a57610166565b806301ffc9a71461016b578063248a9ca3146101a85780632f2ff15d146101e557806336568abe1461020e57806344b279a21461023757806346408c2614610262575b600080fd5b34801561017757600080fd5b50610192600480360381019061018d91906122b5565b6105fd565b60405161019f919061274e565b60405180910390f35b3480156101b457600080fd5b506101cf60048036038101906101ca9190612250565b610677565b6040516101dc9190612769565b60405180910390f35b3480156101f157600080fd5b5061020c60048036038101906102079190612279565b610696565b005b34801561021a57600080fd5b5061023560048036038101906102309190612279565b6106b7565b005b34801561024357600080fd5b5061024c61073a565b6040516102599190612867565b60405180910390f35b34801561026e57600080fd5b50610289600480360381019061028491906120dc565b610781565b005b34801561029757600080fd5b506102a061094a565b6040516102ad9190612573565b60405180910390f35b3480156102c257600080fd5b506102cb610970565b005b3480156102d957600080fd5b506102f460048036038101906102ef91906121e9565b610b01565b005b34801561030257600080fd5b5061030b610d28565b604051610318919061279f565b60405180910390f35b34801561032d57600080fd5b50610348600480360381019061034391906122de565b610d4e565b005b34801561035657600080fd5b50610371600480360381019061036c91906121ad565b610da0565b005b34801561037f57600080fd5b5061039a60048036038101906103959190612307565b610f7d565b005b3480156103a857600080fd5b506103c360048036038101906103be9190612279565b610fcf565b6040516103d0919061274e565b60405180910390f35b3480156103e557600080fd5b506103ee611039565b6040516103fb91906127ba565b60405180910390f35b34801561041057600080fd5b5061042b60048036038101906104269190612359565b61105f565b60405161043a9392919061258e565b60405180910390f35b34801561044f57600080fd5b506104586110df565b6040516104659190612769565b60405180910390f35b34801561047a57600080fd5b50610495600480360381019061049091906121ad565b6110e6565b6040516104a29190612867565b60405180910390f35b3480156104b757600080fd5b506104c06112eb565b6040516104cd9190612784565b60405180910390f35b3480156104e257600080fd5b506104fd60048036038101906104f89190612330565b611311565b005b34801561050b57600080fd5b5061052660048036038101906105219190612279565b611363565b005b610542600480360381019061053d9190612359565b611384565b60405161054f9190612867565b60405180910390f35b34801561056457600080fd5b5061057f600480360381019061057a919061212e565b611715565b60405161058c9190612867565b60405180910390f35b3480156105a157600080fd5b506105bc60048036038101906105b791906120dc565b61180e565b6040516105c99190612867565b60405180910390f35b3480156105de57600080fd5b506105e7611826565b6040516105f49190612867565b60405180910390f35b60007f7965db0b000000000000000000000000000000000000000000000000000000007bffffffffffffffffffffffffffffffffffffffffffffffffffffffff1916827bffffffffffffffffffffffffffffffffffffffffffffffffffffffff19161480610670575061066f8261182c565b5b9050919050565b6000806000838152602001908152602001600020600101549050919050565b61069f82610677565b6106a881611896565b6106b283836118aa565b505050565b6106bf61198a565b73ffffffffffffffffffffffffffffffffffffffff168173ffffffffffffffffffffffffffffffffffffffff161461072c576040517f08c379a000000000000000000000000000000000000000000000000000000000815260040161072390612847565b60405180910390fd5b6107368282611992565b5050565b6000600760003373ffffffffffffffffffffffffffffffffffffffff1673ffffffffffffffffffffffffffffffffffffffff16815260200190815260200160002054905090565b6000801b61078e81611896565b60076000600560009054906101000a900473ffffffffffffffffffffffffffffffffffffffff1673ffffffffffffffffffffffffffffffffffffffff1673ffffffffffffffffffffffffffffffffffffffff16815260200190815260200160002054600760008473ffffffffffffffffffffffffffffffffffffffff1673ffffffffffffffffffffffffffffffffffffffff168152602001908152602001600020600082825461083e9190612936565b92505081905550600060076000600560009054906101000a900473ffffffffffffffffffffffffffffffffffffffff1673ffffffffffffffffffffffffffffffffffffffff1673ffffffffffffffffffffffffffffffffffffffff1681526020019081526020016000208190555081600560006101000a81548173ffffffffffffffffffffffffffffffffffffffff021916908373ffffffffffffffffffffffffffffffffffffffff1602179055507fecb8f51c336e1305fd4b3be0019a43021c75e70fdaaf00ea9ba201815cc6e537600560009054906101000a900473ffffffffffffffffffffffffffffffffffffffff1660405161093e9190612573565b60405180910390a15050565b600560009054906101000a900473ffffffffffffffffffffffffffffffffffffffff1681565b6000600760003373ffffffffffffffffffffffffffffffffffffffff1673ffffffffffffffffffffffffffffffffffffffff1681526020019081526020016000205414156109f557336040517f51c8365f0000000000000000000000000000000000000000000000000000000081526004016109ec9190612573565b60405180910390fd5b6000600760003373ffffffffffffffffffffffffffffffffffffffff1673ffffffffffffffffffffffffffffffffffffffff1681526020019081526020016000205490506000600760003373ffffffffffffffffffffffffffffffffffffffff1673ffffffffffffffffffffffffffffffffffffffff168152602001908152602001600020819055503373ffffffffffffffffffffffffffffffffffffffff166108fc829081150290604051600060405180830381858888f19350505050158015610ac4573d6000803e3d6000fd5b507fe64799e036cf6322d0c3b6d11f4e2fc9d1bd9bb5938dd3d6835921a427c89b8f3382604051610af69291906126d9565b60405180910390a150565b6000600260009054906101000a900473ffffffffffffffffffffffffffffffffffffffff1673ffffffffffffffffffffffffffffffffffffffff166370a08231336040518263ffffffff1660e01b8152600401610b5e9190612573565b60206040518083038186803b158015610b7657600080fd5b505afa158015610b8a573d6000803e3d6000fd5b505050506040513d601f19601f82011682018060405250810190610bae919061239a565b1415610be6576040517f3b9fd80b00000000000000000000000000000000000000000000000000000000815260040160405180910390fd5b60405180606001604052803373ffffffffffffffffffffffffffffffffffffffff1681526020018473ffffffffffffffffffffffffffffffffffffffff16815260200183815250600482604051610c3d9190612522565b908152602001604051809103902060008201518160000160006101000a81548173ffffffffffffffffffffffffffffffffffffffff021916908373ffffffffffffffffffffffffffffffffffffffff16021790555060208201518160010160006101000a81548173ffffffffffffffffffffffffffffffffffffffff021916908373ffffffffffffffffffffffffffffffffffffffff160217905550604082015181600201559050507f18aafd4480e90a5cd4bf3236e30e81887f45c682abe7fcbe4639bf092259e05933848484604051610d1b94939291906125c5565b60405180910390a1505050565b600160009054906101000a900473ffffffffffffffffffffffffffffffffffffffff1681565b6000801b610d5b81611896565b81600360006101000a81548173ffffffffffffffffffffffffffffffffffffffff021916908373ffffffffffffffffffffffffffffffffffffffff1602179055505050565b803373ffffffffffffffffffffffffffffffffffffffff16600160009054906101000a900473ffffffffffffffffffffffffffffffffffffffff1673ffffffffffffffffffffffffffffffffffffffff16636352211e836040518263ffffffff1660e01b8152600401610e139190612867565b60206040518083038186803b158015610e2b57600080fd5b505afa158015610e3f573d6000803e3d6000fd5b505050506040513d601f19601f82011682018060405250810190610e639190612105565b73ffffffffffffffffffffffffffffffffffffffff1614610eb0576040517fbcc8ed9500000000000000000000000000000000000000000000000000000000815260040160405180910390fd5b600360009054906101000a900473ffffffffffffffffffffffffffffffffffffffff1673ffffffffffffffffffffffffffffffffffffffff16639dc29fac84846040518363ffffffff1660e01b8152600401610f0d9291906126d9565b600060405180830381600087803b158015610f2757600080fd5b505af1158015610f3b573d6000803e3d6000fd5b505050507fbd20e616115b933d187c2929d56282e841784672f376eeb58eb7a4f6da3aa5248383604051610f709291906126d9565b60405180910390a1505050565b6000801b610f8a81611896565b81600160006101000a81548173ffffffffffffffffffffffffffffffffffffffff021916908373ffffffffffffffffffffffffffffffffffffffff1602179055505050565b600080600084815260200190815260200160002060000160008373ffffffffffffffffffffffffffffffffffffffff1673ffffffffffffffffffffffffffffffffffffffff16815260200190815260200160002060009054906101000a900460ff16905092915050565b600260009054906101000a900473ffffffffffffffffffffffffffffffffffffffff1681565b6004818051602081018201805184825260208301602085012081835280955050505050506000915090508060000160009054906101000a900473ffffffffffffffffffffffffffffffffffffffff16908060010160009054906101000a900473ffffffffffffffffffffffffffffffffffffffff16908060020154905083565b6000801b81565b6000813373ffffffffffffffffffffffffffffffffffffffff16600160009054906101000a900473ffffffffffffffffffffffffffffffffffffffff1673ffffffffffffffffffffffffffffffffffffffff16636352211e836040518263ffffffff1660e01b815260040161115b9190612867565b60206040518083038186803b15801561117357600080fd5b505afa158015611187573d6000803e3d6000fd5b505050506040513d601f19601f820116820180604052508101906111ab9190612105565b73ffffffffffffffffffffffffffffffffffffffff16146111f8576040517fbcc8ed9500000000000000000000000000000000000000000000000000000000815260040160405180910390fd5b600360009054906101000a900473ffffffffffffffffffffffffffffffffffffffff1673ffffffffffffffffffffffffffffffffffffffff166340c10f1985856040518363ffffffff1660e01b81526004016112559291906126d9565b602060405180830381600087803b15801561126f57600080fd5b505af1158015611283573d6000803e3d6000fd5b505050506040513d601f19601f820116820180604052508101906112a7919061239a565b91507f16c6ecc3f138ddf962927f286179466df65d51ea1e09fb98bdba8fd431230f4d8285856040516112dc93929190612882565b60405180910390a15092915050565b600360009054906101000a900473ffffffffffffffffffffffffffffffffffffffff1681565b6000801b61131e81611896565b81600260006101000a81548173ffffffffffffffffffffffffffffffffffffffff021916908373ffffffffffffffffffffffffffffffffffffffff1602179055505050565b61136c82610677565b61137581611896565b61137f8383611992565b505050565b6000806004836040516113979190612522565b90815260200160405180910390206040518060600160405290816000820160009054906101000a900473ffffffffffffffffffffffffffffffffffffffff1673ffffffffffffffffffffffffffffffffffffffff1673ffffffffffffffffffffffffffffffffffffffff1681526020016001820160009054906101000a900473ffffffffffffffffffffffffffffffffffffffff1673ffffffffffffffffffffffffffffffffffffffff1673ffffffffffffffffffffffffffffffffffffffff1681526020016002820154815250509050600073ffffffffffffffffffffffffffffffffffffffff16816020015173ffffffffffffffffffffffffffffffffffffffff1614156114de57826040517f7f06ea980000000000000000000000000000000000000000000000000000000081526004016114d591906127d5565b60405180910390fd5b3373ffffffffffffffffffffffffffffffffffffffff16816020015173ffffffffffffffffffffffffffffffffffffffff161461155257826040517fbf78ac6200000000000000000000000000000000000000000000000000000000815260040161154991906127d5565b60405180910390fd5b3481604001511461159c5782346040517f6d3df79c0000000000000000000000000000000000000000000000000000000081526004016115939291906127f7565b60405180910390fd5b6115aa348260000151611a73565b600160009054906101000a900473ffffffffffffffffffffffffffffffffffffffff1673ffffffffffffffffffffffffffffffffffffffff1663d0def52133856040518363ffffffff1660e01b8152600401611607929190612611565b602060405180830381600087803b15801561162157600080fd5b505af1158015611635573d6000803e3d6000fd5b505050506040513d601f19601f82011682018060405250810190611659919061239a565b915060048360405161166b9190612522565b9081526020016040518091039020600080820160006101000a81549073ffffffffffffffffffffffffffffffffffffffff02191690556001820160006101000a81549073ffffffffffffffffffffffffffffffffffffffff0219169055600282016000905550507f4127146f91ac45d59f3999d0585a57612b8be0589d86909e0399fbd1d10c6342333485856040516117079493929190612702565b60405180910390a150919050565b6000600260009054906101000a900473ffffffffffffffffffffffffffffffffffffffff1673ffffffffffffffffffffffffffffffffffffffff1663990711908585856040518463ffffffff1660e01b815260040161177693929190612641565b602060405180830381600087803b15801561179057600080fd5b505af11580156117a4573d6000803e3d6000fd5b505050506040513d601f19601f820116820180604052508101906117c8919061239a565b90507f61e98bd14ba1eb82551fce55ca0e951ff9c77b1817a9ed46d85d8fdda536d027848484846040516117ff9493929190612686565b60405180910390a19392505050565b60076020528060005260406000206000915090505481565b60065481565b60007f01ffc9a7000000000000000000000000000000000000000000000000000000007bffffffffffffffffffffffffffffffffffffffffffffffffffffffff1916827bffffffffffffffffffffffffffffffffffffffffffffffffffffffff1916149050919050565b6118a7816118a261198a565b611c20565b50565b6118b48282610fcf565b61198657600160008084815260200190815260200160002060000160008373ffffffffffffffffffffffffffffffffffffffff1673ffffffffffffffffffffffffffffffffffffffff16815260200190815260200160002060006101000a81548160ff02191690831515021790555061192b61198a565b73ffffffffffffffffffffffffffffffffffffffff168173ffffffffffffffffffffffffffffffffffffffff16837f2f8788117e7eff1d82e926ec794901d17c78024a50270940304540a733656f0d60405160405180910390a45b5050565b600033905090565b61199c8282610fcf565b15611a6f57600080600084815260200190815260200160002060000160008373ffffffffffffffffffffffffffffffffffffffff1673ffffffffffffffffffffffffffffffffffffffff16815260200190815260200160002060006101000a81548160ff021916908315150217905550611a1461198a565b73ffffffffffffffffffffffffffffffffffffffff168173ffffffffffffffffffffffffffffffffffffffff16837ff6391f5c32d9c69d2a47ea670b442974b53935d1edc7fd64eb21e047a839171b60405160405180910390a45b5050565b6000606460065484611a8591906129bd565b611a8f919061298c565b905060008184611a9f9190612a17565b9050838183611aae9190612936565b14611ab857600080fd5b80600760008573ffffffffffffffffffffffffffffffffffffffff1673ffffffffffffffffffffffffffffffffffffffff1681526020019081526020016000206000828254611b079190612936565b925050819055507f7a702e80a9c183a6ce9d6732991df2e914555ba35a364a70aed2433984e7544b8382604051611b3f9291906126d9565b60405180910390a18160076000600560009054906101000a900473ffffffffffffffffffffffffffffffffffffffff1673ffffffffffffffffffffffffffffffffffffffff1673ffffffffffffffffffffffffffffffffffffffff1681526020019081526020016000206000828254611bb89190612936565b925050819055507f7a702e80a9c183a6ce9d6732991df2e914555ba35a364a70aed2433984e7544b600560009054906101000a900473ffffffffffffffffffffffffffffffffffffffff1683604051611c129291906126d9565b60405180910390a150505050565b611c2a8282610fcf565b611cb957611c4f8173ffffffffffffffffffffffffffffffffffffffff166014611cbd565b611c5d8360001c6020611cbd565b604051602001611c6e929190612539565b6040516020818303038152906040526040517f08c379a0000000000000000000000000000000000000000000000000000000008152600401611cb091906127d5565b60405180910390fd5b5050565b606060006002836002611cd091906129bd565b611cda9190612936565b67ffffffffffffffff811115611d19577f4e487b7100000000000000000000000000000000000000000000000000000000600052604160045260246000fd5b6040519080825280601f01601f191660200182016040528015611d4b5781602001600182028036833780820191505090505b5090507f300000000000000000000000000000000000000000000000000000000000000081600081518110611da9577f4e487b7100000000000000000000000000000000000000000000000000000000600052603260045260246000fd5b60200101907effffffffffffffffffffffffffffffffffffffffffffffffffffffffffffff1916908160001a9053507f780000000000000000000000000000000000000000000000000000000000000081600181518110611e33577f4e487b7100000000000000000000000000000000000000000000000000000000600052603260045260246000fd5b60200101907effffffffffffffffffffffffffffffffffffffffffffffffffffffffffffff1916908160001a90535060006001846002611e7391906129bd565b611e7d9190612936565b90505b6001811115611f69577f3031323334353637383961626364656600000000000000000000000000000000600f861660108110611ee5577f4e487b7100000000000000000000000000000000000000000000000000000000600052603260045260246000fd5b1a60f81b828281518110611f22577f4e487b7100000000000000000000000000000000000000000000000000000000600052603260045260246000fd5b60200101907effffffffffffffffffffffffffffffffffffffffffffffffffffffffffffff1916908160001a905350600485901c945080611f6290612bad565b9050611e80565b5060008414611fad576040517f08c379a0000000000000000000000000000000000000000000000000000000008152600401611fa490612827565b60405180910390fd5b8091505092915050565b6000611fca611fc5846128de565b6128b9565b905082815260208101848484011115611fe257600080fd5b611fed848285612b6b565b509392505050565b60008135905061200481612d70565b92915050565b60008151905061201981612d70565b92915050565b60008135905061202e81612d87565b92915050565b60008135905061204381612d9e565b92915050565b60008135905061205881612db5565b92915050565b60008135905061206d81612dcc565b92915050565b60008135905061208281612de3565b92915050565b600082601f83011261209957600080fd5b81356120a9848260208601611fb7565b91505092915050565b6000813590506120c181612dfa565b92915050565b6000815190506120d681612dfa565b92915050565b6000602082840312156120ee57600080fd5b60006120fc84828501611ff5565b91505092915050565b60006020828403121561211757600080fd5b60006121258482850161200a565b91505092915050565b60008060006060848603121561214357600080fd5b600061215186828701611ff5565b935050602084013567ffffffffffffffff81111561216e57600080fd5b61217a86828701612088565b925050604084013567ffffffffffffffff81111561219757600080fd5b6121a386828701612088565b9150509250925092565b600080604083850312156121c057600080fd5b60006121ce85828601611ff5565b92505060206121df858286016120b2565b9150509250929050565b6000806000606084860312156121fe57600080fd5b600061220c86828701611ff5565b935050602061221d868287016120b2565b925050604084013567ffffffffffffffff81111561223a57600080fd5b61224686828701612088565b9150509250925092565b60006020828403121561226257600080fd5b60006122708482850161201f565b91505092915050565b6000806040838503121561228c57600080fd5b600061229a8582860161201f565b92505060206122ab85828601611ff5565b9150509250929050565b6000602082840312156122c757600080fd5b60006122d584828501612034565b91505092915050565b6000602082840312156122f057600080fd5b60006122fe84828501612049565b91505092915050565b60006020828403121561231957600080fd5b60006123278482850161205e565b91505092915050565b60006020828403121561234257600080fd5b600061235084828501612073565b91505092915050565b60006020828403121561236b57600080fd5b600082013567ffffffffffffffff81111561238557600080fd5b61239184828501612088565b91505092915050565b6000602082840312156123ac57600080fd5b60006123ba848285016120c7565b91505092915050565b6123cc81612a4b565b82525050565b6123db81612a5d565b82525050565b6123ea81612a69565b82525050565b6123f981612aff565b82525050565b61240881612b23565b82525050565b61241781612b47565b82525050565b60006124288261290f565b612432818561291a565b9350612442818560208601612b7a565b61244b81612c95565b840191505092915050565b60006124618261290f565b61246b818561292b565b935061247b818560208601612b7a565b80840191505092915050565b600061249460208361291a565b915061249f82612ca6565b602082019050919050565b60006124b760178361292b565b91506124c282612ccf565b601782019050919050565b60006124da60118361292b565b91506124e582612cf8565b601182019050919050565b60006124fd602f8361291a565b915061250882612d21565b604082019050919050565b61251c81612af5565b82525050565b600061252e8284612456565b915081905092915050565b6000612544826124aa565b91506125508285612456565b915061255b826124cd565b91506125678284612456565b91508190509392505050565b600060208201905061258860008301846123c3565b92915050565b60006060820190506125a360008301866123c3565b6125b060208301856123c3565b6125bd6040830184612513565b949350505050565b60006080820190506125da60008301876123c3565b6125e760208301866123c3565b6125f46040830185612513565b8181036060830152612606818461241d565b905095945050505050565b600060408201905061262660008301856123c3565b8181036020830152612638818461241d565b90509392505050565b600060608201905061265660008301866123c3565b8181036020830152612668818561241d565b9050818103604083015261267c818461241d565b9050949350505050565b600060808201905061269b60008301876123c3565b81810360208301526126ad818661241d565b905081810360408301526126c1818561241d565b90506126d06060830184612513565b95945050505050565b60006040820190506126ee60008301856123c3565b6126fb6020830184612513565b9392505050565b600060808201905061271760008301876123c3565b6127246020830186612513565b8181036040830152612736818561241d565b90506127456060830184612513565b95945050505050565b600060208201905061276360008301846123d2565b92915050565b600060208201905061277e60008301846123e1565b92915050565b600060208201905061279960008301846123f0565b92915050565b60006020820190506127b460008301846123ff565b92915050565b60006020820190506127cf600083018461240e565b92915050565b600060208201905081810360008301526127ef818461241d565b905092915050565b60006040820190508181036000830152612811818561241d565b90506128206020830184612513565b9392505050565b6000602082019050818103600083015261284081612487565b9050919050565b60006020820190508181036000830152612860816124f0565b9050919050565b600060208201905061287c6000830184612513565b92915050565b60006060820190506128976000830186612513565b6128a460208301856123c3565b6128b16040830184612513565b949350505050565b60006128c36128d4565b90506128cf8282612bd7565b919050565b6000604051905090565b600067ffffffffffffffff8211156128f9576128f8612c66565b5b61290282612c95565b9050602081019050919050565b600081519050919050565b600082825260208201905092915050565b600081905092915050565b600061294182612af5565b915061294c83612af5565b9250827fffffffffffffffffffffffffffffffffffffffffffffffffffffffffffffffff0382111561298157612980612c08565b5b828201905092915050565b600061299782612af5565b91506129a283612af5565b9250826129b2576129b1612c37565b5b828204905092915050565b60006129c882612af5565b91506129d383612af5565b9250817fffffffffffffffffffffffffffffffffffffffffffffffffffffffffffffffff0483118215151615612a0c57612a0b612c08565b5b828202905092915050565b6000612a2282612af5565b9150612a2d83612af5565b925082821015612a4057612a3f612c08565b5b828203905092915050565b6000612a5682612ad5565b9050919050565b60008115159050919050565b6000819050919050565b60007fffffffff0000000000000000000000000000000000000000000000000000000082169050919050565b6000612aaa82612a4b565b9050919050565b6000612abc82612a4b565b9050919050565b6000612ace82612a4b565b9050919050565b600073ffffffffffffffffffffffffffffffffffffffff82169050919050565b6000819050919050565b6000612b0a82612b11565b9050919050565b6000612b1c82612ad5565b9050919050565b6000612b2e82612b35565b9050919050565b6000612b4082612ad5565b9050919050565b6000612b5282612b59565b9050919050565b6000612b6482612ad5565b9050919050565b82818337600083830152505050565b60005b83811015612b98578082015181840152602081019050612b7d565b83811115612ba7576000848401525b50505050565b6000612bb882612af5565b91506000821415612bcc57612bcb612c08565b5b600182039050919050565b612be082612c95565b810181811067ffffffffffffffff82111715612bff57612bfe612c66565b5b80604052505050565b7f4e487b7100000000000000000000000000000000000000000000000000000000600052601160045260246000fd5b7f4e487b7100000000000000000000000000000000000000000000000000000000600052601260045260246000fd5b7f4e487b7100000000000000000000000000000000000000000000000000000000600052604160045260246000fd5b6000601f19601f8301169050919050565b7f537472696e67733a20686578206c656e67746820696e73756666696369656e74600082015250565b7f416363657373436f6e74726f6c3a206163636f756e7420000000000000000000600082015250565b7f206973206d697373696e6720726f6c6520000000000000000000000000000000600082015250565b7f416363657373436f6e74726f6c3a2063616e206f6e6c792072656e6f756e636560008201527f20726f6c657320666f722073656c660000000000000000000000000000000000602082015250565b612d7981612a4b565b8114612d8457600080fd5b50565b612d9081612a69565b8114612d9b57600080fd5b50565b612da781612a73565b8114612db257600080fd5b50565b612dbe81612a9f565b8114612dc957600080fd5b50565b612dd581612ab1565b8114612de057600080fd5b50565b612dec81612ac3565b8114612df757600080fd5b50565b612e0381612af5565b8114612e0e57600080fd5b5056fea2646970667358221220873d866113b1ca3e9673ba4b316ce2372ee3f99164c381683d9c03c488b4885164736f6c63430008040033",
  "linkReferences": {},
  "deployedLinkReferences": {}
}