{
  "_format": "hh-sol-artifact-1",
  "contractName": "NotaryNft",
  "sourceName": "contracts/NotaryNft.sol",
  "abi": [
    {
      "inputs": [],
      "stateMutability": "nonpayable",
      "type": "constructor"
    },
    {
      "anonymous": false,
      "inputs": [
        {
          "indexed": true,
          "internalType": "address",
          "name": "owner",
          "type": "address"
        },
        {
          "indexed": true,
          "internalType": "address",
          "name": "approved",
          "type": "address"
        },
        {
          "indexed": true,
          "internalType": "uint256",
          "name": "tokenId",
          "type": "uint256"
        }
      ],
      "name": "Approval",
      "type": "event"
    },
    {
      "anonymous": false,
      "inputs": [
        {
          "indexed": true,
          "internalType": "address",
          "name": "owner",
          "type": "address"
        },
        {
          "indexed": true,
          "internalType": "address",
          "name": "operator",
          "type": "address"
        },
        {
          "indexed": false,
          "internalType": "bool",
          "name": "approved",
          "type": "bool"
        }
      ],
      "name": "ApprovalForAll",
      "type": "event"
    },
    {
      "anonymous": false,
      "inputs": [
        {
          "indexed": true,
          "internalType": "address",
          "name": "previousOwner",
          "type": "address"
        },
        {
          "indexed": true,
          "internalType": "address",
          "name": "newOwner",
          "type": "address"
        }
      ],
      "name": "OwnershipTransferred",
      "type": "event"
    },
    {
      "anonymous": false,
      "inputs": [
        {
          "indexed": true,
          "internalType": "address",
          "name": "from",
          "type": "address"
        },
        {
          "indexed": true,
          "internalType": "address",
          "name": "to",
          "type": "address"
        },
        {
          "indexed": true,
          "internalType": "uint256",
          "name": "tokenId",
          "type": "uint256"
        }
      ],
      "name": "Transfer",
      "type": "event"
    },
    {
      "inputs": [
        {
          "internalType": "address",
          "name": "to",
          "type": "address"
        },
        {
          "internalType": "uint256",
          "name": "tokenId",
          "type": "uint256"
        }
      ],
      "name": "approve",
      "outputs": [],
      "stateMutability": "nonpayable",
      "type": "function"
    },
    {
      "inputs": [
        {
          "internalType": "address",
          "name": "owner",
          "type": "address"
        }
      ],
      "name": "balanceOf",
      "outputs": [
        {
          "internalType": "uint256",
          "name": "",
          "type": "uint256"
        }
      ],
      "stateMutability": "view",
      "type": "function"
    },
    {
      "inputs": [
        {
          "internalType": "uint256",
          "name": "tokenId",
          "type": "uint256"
        }
      ],
      "name": "getApproved",
      "outputs": [
        {
          "internalType": "address",
          "name": "",
          "type": "address"
        }
      ],
      "stateMutability": "view",
      "type": "function"
    },
    {
      "inputs": [
        {
          "internalType": "uint256",
          "name": "",
          "type": "uint256"
        }
      ],
      "name": "isActive",
      "outputs": [
        {
          "internalType": "bool",
          "name": "",
          "type": "bool"
        }
      ],
      "stateMutability": "view",
      "type": "function"
    },
    {
      "inputs": [
        {
          "internalType": "address",
          "name": "owner",
          "type": "address"
        },
        {
          "internalType": "address",
          "name": "operator",
          "type": "address"
        }
      ],
      "name": "isApprovedForAll",
      "outputs": [
        {
          "internalType": "bool",
          "name": "",
          "type": "bool"
        }
      ],
      "stateMutability": "view",
      "type": "function"
    },
    {
      "inputs": [
        {
          "internalType": "address",
          "name": "to",
          "type": "address"
        },
        {
          "internalType": "string",
          "name": "notaryId",
          "type": "string"
        },
        {
          "internalType": "string",
          "name": "_metadataUri",
          "type": "string"
        }
      ],
      "name": "mint",
      "outputs": [
        {
          "internalType": "uint256",
          "name": "tokenId",
          "type": "uint256"
        }
      ],
      "stateMutability": "nonpayable",
      "type": "function"
    },
    {
      "inputs": [],
      "name": "name",
      "outputs": [
        {
          "internalType": "string",
          "name": "",
          "type": "string"
        }
      ],
      "stateMutability": "view",
      "type": "function"
    },
    {
      "inputs": [],
      "name": "owner",
      "outputs": [
        {
          "internalType": "address",
          "name": "",
          "type": "address"
        }
      ],
      "stateMutability": "view",
      "type": "function"
    },
    {
      "inputs": [
        {
          "internalType": "uint256",
          "name": "tokenId",
          "type": "uint256"
        }
      ],
      "name": "ownerOf",
      "outputs": [
        {
          "internalType": "address",
          "name": "",
          "type": "address"
        }
      ],
      "stateMutability": "view",
      "type": "function"
    },
    {
      "inputs": [],
      "name": "renounceOwnership",
      "outputs": [],
      "stateMutability": "nonpayable",
      "type": "function"
    },
    {
      "inputs": [
        {
          "internalType": "address",
          "name": "from",
          "type": "address"
        },
        {
          "internalType": "address",
          "name": "to",
          "type": "address"
        },
        {
          "internalType": "uint256",
          "name": "tokenId",
          "type": "uint256"
        }
      ],
      "name": "safeTransferFrom",
      "outputs": [],
      "stateMutability": "nonpayable",
      "type": "function"
    },
    {
      "inputs": [
        {
          "internalType": "address",
          "name": "from",
          "type": "address"
        },
        {
          "internalType": "address",
          "name": "to",
          "type": "address"
        },
        {
          "internalType": "uint256",
          "name": "tokenId",
          "type": "uint256"
        },
        {
          "internalType": "bytes",
          "name": "data",
          "type": "bytes"
        }
      ],
      "name": "safeTransferFrom",
      "outputs": [],
      "stateMutability": "nonpayable",
      "type": "function"
    },
    {
      "inputs": [
        {
          "internalType": "address",
          "name": "operator",
          "type": "address"
        },
        {
          "internalType": "bool",
          "name": "approved",
          "type": "bool"
        }
      ],
      "name": "setApprovalForAll",
      "outputs": [],
      "stateMutability": "nonpayable",
      "type": "function"
    },
    {
      "inputs": [
        {
          "internalType": "bytes4",
          "name": "interfaceId",
          "type": "bytes4"
        }
      ],
      "name": "supportsInterface",
      "outputs": [
        {
          "internalType": "bool",
          "name": "",
          "type": "bool"
        }
      ],
      "stateMutability": "view",
      "type": "function"
    },
    {
      "inputs": [],
      "name": "symbol",
      "outputs": [
        {
          "internalType": "string",
          "name": "",
          "type": "string"
        }
      ],
      "stateMutability": "view",
      "type": "function"
    },
    {
      "inputs": [
        {
          "internalType": "string",
          "name": "",
          "type": "string"
        }
      ],
      "name": "tokenByNotaryId",
      "outputs": [
        {
          "internalType": "uint256",
          "name": "",
          "type": "uint256"
        }
      ],
      "stateMutability": "view",
      "type": "function"
    },
    {
      "inputs": [
        {
          "internalType": "uint256",
          "name": "tokenId",
          "type": "uint256"
        }
      ],
      "name": "tokenURI",
      "outputs": [
        {
          "internalType": "string",
          "name": "",
          "type": "string"
        }
      ],
      "stateMutability": "view",
      "type": "function"
    },
    {
      "inputs": [
        {
          "internalType": "address",
          "name": "from",
          "type": "address"
        },
        {
          "internalType": "address",
          "name": "to",
          "type": "address"
        },
        {
          "internalType": "uint256",
          "name": "tokenId",
          "type": "uint256"
        }
      ],
      "name": "transferFrom",
      "outputs": [],
      "stateMutability": "nonpayable",
      "type": "function"
    },
    {
      "inputs": [
        {
          "internalType": "address",
          "name": "newOwner",
          "type": "address"
        }
      ],
      "name": "transferOwnership",
      "outputs": [],
      "stateMutability": "nonpayable",
      "type": "function"
    }
  ],
  "bytecode": "0x608060405260006008553480156200001657600080fd5b506040805180820182526009815268139bdd185c9e53999d60ba1b6020808301918252835180850190945260038452621393d560ea1b9084015281519192916200006391600091620000f2565b50805162000079906001906020840190620000f2565b50505062000096620000906200009c60201b60201c565b620000a0565b620001d5565b3390565b600780546001600160a01b038381166001600160a01b0319831681179093556040519116919082907f8be0079c531659141344cd1fd0a4f28419497f9722a3daafe3b4186f6b6457e090600090a35050565b828054620001009062000198565b90600052602060002090601f0160209004810192826200012457600085556200016f565b82601f106200013f57805160ff19168380011785556200016f565b828001600101855582156200016f579182015b828111156200016f57825182559160200191906001019062000152565b506200017d92915062000181565b5090565b5b808211156200017d576000815560010162000182565b600181811c90821680620001ad57607f821691505b60208210811415620001cf57634e487b7160e01b600052602260045260246000fd5b50919050565b61189c80620001e56000396000f3fe608060405234801561001057600080fd5b50600436106101215760003560e01c8063715018a6116100ad578063a22cb46511610071578063a22cb4651461027f578063b88d4fde14610292578063c87b56dd146102a5578063e985e9c5146102b8578063f2fde38b146102f457600080fd5b8063715018a61461022857806382afd23b146102305780638da5cb5b1461025357806395d89b4114610264578063990711901461026c57600080fd5b806323b872dd116100f457806323b872dd146101a357806342842e0e146101b65780636352211e146101c95780636c885f08146101dc57806370a082311461021557600080fd5b806301ffc9a71461012657806306fdde031461014e578063081812fc14610163578063095ea7b31461018e575b600080fd5b61013961013436600461154b565b610307565b60405190151581526020015b60405180910390f35b610156610359565b6040516101459190611682565b6101766101713660046115b6565b6103eb565b6040516001600160a01b039091168152602001610145565b6101a161019c366004611522565b610412565b005b6101a16101b13660046113c3565b61052d565b6101a16101c43660046113c3565b61055e565b6101766101d73660046115b6565b610579565b6102076101ea366004611583565b805160208183018101805160098252928201919093012091525481565b604051908152602001610145565b610207610223366004611377565b6105d9565b6101a161065f565b61013961023e3660046115b6565b600a6020526000908152604090205460ff1681565b6007546001600160a01b0316610176565b610156610673565b61020761027a3660046114b1565b610682565b6101a161028d366004611477565b610703565b6101a16102a03660046113fe565b610712565b6101566102b33660046115b6565b61074a565b6101396102c6366004611391565b6001600160a01b03918216600090815260056020908152604080832093909416825291909152205460ff1690565b6101a1610302366004611377565b61085b565b60006001600160e01b031982166380ac58cd60e01b148061033857506001600160e01b03198216635b5e139f60e01b145b8061035357506301ffc9a760e01b6001600160e01b03198316145b92915050565b606060008054610368906117a4565b80601f0160208091040260200160405190810160405280929190818152602001828054610394906117a4565b80156103e15780601f106103b6576101008083540402835291602001916103e1565b820191906000526020600020905b8154815290600101906020018083116103c457829003601f168201915b5050505050905090565b60006103f6826108d4565b506000908152600460205260409020546001600160a01b031690565b600061041d82610579565b9050806001600160a01b0316836001600160a01b031614156104905760405162461bcd60e51b815260206004820152602160248201527f4552433732313a20617070726f76616c20746f2063757272656e74206f776e656044820152603960f91b60648201526084015b60405180910390fd5b336001600160a01b03821614806104ac57506104ac81336102c6565b61051e5760405162461bcd60e51b815260206004820152603e60248201527f4552433732313a20617070726f76652063616c6c6572206973206e6f7420746f60448201527f6b656e206f776e6572206e6f7220617070726f76656420666f7220616c6c00006064820152608401610487565b6105288383610933565b505050565b61053733826109a1565b6105535760405162461bcd60e51b8152600401610487906116e7565b610528838383610a1f565b61052883838360405180602001604052806000815250610712565b6000818152600260205260408120546001600160a01b0316806103535760405162461bcd60e51b8152602060048201526018602482015277115490cdcc8c4e881a5b9d985b1a59081d1bdad95b88125160421b6044820152606401610487565b60006001600160a01b0382166106435760405162461bcd60e51b815260206004820152602960248201527f4552433732313a2061646472657373207a65726f206973206e6f7420612076616044820152683634b21037bbb732b960b91b6064820152608401610487565b506001600160a01b031660009081526003602052604090205490565b610667610bbb565b6106716000610c15565b565b606060018054610368906117a4565b600061068c610bbb565b60085461069a906001611735565b9050806009846040516106ad91906115fa565b90815260408051918290036020908101909220929092556000838152600a90915220805460ff191660011790556106e48482610c67565b6106ee8183610c81565b6106f9816001611735565b6008559392505050565b61070e338383610d1b565b5050565b61071c33836109a1565b6107385760405162461bcd60e51b8152600401610487906116e7565b61074484848484610dea565b50505050565b6060610755826108d4565b6000828152600660205260408120805461076e906117a4565b80601f016020809104026020016040519081016040528092919081815260200182805461079a906117a4565b80156107e75780601f106107bc576101008083540402835291602001916107e7565b820191906000526020600020905b8154815290600101906020018083116107ca57829003601f168201915b50505050509050600061080560408051602081019091526000815290565b9050805160001415610818575092915050565b81511561084a578082604051602001610832929190611616565b60405160208183030381529060405292505050919050565b61085384610e1d565b949350505050565b610863610bbb565b6001600160a01b0381166108c85760405162461bcd60e51b815260206004820152602660248201527f4f776e61626c653a206e6577206f776e657220697320746865207a65726f206160448201526564647265737360d01b6064820152608401610487565b6108d181610c15565b50565b6000818152600260205260409020546001600160a01b03166108d15760405162461bcd60e51b8152602060048201526018602482015277115490cdcc8c4e881a5b9d985b1a59081d1bdad95b88125160421b6044820152606401610487565b600081815260046020526040902080546001600160a01b0319166001600160a01b038416908117909155819061096882610579565b6001600160a01b03167f8c5be1e5ebec7d5bd14f71427d1e84f3dd0314c0f7b2291e5b200ac8c7c3b92560405160405180910390a45050565b6000806109ad83610579565b9050806001600160a01b0316846001600160a01b031614806109f457506001600160a01b0380821660009081526005602090815260408083209388168352929052205460ff165b806108535750836001600160a01b0316610a0d846103eb565b6001600160a01b031614949350505050565b826001600160a01b0316610a3282610579565b6001600160a01b031614610a965760405162461bcd60e51b815260206004820152602560248201527f4552433732313a207472616e736665722066726f6d20696e636f72726563742060448201526437bbb732b960d91b6064820152608401610487565b6001600160a01b038216610af85760405162461bcd60e51b8152602060048201526024808201527f4552433732313a207472616e7366657220746f20746865207a65726f206164646044820152637265737360e01b6064820152608401610487565b610b03600082610933565b6001600160a01b0383166000908152600360205260408120805460019290610b2c908490611761565b90915550506001600160a01b0382166000908152600360205260408120805460019290610b5a908490611735565b909155505060008181526002602052604080822080546001600160a01b0319166001600160a01b0386811691821790925591518493918716917fddf252ad1be2c89b69c2b068fc378daa952ba7f163c4a11628f55a4df523b3ef91a4505050565b6007546001600160a01b031633146106715760405162461bcd60e51b815260206004820181905260248201527f4f776e61626c653a2063616c6c6572206973206e6f7420746865206f776e65726044820152606401610487565b600780546001600160a01b038381166001600160a01b0319831681179093556040519116919082907f8be0079c531659141344cd1fd0a4f28419497f9722a3daafe3b4186f6b6457e090600090a35050565b61070e828260405180602001604052806000815250610e91565b6000828152600260205260409020546001600160a01b0316610cfc5760405162461bcd60e51b815260206004820152602e60248201527f45524337323155524953746f726167653a2055524920736574206f66206e6f6e60448201526d32bc34b9ba32b73a103a37b5b2b760911b6064820152608401610487565b600082815260066020908152604090912082516105289284019061122d565b816001600160a01b0316836001600160a01b03161415610d7d5760405162461bcd60e51b815260206004820152601960248201527f4552433732313a20617070726f766520746f2063616c6c6572000000000000006044820152606401610487565b6001600160a01b03838116600081815260056020908152604080832094871680845294825291829020805460ff191686151590811790915591519182527f17307eab39ab6107e8899845ad3d59bd9653f200f220920489ca2b5937696c31910160405180910390a3505050565b610df5848484610a1f565b610e0184848484610ec4565b6107445760405162461bcd60e51b815260040161048790611695565b6060610e28826108d4565b6000610e3f60408051602081019091526000815290565b90506000815111610e5f5760405180602001604052806000815250610e8a565b80610e6984610fd1565b604051602001610e7a929190611616565b6040516020818303038152906040525b9392505050565b610e9b83836110eb565b610ea86000848484610ec4565b6105285760405162461bcd60e51b815260040161048790611695565b60006001600160a01b0384163b15610fc657604051630a85bd0160e11b81526001600160a01b0385169063150b7a0290610f08903390899088908890600401611645565b602060405180830381600087803b158015610f2257600080fd5b505af1925050508015610f52575060408051601f3d908101601f19168201909252610f4f91810190611567565b60015b610fac573d808015610f80576040519150601f19603f3d011682016040523d82523d6000602084013e610f85565b606091505b508051610fa45760405162461bcd60e51b815260040161048790611695565b805181602001fd5b6001600160e01b031916630a85bd0160e11b149050610853565b506001949350505050565b606081610ff55750506040805180820190915260018152600360fc1b602082015290565b8160005b811561101f5780611009816117df565b91506110189050600a8361174d565b9150610ff9565b60008167ffffffffffffffff81111561104857634e487b7160e01b600052604160045260246000fd5b6040519080825280601f01601f191660200182016040528015611072576020820181803683370190505b5090505b841561085357611087600183611761565b9150611094600a866117fa565b61109f906030611735565b60f81b8183815181106110c257634e487b7160e01b600052603260045260246000fd5b60200101906001600160f81b031916908160001a9053506110e4600a8661174d565b9450611076565b6001600160a01b0382166111415760405162461bcd60e51b815260206004820181905260248201527f4552433732313a206d696e7420746f20746865207a65726f20616464726573736044820152606401610487565b6000818152600260205260409020546001600160a01b0316156111a65760405162461bcd60e51b815260206004820152601c60248201527f4552433732313a20746f6b656e20616c7265616479206d696e746564000000006044820152606401610487565b6001600160a01b03821660009081526003602052604081208054600192906111cf908490611735565b909155505060008181526002602052604080822080546001600160a01b0319166001600160a01b03861690811790915590518392907fddf252ad1be2c89b69c2b068fc378daa952ba7f163c4a11628f55a4df523b3ef908290a45050565b828054611239906117a4565b90600052602060002090601f01602090048101928261125b57600085556112a1565b82601f1061127457805160ff19168380011785556112a1565b828001600101855582156112a1579182015b828111156112a1578251825591602001919060010190611286565b506112ad9291506112b1565b5090565b5b808211156112ad57600081556001016112b2565b600067ffffffffffffffff808411156112e1576112e161183a565b604051601f8501601f19908116603f011681019082821181831017156113095761130961183a565b8160405280935085815286868601111561132257600080fd5b858560208301376000602087830101525050509392505050565b80356001600160a01b038116811461135357600080fd5b919050565b600082601f830112611368578081fd5b610e8a838335602085016112c6565b600060208284031215611388578081fd5b610e8a8261133c565b600080604083850312156113a3578081fd5b6113ac8361133c565b91506113ba6020840161133c565b90509250929050565b6000806000606084860312156113d7578081fd5b6113e08461133c565b92506113ee6020850161133c565b9150604084013590509250925092565b60008060008060808587031215611413578081fd5b61141c8561133c565b935061142a6020860161133c565b925060408501359150606085013567ffffffffffffffff81111561144c578182fd5b8501601f8101871361145c578182fd5b61146b878235602084016112c6565b91505092959194509250565b60008060408385031215611489578182fd5b6114928361133c565b9150602083013580151581146114a6578182fd5b809150509250929050565b6000806000606084860312156114c5578283fd5b6114ce8461133c565b9250602084013567ffffffffffffffff808211156114ea578384fd5b6114f687838801611358565b9350604086013591508082111561150b578283fd5b5061151886828701611358565b9150509250925092565b60008060408385031215611534578182fd5b61153d8361133c565b946020939093013593505050565b60006020828403121561155c578081fd5b8135610e8a81611850565b600060208284031215611578578081fd5b8151610e8a81611850565b600060208284031215611594578081fd5b813567ffffffffffffffff8111156115aa578182fd5b61085384828501611358565b6000602082840312156115c7578081fd5b5035919050565b600081518084526115e6816020860160208601611778565b601f01601f19169290920160200192915050565b6000825161160c818460208701611778565b9190910192915050565b60008351611628818460208801611778565b83519083019061163c818360208801611778565b01949350505050565b6001600160a01b0385811682528416602082015260408101839052608060608201819052600090611678908301846115ce565b9695505050505050565b602081526000610e8a60208301846115ce565b60208082526032908201527f4552433732313a207472616e7366657220746f206e6f6e20455243373231526560408201527131b2b4bb32b91034b6b83632b6b2b73a32b960711b606082015260800190565b6020808252602e908201527f4552433732313a2063616c6c6572206973206e6f7420746f6b656e206f776e6560408201526d1c881b9bdc88185c1c1c9bdd995960921b606082015260800190565b600082198211156117485761174861180e565b500190565b60008261175c5761175c611824565b500490565b6000828210156117735761177361180e565b500390565b60005b8381101561179357818101518382015260200161177b565b838111156107445750506000910152565b600181811c908216806117b857607f821691505b602082108114156117d957634e487b7160e01b600052602260045260246000fd5b50919050565b60006000198214156117f3576117f361180e565b5060010190565b60008261180957611809611824565b500690565b634e487b7160e01b600052601160045260246000fd5b634e487b7160e01b600052601260045260246000fd5b634e487b7160e01b600052604160045260246000fd5b6001600160e01b0319811681146108d157600080fdfea264697066735822122061ae216cc9664749da1a8c8fadbc361bfdaa30076395070af4d09b09cb5dec6564736f6c63430008040033",
  "linkReferences": {},
  "deployedLinkReferences": {}
}