{
  "_format": "hh-sol-artifact-1",
  "contractName": "NotarizedDocumentNft",
  "sourceName": "contracts/NotarizedDocumentNft.sol",
  "abi": [
    {
      "inputs": [],
      "stateMutability": "nonpayable",
      "type": "constructor"
    },
    {
      "anonymous": false,
      "inputs": [
        {
          "indexed": true,
          "internalType": "address",
          "name": "owner",
          "type": "address"
        },
        {
          "indexed": true,
          "internalType": "address",
          "name": "approved",
          "type": "address"
        },
        {
          "indexed": true,
          "internalType": "uint256",
          "name": "tokenId",
          "type": "uint256"
        }
      ],
      "name": "Approval",
      "type": "event"
    },
    {
      "anonymous": false,
      "inputs": [
        {
          "indexed": true,
          "internalType": "address",
          "name": "owner",
          "type": "address"
        },
        {
          "indexed": true,
          "internalType": "address",
          "name": "operator",
          "type": "address"
        },
        {
          "indexed": false,
          "internalType": "bool",
          "name": "approved",
          "type": "bool"
        }
      ],
      "name": "ApprovalForAll",
      "type": "event"
    },
    {
      "anonymous": false,
      "inputs": [
        {
          "indexed": true,
          "internalType": "address",
          "name": "previousOwner",
          "type": "address"
        },
        {
          "indexed": true,
          "internalType": "address",
          "name": "newOwner",
          "type": "address"
        }
      ],
      "name": "OwnershipTransferred",
      "type": "event"
    },
    {
      "anonymous": false,
      "inputs": [
        {
          "indexed": true,
          "internalType": "address",
          "name": "from",
          "type": "address"
        },
        {
          "indexed": true,
          "internalType": "address",
          "name": "to",
          "type": "address"
        },
        {
          "indexed": true,
          "internalType": "uint256",
          "name": "tokenId",
          "type": "uint256"
        }
      ],
      "name": "Transfer",
      "type": "event"
    },
    {
      "inputs": [
        {
          "internalType": "address",
          "name": "to",
          "type": "address"
        },
        {
          "internalType": "uint256",
          "name": "tokenId",
          "type": "uint256"
        }
      ],
      "name": "approve",
      "outputs": [],
      "stateMutability": "nonpayable",
      "type": "function"
    },
    {
      "inputs": [
        {
          "internalType": "address",
          "name": "owner",
          "type": "address"
        }
      ],
      "name": "balanceOf",
      "outputs": [
        {
          "internalType": "uint256",
          "name": "",
          "type": "uint256"
        }
      ],
      "stateMutability": "view",
      "type": "function"
    },
    {
      "inputs": [
        {
          "internalType": "uint256",
          "name": "tokenId",
          "type": "uint256"
        }
      ],
      "name": "getApproved",
      "outputs": [
        {
          "internalType": "address",
          "name": "",
          "type": "address"
        }
      ],
      "stateMutability": "view",
      "type": "function"
    },
    {
      "inputs": [
        {
          "internalType": "address",
          "name": "owner",
          "type": "address"
        },
        {
          "internalType": "address",
          "name": "operator",
          "type": "address"
        }
      ],
      "name": "isApprovedForAll",
      "outputs": [
        {
          "internalType": "bool",
          "name": "",
          "type": "bool"
        }
      ],
      "stateMutability": "view",
      "type": "function"
    },
    {
      "inputs": [
        {
          "internalType": "address",
          "name": "to",
          "type": "address"
        },
        {
          "internalType": "string",
          "name": "_metadataUri",
          "type": "string"
        }
      ],
      "name": "mint",
      "outputs": [
        {
          "internalType": "uint256",
          "name": "tokenId",
          "type": "uint256"
        }
      ],
      "stateMutability": "nonpayable",
      "type": "function"
    },
    {
      "inputs": [],
      "name": "name",
      "outputs": [
        {
          "internalType": "string",
          "name": "",
          "type": "string"
        }
      ],
      "stateMutability": "view",
      "type": "function"
    },
    {
      "inputs": [],
      "name": "owner",
      "outputs": [
        {
          "internalType": "address",
          "name": "",
          "type": "address"
        }
      ],
      "stateMutability": "view",
      "type": "function"
    },
    {
      "inputs": [
        {
          "internalType": "uint256",
          "name": "tokenId",
          "type": "uint256"
        }
      ],
      "name": "ownerOf",
      "outputs": [
        {
          "internalType": "address",
          "name": "",
          "type": "address"
        }
      ],
      "stateMutability": "view",
      "type": "function"
    },
    {
      "inputs": [],
      "name": "renounceOwnership",
      "outputs": [],
      "stateMutability": "nonpayable",
      "type": "function"
    },
    {
      "inputs": [
        {
          "internalType": "address",
          "name": "from",
          "type": "address"
        },
        {
          "internalType": "address",
          "name": "to",
          "type": "address"
        },
        {
          "internalType": "uint256",
          "name": "tokenId",
          "type": "uint256"
        }
      ],
      "name": "safeTransferFrom",
      "outputs": [],
      "stateMutability": "nonpayable",
      "type": "function"
    },
    {
      "inputs": [
        {
          "internalType": "address",
          "name": "from",
          "type": "address"
        },
        {
          "internalType": "address",
          "name": "to",
          "type": "address"
        },
        {
          "internalType": "uint256",
          "name": "tokenId",
          "type": "uint256"
        },
        {
          "internalType": "bytes",
          "name": "data",
          "type": "bytes"
        }
      ],
      "name": "safeTransferFrom",
      "outputs": [],
      "stateMutability": "nonpayable",
      "type": "function"
    },
    {
      "inputs": [
        {
          "internalType": "address",
          "name": "operator",
          "type": "address"
        },
        {
          "internalType": "bool",
          "name": "approved",
          "type": "bool"
        }
      ],
      "name": "setApprovalForAll",
      "outputs": [],
      "stateMutability": "nonpayable",
      "type": "function"
    },
    {
      "inputs": [
        {
          "internalType": "bytes4",
          "name": "interfaceId",
          "type": "bytes4"
        }
      ],
      "name": "supportsInterface",
      "outputs": [
        {
          "internalType": "bool",
          "name": "",
          "type": "bool"
        }
      ],
      "stateMutability": "view",
      "type": "function"
    },
    {
      "inputs": [],
      "name": "symbol",
      "outputs": [
        {
          "internalType": "string",
          "name": "",
          "type": "string"
        }
      ],
      "stateMutability": "view",
      "type": "function"
    },
    {
      "inputs": [
        {
          "internalType": "string",
          "name": "",
          "type": "string"
        }
      ],
      "name": "tokenByUri",
      "outputs": [
        {
          "internalType": "uint256",
          "name": "",
          "type": "uint256"
        }
      ],
      "stateMutability": "view",
      "type": "function"
    },
    {
      "inputs": [
        {
          "internalType": "uint256",
          "name": "tokenId",
          "type": "uint256"
        }
      ],
      "name": "tokenURI",
      "outputs": [
        {
          "internalType": "string",
          "name": "",
          "type": "string"
        }
      ],
      "stateMutability": "view",
      "type": "function"
    },
    {
      "inputs": [
        {
          "internalType": "address",
          "name": "from",
          "type": "address"
        },
        {
          "internalType": "address",
          "name": "to",
          "type": "address"
        },
        {
          "internalType": "uint256",
          "name": "tokenId",
          "type": "uint256"
        }
      ],
      "name": "transferFrom",
      "outputs": [],
      "stateMutability": "nonpayable",
      "type": "function"
    },
    {
      "inputs": [
        {
          "internalType": "address",
          "name": "newOwner",
          "type": "address"
        }
      ],
      "name": "transferOwnership",
      "outputs": [],
      "stateMutability": "nonpayable",
      "type": "function"
    }
  ],
  "bytecode": "0x608060405260006008553480156200001657600080fd5b506040518060400160405280601481526020017f4e6f746172697a6564446f63756d656e744e66740000000000000000000000008152506040518060400160405280600481526020017f4e444f430000000000000000000000000000000000000000000000000000000081525081600090805190602001906200009b929190620001ab565b508060019080519060200190620000b4929190620001ab565b505050620000d7620000cb620000dd60201b60201c565b620000e560201b60201c565b620002c0565b600033905090565b6000600760009054906101000a900473ffffffffffffffffffffffffffffffffffffffff16905081600760006101000a81548173ffffffffffffffffffffffffffffffffffffffff021916908373ffffffffffffffffffffffffffffffffffffffff1602179055508173ffffffffffffffffffffffffffffffffffffffff168173ffffffffffffffffffffffffffffffffffffffff167f8be0079c531659141344cd1fd0a4f28419497f9722a3daafe3b4186f6b6457e060405160405180910390a35050565b828054620001b9906200025b565b90600052602060002090601f016020900481019282620001dd576000855562000229565b82601f10620001f857805160ff191683800117855562000229565b8280016001018555821562000229579182015b82811115620002285782518255916020019190600101906200020b565b5b5090506200023891906200023c565b5090565b5b80821115620002575760008160009055506001016200023d565b5090565b600060028204905060018216806200027457607f821691505b602082108114156200028b576200028a62000291565b5b50919050565b7f4e487b7100000000000000000000000000000000000000000000000000000000600052602260045260246000fd5b612d1780620002d06000396000f3fe608060405234801561001057600080fd5b50600436106101165760003560e01c80638da5cb5b116100a2578063c87b56dd11610071578063c87b56dd146102cb578063d0def521146102fb578063e985e9c51461032b578063ec35c7991461035b578063f2fde38b1461038b57610116565b80638da5cb5b1461025757806395d89b4114610275578063a22cb46514610293578063b88d4fde146102af57610116565b806323b872dd116100e957806323b872dd146101b557806342842e0e146101d15780636352211e146101ed57806370a082311461021d578063715018a61461024d57610116565b806301ffc9a71461011b57806306fdde031461014b578063081812fc14610169578063095ea7b314610199575b600080fd5b61013560048036038101906101309190611edc565b6103a7565b60405161014291906122f4565b60405180910390f35b610153610489565b604051610160919061230f565b60405180910390f35b610183600480360381019061017e9190611f6f565b61051b565b604051610190919061228d565b60405180910390f35b6101b360048036038101906101ae9190611ea0565b610561565b005b6101cf60048036038101906101ca9190611d46565b610679565b005b6101eb60048036038101906101e69190611d46565b6106d9565b005b61020760048036038101906102029190611f6f565b6106f9565b604051610214919061228d565b60405180910390f35b61023760048036038101906102329190611ce1565b6107ab565b60405161024491906124f1565b60405180910390f35b610255610863565b005b61025f610877565b60405161026c919061228d565b60405180910390f35b61027d6108a1565b60405161028a919061230f565b60405180910390f35b6102ad60048036038101906102a89190611e10565b610933565b005b6102c960048036038101906102c49190611d95565b610949565b005b6102e560048036038101906102e09190611f6f565b6109ab565b6040516102f2919061230f565b60405180910390f35b61031560048036038101906103109190611e4c565b610abe565b60405161032291906124f1565b60405180910390f35b61034560048036038101906103409190611d0a565b610b1d565b60405161035291906122f4565b60405180910390f35b61037560048036038101906103709190611f2e565b610bb1565b60405161038291906124f1565b60405180910390f35b6103a560048036038101906103a09190611ce1565b610bdf565b005b60007f80ac58cd000000000000000000000000000000000000000000000000000000007bffffffffffffffffffffffffffffffffffffffffffffffffffffffff1916827bffffffffffffffffffffffffffffffffffffffffffffffffffffffff1916148061047257507f5b5e139f000000000000000000000000000000000000000000000000000000007bffffffffffffffffffffffffffffffffffffffffffffffffffffffff1916827bffffffffffffffffffffffffffffffffffffffffffffffffffffffff1916145b80610482575061048182610c63565b5b9050919050565b60606000805461049890612747565b80601f01602080910402602001604051908101604052809291908181526020018280546104c490612747565b80156105115780601f106104e657610100808354040283529160200191610511565b820191906000526020600020905b8154815290600101906020018083116104f457829003601f168201915b5050505050905090565b600061052682610ccd565b6004600083815260200190815260200160002060009054906101000a900473ffffffffffffffffffffffffffffffffffffffff169050919050565b600061056c826106f9565b90508073ffffffffffffffffffffffffffffffffffffffff168373ffffffffffffffffffffffffffffffffffffffff1614156105dd576040517f08c379a00000000000000000000000000000000000000000000000000000000081526004016105d4906124b1565b60405180910390fd5b8073ffffffffffffffffffffffffffffffffffffffff166105fc610d18565b73ffffffffffffffffffffffffffffffffffffffff16148061062b575061062a81610625610d18565b610b1d565b5b61066a576040517f08c379a000000000000000000000000000000000000000000000000000000000815260040161066190612431565b60405180910390fd5b6106748383610d20565b505050565b61068a610684610d18565b82610dd9565b6106c9576040517f08c379a00000000000000000000000000000000000000000000000000000000081526004016106c0906124d1565b60405180910390fd5b6106d4838383610e6e565b505050565b6106f483838360405180602001604052806000815250610949565b505050565b6000806002600084815260200190815260200160002060009054906101000a900473ffffffffffffffffffffffffffffffffffffffff169050600073ffffffffffffffffffffffffffffffffffffffff168173ffffffffffffffffffffffffffffffffffffffff1614156107a2576040517f08c379a000000000000000000000000000000000000000000000000000000000815260040161079990612491565b60405180910390fd5b80915050919050565b60008073ffffffffffffffffffffffffffffffffffffffff168273ffffffffffffffffffffffffffffffffffffffff16141561081c576040517f08c379a0000000000000000000000000000000000000000000000000000000008152600401610813906123f1565b60405180910390fd5b600360008373ffffffffffffffffffffffffffffffffffffffff1673ffffffffffffffffffffffffffffffffffffffff168152602001908152602001600020549050919050565b61086b6110d5565b6108756000611153565b565b6000600760009054906101000a900473ffffffffffffffffffffffffffffffffffffffff16905090565b6060600180546108b090612747565b80601f01602080910402602001604051908101604052809291908181526020018280546108dc90612747565b80156109295780601f106108fe57610100808354040283529160200191610929565b820191906000526020600020905b81548152906001019060200180831161090c57829003601f168201915b5050505050905090565b61094561093e610d18565b8383611219565b5050565b61095a610954610d18565b83610dd9565b610999576040517f08c379a0000000000000000000000000000000000000000000000000000000008152600401610990906124d1565b60405180910390fd5b6109a584848484611386565b50505050565b60606109b682610ccd565b60006006600084815260200190815260200160002080546109d690612747565b80601f0160208091040260200160405190810160405280929190818152602001828054610a0290612747565b8015610a4f5780601f10610a2457610100808354040283529160200191610a4f565b820191906000526020600020905b815481529060010190602001808311610a3257829003601f168201915b505050505090506000610a606113e2565b9050600081511415610a76578192505050610ab9565b600082511115610aab578082604051602001610a93929190612269565b60405160208183030381529060405292505050610ab9565b610ab4846113f9565b925050505b919050565b6000610ac86110d5565b6001600854610ad791906125d6565b9050610ae38382611461565b610aed818361147f565b80600983604051610afe9190612252565b9081526020016040518091039020819055508060088190555092915050565b6000600560008473ffffffffffffffffffffffffffffffffffffffff1673ffffffffffffffffffffffffffffffffffffffff16815260200190815260200160002060008373ffffffffffffffffffffffffffffffffffffffff1673ffffffffffffffffffffffffffffffffffffffff16815260200190815260200160002060009054906101000a900460ff16905092915050565b6009818051602081018201805184825260208301602085012081835280955050505050506000915090505481565b610be76110d5565b600073ffffffffffffffffffffffffffffffffffffffff168173ffffffffffffffffffffffffffffffffffffffff161415610c57576040517f08c379a0000000000000000000000000000000000000000000000000000000008152600401610c4e90612351565b60405180910390fd5b610c6081611153565b50565b60007f01ffc9a7000000000000000000000000000000000000000000000000000000007bffffffffffffffffffffffffffffffffffffffffffffffffffffffff1916827bffffffffffffffffffffffffffffffffffffffffffffffffffffffff1916149050919050565b610cd6816114f3565b610d15576040517f08c379a0000000000000000000000000000000000000000000000000000000008152600401610d0c90612491565b60405180910390fd5b50565b600033905090565b816004600083815260200190815260200160002060006101000a81548173ffffffffffffffffffffffffffffffffffffffff021916908373ffffffffffffffffffffffffffffffffffffffff160217905550808273ffffffffffffffffffffffffffffffffffffffff16610d93836106f9565b73ffffffffffffffffffffffffffffffffffffffff167f8c5be1e5ebec7d5bd14f71427d1e84f3dd0314c0f7b2291e5b200ac8c7c3b92560405160405180910390a45050565b600080610de5836106f9565b90508073ffffffffffffffffffffffffffffffffffffffff168473ffffffffffffffffffffffffffffffffffffffff161480610e275750610e268185610b1d565b5b80610e6557508373ffffffffffffffffffffffffffffffffffffffff16610e4d8461051b565b73ffffffffffffffffffffffffffffffffffffffff16145b91505092915050565b8273ffffffffffffffffffffffffffffffffffffffff16610e8e826106f9565b73ffffffffffffffffffffffffffffffffffffffff1614610ee4576040517f08c379a0000000000000000000000000000000000000000000000000000000008152600401610edb90612371565b60405180910390fd5b600073ffffffffffffffffffffffffffffffffffffffff168273ffffffffffffffffffffffffffffffffffffffff161415610f54576040517f08c379a0000000000000000000000000000000000000000000000000000000008152600401610f4b906123b1565b60405180910390fd5b610f5f83838361155f565b610f6a600082610d20565b6001600360008573ffffffffffffffffffffffffffffffffffffffff1673ffffffffffffffffffffffffffffffffffffffff1681526020019081526020016000206000828254610fba919061265d565b925050819055506001600360008473ffffffffffffffffffffffffffffffffffffffff1673ffffffffffffffffffffffffffffffffffffffff168152602001908152602001600020600082825461101191906125d6565b92505081905550816002600083815260200190815260200160002060006101000a81548173ffffffffffffffffffffffffffffffffffffffff021916908373ffffffffffffffffffffffffffffffffffffffff160217905550808273ffffffffffffffffffffffffffffffffffffffff168473ffffffffffffffffffffffffffffffffffffffff167fddf252ad1be2c89b69c2b068fc378daa952ba7f163c4a11628f55a4df523b3ef60405160405180910390a46110d0838383611564565b505050565b6110dd610d18565b73ffffffffffffffffffffffffffffffffffffffff166110fb610877565b73ffffffffffffffffffffffffffffffffffffffff1614611151576040517f08c379a000000000000000000000000000000000000000000000000000000000815260040161114890612471565b60405180910390fd5b565b6000600760009054906101000a900473ffffffffffffffffffffffffffffffffffffffff16905081600760006101000a81548173ffffffffffffffffffffffffffffffffffffffff021916908373ffffffffffffffffffffffffffffffffffffffff1602179055508173ffffffffffffffffffffffffffffffffffffffff168173ffffffffffffffffffffffffffffffffffffffff167f8be0079c531659141344cd1fd0a4f28419497f9722a3daafe3b4186f6b6457e060405160405180910390a35050565b8173ffffffffffffffffffffffffffffffffffffffff168373ffffffffffffffffffffffffffffffffffffffff161415611288576040517f08c379a000000000000000000000000000000000000000000000000000000000815260040161127f906123d1565b60405180910390fd5b80600560008573ffffffffffffffffffffffffffffffffffffffff1673ffffffffffffffffffffffffffffffffffffffff16815260200190815260200160002060008473ffffffffffffffffffffffffffffffffffffffff1673ffffffffffffffffffffffffffffffffffffffff16815260200190815260200160002060006101000a81548160ff0219169083151502179055508173ffffffffffffffffffffffffffffffffffffffff168373ffffffffffffffffffffffffffffffffffffffff167f17307eab39ab6107e8899845ad3d59bd9653f200f220920489ca2b5937696c318360405161137991906122f4565b60405180910390a3505050565b611391848484610e6e565b61139d84848484611569565b6113dc576040517f08c379a00000000000000000000000000000000000000000000000000000000081526004016113d390612331565b60405180910390fd5b50505050565b606060405180602001604052806000815250905090565b606061140482610ccd565b600061140e6113e2565b9050600081511161142e5760405180602001604052806000815250611459565b8061143884611700565b604051602001611449929190612269565b6040516020818303038152906040525b915050919050565b61147b8282604051806020016040528060008152506118ad565b5050565b611488826114f3565b6114c7576040517f08c379a00000000000000000000000000000000000000000000000000000000081526004016114be90612411565b60405180910390fd5b806006600084815260200190815260200160002090805190602001906114ee929190611b05565b505050565b60008073ffffffffffffffffffffffffffffffffffffffff166002600084815260200190815260200160002060009054906101000a900473ffffffffffffffffffffffffffffffffffffffff1673ffffffffffffffffffffffffffffffffffffffff1614159050919050565b505050565b505050565b600061158a8473ffffffffffffffffffffffffffffffffffffffff16611908565b156116f3578373ffffffffffffffffffffffffffffffffffffffff1663150b7a026115b3610d18565b8786866040518563ffffffff1660e01b81526004016115d594939291906122a8565b602060405180830381600087803b1580156115ef57600080fd5b505af192505050801561162057506040513d601f19601f8201168201806040525081019061161d9190611f05565b60015b6116a3573d8060008114611650576040519150601f19603f3d011682016040523d82523d6000602084013e611655565b606091505b5060008151141561169b576040517f08c379a000000000000000000000000000000000000000000000000000000000815260040161169290612331565b60405180910390fd5b805181602001fd5b63150b7a0260e01b7bffffffffffffffffffffffffffffffffffffffffffffffffffffffff1916817bffffffffffffffffffffffffffffffffffffffffffffffffffffffff1916149150506116f8565b600190505b949350505050565b60606000821415611748576040518060400160405280600181526020017f300000000000000000000000000000000000000000000000000000000000000081525090506118a8565b600082905060005b6000821461177a578080611763906127aa565b915050600a82611773919061262c565b9150611750565b60008167ffffffffffffffff8111156117bc577f4e487b7100000000000000000000000000000000000000000000000000000000600052604160045260246000fd5b6040519080825280601f01601f1916602001820160405280156117ee5781602001600182028036833780820191505090505b5090505b600085146118a157600182611807919061265d565b9150600a8561181691906127f3565b603061182291906125d6565b60f81b81838151811061185e577f4e487b7100000000000000000000000000000000000000000000000000000000600052603260045260246000fd5b60200101907effffffffffffffffffffffffffffffffffffffffffffffffffffffffffffff1916908160001a905350600a8561189a919061262c565b94506117f2565b8093505050505b919050565b6118b7838361192b565b6118c46000848484611569565b611903576040517f08c379a00000000000000000000000000000000000000000000000000000000081526004016118fa90612331565b60405180910390fd5b505050565b6000808273ffffffffffffffffffffffffffffffffffffffff163b119050919050565b600073ffffffffffffffffffffffffffffffffffffffff168273ffffffffffffffffffffffffffffffffffffffff16141561199b576040517f08c379a000000000000000000000000000000000000000000000000000000000815260040161199290612451565b60405180910390fd5b6119a4816114f3565b156119e4576040517f08c379a00000000000000000000000000000000000000000000000000000000081526004016119db90612391565b60405180910390fd5b6119f06000838361155f565b6001600360008473ffffffffffffffffffffffffffffffffffffffff1673ffffffffffffffffffffffffffffffffffffffff1681526020019081526020016000206000828254611a4091906125d6565b92505081905550816002600083815260200190815260200160002060006101000a81548173ffffffffffffffffffffffffffffffffffffffff021916908373ffffffffffffffffffffffffffffffffffffffff160217905550808273ffffffffffffffffffffffffffffffffffffffff16600073ffffffffffffffffffffffffffffffffffffffff167fddf252ad1be2c89b69c2b068fc378daa952ba7f163c4a11628f55a4df523b3ef60405160405180910390a4611b0160008383611564565b5050565b828054611b1190612747565b90600052602060002090601f016020900481019282611b335760008555611b7a565b82601f10611b4c57805160ff1916838001178555611b7a565b82800160010185558215611b7a579182015b82811115611b79578251825591602001919060010190611b5e565b5b509050611b879190611b8b565b5090565b5b80821115611ba4576000816000905550600101611b8c565b5090565b6000611bbb611bb684612531565b61250c565b905082815260208101848484011115611bd357600080fd5b611bde848285612705565b509392505050565b6000611bf9611bf484612562565b61250c565b905082815260208101848484011115611c1157600080fd5b611c1c848285612705565b509392505050565b600081359050611c3381612c85565b92915050565b600081359050611c4881612c9c565b92915050565b600081359050611c5d81612cb3565b92915050565b600081519050611c7281612cb3565b92915050565b600082601f830112611c8957600080fd5b8135611c99848260208601611ba8565b91505092915050565b600082601f830112611cb357600080fd5b8135611cc3848260208601611be6565b91505092915050565b600081359050611cdb81612cca565b92915050565b600060208284031215611cf357600080fd5b6000611d0184828501611c24565b91505092915050565b60008060408385031215611d1d57600080fd5b6000611d2b85828601611c24565b9250506020611d3c85828601611c24565b9150509250929050565b600080600060608486031215611d5b57600080fd5b6000611d6986828701611c24565b9350506020611d7a86828701611c24565b9250506040611d8b86828701611ccc565b9150509250925092565b60008060008060808587031215611dab57600080fd5b6000611db987828801611c24565b9450506020611dca87828801611c24565b9350506040611ddb87828801611ccc565b925050606085013567ffffffffffffffff811115611df857600080fd5b611e0487828801611c78565b91505092959194509250565b60008060408385031215611e2357600080fd5b6000611e3185828601611c24565b9250506020611e4285828601611c39565b9150509250929050565b60008060408385031215611e5f57600080fd5b6000611e6d85828601611c24565b925050602083013567ffffffffffffffff811115611e8a57600080fd5b611e9685828601611ca2565b9150509250929050565b60008060408385031215611eb357600080fd5b6000611ec185828601611c24565b9250506020611ed285828601611ccc565b9150509250929050565b600060208284031215611eee57600080fd5b6000611efc84828501611c4e565b91505092915050565b600060208284031215611f1757600080fd5b6000611f2584828501611c63565b91505092915050565b600060208284031215611f4057600080fd5b600082013567ffffffffffffffff811115611f5a57600080fd5b611f6684828501611ca2565b91505092915050565b600060208284031215611f8157600080fd5b6000611f8f84828501611ccc565b91505092915050565b611fa181612691565b82525050565b611fb0816126a3565b82525050565b6000611fc182612593565b611fcb81856125a9565b9350611fdb818560208601612714565b611fe4816128e0565b840191505092915050565b6000611ffa8261259e565b61200481856125ba565b9350612014818560208601612714565b61201d816128e0565b840191505092915050565b60006120338261259e565b61203d81856125cb565b935061204d818560208601612714565b80840191505092915050565b60006120666032836125ba565b9150612071826128f1565b604082019050919050565b60006120896026836125ba565b915061209482612940565b604082019050919050565b60006120ac6025836125ba565b91506120b78261298f565b604082019050919050565b60006120cf601c836125ba565b91506120da826129de565b602082019050919050565b60006120f26024836125ba565b91506120fd82612a07565b604082019050919050565b60006121156019836125ba565b915061212082612a56565b602082019050919050565b60006121386029836125ba565b915061214382612a7f565b604082019050919050565b600061215b602e836125ba565b915061216682612ace565b604082019050919050565b600061217e603e836125ba565b915061218982612b1d565b604082019050919050565b60006121a16020836125ba565b91506121ac82612b6c565b602082019050919050565b60006121c46020836125ba565b91506121cf82612b95565b602082019050919050565b60006121e76018836125ba565b91506121f282612bbe565b602082019050919050565b600061220a6021836125ba565b915061221582612be7565b604082019050919050565b600061222d602e836125ba565b915061223882612c36565b604082019050919050565b61224c816126fb565b82525050565b600061225e8284612028565b915081905092915050565b60006122758285612028565b91506122818284612028565b91508190509392505050565b60006020820190506122a26000830184611f98565b92915050565b60006080820190506122bd6000830187611f98565b6122ca6020830186611f98565b6122d76040830185612243565b81810360608301526122e98184611fb6565b905095945050505050565b60006020820190506123096000830184611fa7565b92915050565b600060208201905081810360008301526123298184611fef565b905092915050565b6000602082019050818103600083015261234a81612059565b9050919050565b6000602082019050818103600083015261236a8161207c565b9050919050565b6000602082019050818103600083015261238a8161209f565b9050919050565b600060208201905081810360008301526123aa816120c2565b9050919050565b600060208201905081810360008301526123ca816120e5565b9050919050565b600060208201905081810360008301526123ea81612108565b9050919050565b6000602082019050818103600083015261240a8161212b565b9050919050565b6000602082019050818103600083015261242a8161214e565b9050919050565b6000602082019050818103600083015261244a81612171565b9050919050565b6000602082019050818103600083015261246a81612194565b9050919050565b6000602082019050818103600083015261248a816121b7565b9050919050565b600060208201905081810360008301526124aa816121da565b9050919050565b600060208201905081810360008301526124ca816121fd565b9050919050565b600060208201905081810360008301526124ea81612220565b9050919050565b60006020820190506125066000830184612243565b92915050565b6000612516612527565b90506125228282612779565b919050565b6000604051905090565b600067ffffffffffffffff82111561254c5761254b6128b1565b5b612555826128e0565b9050602081019050919050565b600067ffffffffffffffff82111561257d5761257c6128b1565b5b612586826128e0565b9050602081019050919050565b600081519050919050565b600081519050919050565b600082825260208201905092915050565b600082825260208201905092915050565b600081905092915050565b60006125e1826126fb565b91506125ec836126fb565b9250827fffffffffffffffffffffffffffffffffffffffffffffffffffffffffffffffff0382111561262157612620612824565b5b828201905092915050565b6000612637826126fb565b9150612642836126fb565b92508261265257612651612853565b5b828204905092915050565b6000612668826126fb565b9150612673836126fb565b92508282101561268657612685612824565b5b828203905092915050565b600061269c826126db565b9050919050565b60008115159050919050565b60007fffffffff0000000000000000000000000000000000000000000000000000000082169050919050565b600073ffffffffffffffffffffffffffffffffffffffff82169050919050565b6000819050919050565b82818337600083830152505050565b60005b83811015612732578082015181840152602081019050612717565b83811115612741576000848401525b50505050565b6000600282049050600182168061275f57607f821691505b6020821081141561277357612772612882565b5b50919050565b612782826128e0565b810181811067ffffffffffffffff821117156127a1576127a06128b1565b5b80604052505050565b60006127b5826126fb565b91507fffffffffffffffffffffffffffffffffffffffffffffffffffffffffffffffff8214156127e8576127e7612824565b5b600182019050919050565b60006127fe826126fb565b9150612809836126fb565b92508261281957612818612853565b5b828206905092915050565b7f4e487b7100000000000000000000000000000000000000000000000000000000600052601160045260246000fd5b7f4e487b7100000000000000000000000000000000000000000000000000000000600052601260045260246000fd5b7f4e487b7100000000000000000000000000000000000000000000000000000000600052602260045260246000fd5b7f4e487b7100000000000000000000000000000000000000000000000000000000600052604160045260246000fd5b6000601f19601f8301169050919050565b7f4552433732313a207472616e7366657220746f206e6f6e20455243373231526560008201527f63656976657220696d706c656d656e7465720000000000000000000000000000602082015250565b7f4f776e61626c653a206e6577206f776e657220697320746865207a65726f206160008201527f6464726573730000000000000000000000000000000000000000000000000000602082015250565b7f4552433732313a207472616e736665722066726f6d20696e636f72726563742060008201527f6f776e6572000000000000000000000000000000000000000000000000000000602082015250565b7f4552433732313a20746f6b656e20616c7265616479206d696e74656400000000600082015250565b7f4552433732313a207472616e7366657220746f20746865207a65726f2061646460008201527f7265737300000000000000000000000000000000000000000000000000000000602082015250565b7f4552433732313a20617070726f766520746f2063616c6c657200000000000000600082015250565b7f4552433732313a2061646472657373207a65726f206973206e6f74206120766160008201527f6c6964206f776e65720000000000000000000000000000000000000000000000602082015250565b7f45524337323155524953746f726167653a2055524920736574206f66206e6f6e60008201527f6578697374656e7420746f6b656e000000000000000000000000000000000000602082015250565b7f4552433732313a20617070726f76652063616c6c6572206973206e6f7420746f60008201527f6b656e206f776e6572206e6f7220617070726f76656420666f7220616c6c0000602082015250565b7f4552433732313a206d696e7420746f20746865207a65726f2061646472657373600082015250565b7f4f776e61626c653a2063616c6c6572206973206e6f7420746865206f776e6572600082015250565b7f4552433732313a20696e76616c696420746f6b656e2049440000000000000000600082015250565b7f4552433732313a20617070726f76616c20746f2063757272656e74206f776e6560008201527f7200000000000000000000000000000000000000000000000000000000000000602082015250565b7f4552433732313a2063616c6c6572206973206e6f7420746f6b656e206f776e6560008201527f72206e6f7220617070726f766564000000000000000000000000000000000000602082015250565b612c8e81612691565b8114612c9957600080fd5b50565b612ca5816126a3565b8114612cb057600080fd5b50565b612cbc816126af565b8114612cc757600080fd5b50565b612cd3816126fb565b8114612cde57600080fd5b5056fea264697066735822122059675ddbd579af8dc6f2023d4edb136703d7e67185529ed7a0cd40ae3f21dc1e64736f6c63430008040033",
  "linkReferences": {},
  "deployedLinkReferences": {}
}